{
  "contractName": "Chainy",
  "abi": [
    {
      "constant": true,
      "inputs": [],
      "name": "owner",
      "outputs": [
        {
          "name": "",
          "type": "address"
        }
      ],
      "payable": false,
      "stateMutability": "view",
      "type": "function"
    },
    {
      "constant": false,
      "inputs": [
        {
          "name": "newOwner",
          "type": "address"
        }
      ],
      "name": "transferOwnership",
      "outputs": [],
      "payable": false,
      "stateMutability": "nonpayable",
      "type": "function"
    },
    {
      "inputs": [],
      "payable": false,
      "stateMutability": "nonpayable",
      "type": "constructor"
    },
    {
      "anonymous": false,
      "inputs": [
        {
          "indexed": false,
          "name": "timestamp",
          "type": "uint256"
        },
        {
          "indexed": false,
          "name": "code",
          "type": "string"
        }
      ],
      "name": "chainyShortLink",
      "type": "event"
    },
    {
      "constant": false,
      "inputs": [
        {
          "name": "_cred",
          "type": "address"
        }
      ],
      "name": "setCredentialManager",
      "outputs": [],
      "payable": false,
      "stateMutability": "nonpayable",
      "type": "function"
    },
    {
      "constant": false,
      "inputs": [
        {
          "name": "_url",
          "type": "string"
        }
      ],
      "name": "setChainyURL",
      "outputs": [],
      "payable": false,
      "stateMutability": "nonpayable",
      "type": "function"
    },
    {
      "constant": true,
      "inputs": [],
      "name": "getChainyURL",
      "outputs": [
        {
          "name": "",
          "type": "string"
        }
      ],
      "payable": false,
      "stateMutability": "view",
      "type": "function"
    },
    {
      "constant": false,
      "inputs": [
        {
          "name": "_key",
          "type": "string"
        },
        {
          "name": "_value",
          "type": "uint256"
        }
      ],
      "name": "setConfig",
      "outputs": [],
      "payable": false,
      "stateMutability": "nonpayable",
      "type": "function"
    },
    {
      "constant": true,
      "inputs": [
        {
          "name": "_key",
          "type": "string"
        }
      ],
      "name": "getConfig",
      "outputs": [
        {
          "name": "_value",
          "type": "uint256"
        }
      ],
      "payable": false,
      "stateMutability": "view",
      "type": "function"
    },
    {
      "constant": false,
      "inputs": [
        {
          "name": "_address",
          "type": "address"
        },
        {
          "name": "_value",
          "type": "bool"
        }
      ],
      "name": "setServiceAccount",
      "outputs": [],
      "payable": false,
      "stateMutability": "nonpayable",
      "type": "function"
    },
    {
      "constant": false,
      "inputs": [
        {
          "name": "_address",
          "type": "address"
        }
      ],
      "name": "setReceiverAddress",
      "outputs": [],
      "payable": false,
      "stateMutability": "nonpayable",
      "type": "function"
    },
    {
      "constant": false,
      "inputs": [],
      "name": "releaseFunds",
      "outputs": [],
      "payable": false,
      "stateMutability": "nonpayable",
      "type": "function"
    },
    {
      "constant": false,
      "inputs": [
        {
          "name": "json",
          "type": "string"
        }
      ],
      "name": "addChainyData",
      "outputs": [],
      "payable": false,
      "stateMutability": "nonpayable",
      "type": "function"
    },
    {
      "constant": true,
      "inputs": [
        {
          "name": "sender",
          "type": "address"
        }
      ],
      "name": "getLastChainy",
      "outputs": [
        {
          "name": "",
          "type": "string"
        }
      ],
      "payable": false,
      "stateMutability": "view",
      "type": "function"
    },
    {
      "constant": true,
      "inputs": [
        {
          "name": "code",
          "type": "string"
        }
      ],
      "name": "getChainyTimestamp",
      "outputs": [
        {
          "name": "",
          "type": "uint256"
        }
      ],
      "payable": false,
      "stateMutability": "view",
      "type": "function"
    },
    {
      "constant": true,
      "inputs": [
        {
          "name": "code",
          "type": "string"
        }
      ],
      "name": "getChainyData",
      "outputs": [
        {
          "name": "",
          "type": "string"
        }
      ],
      "payable": false,
      "stateMutability": "view",
      "type": "function"
    },
    {
      "constant": false,
      "inputs": [
        {
          "name": "code",
          "type": "string"
        },
        {
          "name": "_target",
          "type": "address"
        }
      ],
      "name": "setChainyAccess",
      "outputs": [],
      "payable": false,
      "stateMutability": "nonpayable",
      "type": "function"
    },
    {
      "constant": true,
      "inputs": [
        {
          "name": "code",
          "type": "string"
        }
      ],
      "name": "getChainySender",
      "outputs": [
        {
          "name": "",
          "type": "address"
        }
      ],
      "payable": false,
      "stateMutability": "view",
      "type": "function"
    }
  ],
  "bytecode": "0x606060405234156200001057600080fd5b336000806101000a81548173ffffffffffffffffffffffffffffffffffffffff021916908373ffffffffffffffffffffffffffffffffffffffff160217905550620000a66040805190810160405280600381526020017f666565000000000000000000000000000000000000000000000000000000000081525060006200014e6401000000000262000d1c176401000000009004565b620000fe6040805190810160405280600b81526020017f626c6f636b6f6666736574000000000000000000000000000000000000000000815250620186a06200014e6401000000000262000d1c176401000000009004565b6200012d602060405190810160405280600081525062000220640100000000026200174f176401000000009004565b6000600260146101000a81548160ff02191690831515021790555062000347565b6000809054906101000a900473ffffffffffffffffffffffffffffffffffffffff1673ffffffffffffffffffffffffffffffffffffffff163373ffffffffffffffffffffffffffffffffffffffff16141515620001aa57600080fd5b806003836040518082805190602001908083835b602083101515620001e55780518252602082019150602081019050602083039250620001be565b6001836020036101000a0380198251168184511680821785525050505050509050019150509081526020016040518091039020819055505050565b6000809054906101000a900473ffffffffffffffffffffffffffffffffffffffff1673ffffffffffffffffffffffffffffffffffffffff163373ffffffffffffffffffffffffffffffffffffffff161415156200027c57600080fd5b80600190805190602001906200029492919062000298565b5050565b828054600181600116156101000203166002900490600052602060002090601f016020900481019282601f10620002db57805160ff19168380011785556200030c565b828001600101855582156200030c579182015b828111156200030b578251825591602001919060010190620002ee565b5b5090506200031b91906200031f565b5090565b6200034491905b808211156200034057600081600090555060010162000326565b5090565b90565b61230580620003576000396000f3006060604052600436106100e6576000357c0100000000000000000000000000000000000000000000000000000000900463ffffffff168063045236b4146100eb57806309d2d0b9146101c157806321e6652c14610205578063233120aa1461023e5780633e8f5b90146102cc5780634ed42b991461033257806369d89575146103e45780638279c7db146103f95780638da5cb5b14610432578063919edc7c1461048757806392eb34d014610524578063ac3e7d24146105a0578063b44bd51d146105fd578063e8b13c441461066e578063eef8e35f146106df578063f2fde38b1461073c575b600080fd5b34156100f657600080fd5b610146600480803590602001908201803590602001908080601f01602080910402602001604051908101604052809392919081815260200183838082843782019150505050505091905050610775565b6040518080602001828103825283818151815260200191508051906020019080838360005b8381101561018657808201518184015260208101905061016b565b50505050905090810190601f1680156101b35780820380516001836020036101000a031916815260200191505b509250505060405180910390f35b34156101cc57600080fd5b610203600480803573ffffffffffffffffffffffffffffffffffffffff169060200190919080351515906020019091905050610b43565b005b341561021057600080fd5b61023c600480803573ffffffffffffffffffffffffffffffffffffffff16906020019091905050610bf9565b005b341561024957600080fd5b610251610c74565b6040518080602001828103825283818151815260200191508051906020019080838360005b83811015610291578082015181840152602081019050610276565b50505050905090810190601f1680156102be5780820380516001836020036101000a031916815260200191505b509250505060405180910390f35b34156102d757600080fd5b610330600480803590602001908201803590602001908080601f01602080910402602001604051908101604052809392919081815260200183838082843782019150505050505091908035906020019091905050610d1c565b005b341561033d57600080fd5b610369600480803573ffffffffffffffffffffffffffffffffffffffff16906020019091905050610deb565b6040518080602001828103825283818151815260200191508051906020019080838360005b838110156103a957808201518184015260208101905061038e565b50505050905090810190601f1680156103d65780820380516001836020036101000a031916815260200191505b509250505060405180910390f35b34156103ef57600080fd5b6103f7610ed2565b005b341561040457600080fd5b610430600480803573ffffffffffffffffffffffffffffffffffffffff16906020019091905050610fa7565b005b341561043d57600080fd5b610445611046565b604051808273ffffffffffffffffffffffffffffffffffffffff1673ffffffffffffffffffffffffffffffffffffffff16815260200191505060405180910390f35b341561049257600080fd5b6104e2600480803590602001908201803590602001908080601f0160208091040260200160405190810160405280939291908181526020018383808284378201915050505050509190505061106b565b604051808273ffffffffffffffffffffffffffffffffffffffff1673ffffffffffffffffffffffffffffffffffffffff16815260200191505060405180910390f35b341561052f57600080fd5b61059e600480803590602001908201803590602001908080601f0160208091040260200160405190810160405280939291908181526020018383808284378201915050505050509190803573ffffffffffffffffffffffffffffffffffffffff16906020019091905050611103565b005b34156105ab57600080fd5b6105fb600480803590602001908201803590602001908080601f016020809104026020016040519081016040528093929190818152602001838380828437820191505050505050919050506112af565b005b341561060857600080fd5b610658600480803590602001908201803590602001908080601f01602080910402602001604051908101604052809392919081815260200183838082843782019150505050505091905050611662565b6040518082815260200191505060405180910390f35b341561067957600080fd5b6106c9600480803590602001908201803590602001908080601f016020809104026020016040519081016040528093929190818152602001838380828437820191505050505050919050506116d7565b6040518082815260200191505060405180910390f35b34156106ea57600080fd5b61073a600480803590602001908201803590602001908080601f0160208091040260200160405190810160405280939291908181526020018383808284378201915050505050509190505061174f565b005b341561074757600080fd5b610773600480803573ffffffffffffffffffffffffffffffffffffffff169060200190919050506117c4565b005b61077d61218c565b600115156008836040518082805190602001908083835b6020831015156107b95780518252602082019150602081019050602083039250610794565b6001836020036101000a038019825116818451168082178552505050505050905001915050908152602001604051809103902060003373ffffffffffffffffffffffffffffffffffffffff1673ffffffffffffffffffffffffffffffffffffffff16815260200190815260200160002060009054906101000a900460ff161515141561094d576007826040518082805190602001908083835b6020831015156108775780518252602082019150602081019050602083039250610852565b6001836020036101000a03801982511681845116808217855250505050505090500191505090815260200160405180910390206001018054600181600116156101000203166002900480601f0160208091040260200160405190810160405280929190818152602001828054600181600116156101000203166002900480156109415780601f1061091657610100808354040283529160200191610941565b820191906000526020600020905b81548152906001019060200180831161092457829003601f168201915b50505050509050610b3e565b600260009054906101000a900473ffffffffffffffffffffffffffffffffffffffff1673ffffffffffffffffffffffffffffffffffffffff1663559b7bdc6000336040518363ffffffff167c0100000000000000000000000000000000000000000000000000000000028152600401808381526020018273ffffffffffffffffffffffffffffffffffffffff1673ffffffffffffffffffffffffffffffffffffffff16815260200192505050602060405180830381600087803b1515610a1257600080fd5b5af11515610a1f57600080fd5b505050604051805190501515610a3457600080fd5b6007826040518082805190602001908083835b602083101515610a6c5780518252602082019150602081019050602083039250610a47565b6001836020036101000a03801982511681845116808217855250505050505090500191505090815260200160405180910390206001018054600181600116156101000203166002900480601f016020809104026020016040519081016040528092919081815260200182805460018160011615610100020316600290048015610b365780601f10610b0b57610100808354040283529160200191610b36565b820191906000526020600020905b815481529060010190602001808311610b1957829003601f168201915b505050505090505b919050565b6000809054906101000a900473ffffffffffffffffffffffffffffffffffffffff1673ffffffffffffffffffffffffffffffffffffffff163373ffffffffffffffffffffffffffffffffffffffff16141515610b9e57600080fd5b80600460008473ffffffffffffffffffffffffffffffffffffffff1673ffffffffffffffffffffffffffffffffffffffff16815260200190815260200160002060006101000a81548160ff0219169083151502179055505050565b600260149054906101000a900460ff16151515610c1557600080fd5b80600260006101000a81548173ffffffffffffffffffffffffffffffffffffffff021916908373ffffffffffffffffffffffffffffffffffffffff1602179055506001600260146101000a81548160ff02191690831515021790555050565b610c7c61218c565b60018054600181600116156101000203166002900480601f016020809104026020016040519081016040528092919081815260200182805460018160011615610100020316600290048015610d125780601f10610ce757610100808354040283529160200191610d12565b820191906000526020600020905b815481529060010190602001808311610cf557829003601f168201915b5050505050905090565b6000809054906101000a900473ffffffffffffffffffffffffffffffffffffffff1673ffffffffffffffffffffffffffffffffffffffff163373ffffffffffffffffffffffffffffffffffffffff16141515610d7757600080fd5b806003836040518082805190602001908083835b602083101515610db05780518252602082019150602081019050602083039250610d8b565b6001836020036101000a0380198251168184511680821785525050505050509050019150509081526020016040518091039020819055505050565b610df361218c565b600560008373ffffffffffffffffffffffffffffffffffffffff1673ffffffffffffffffffffffffffffffffffffffff1681526020019081526020016000208054600181600116156101000203166002900480601f016020809104026020016040519081016040528092919081815260200182805460018160011615610100020316600290048015610ec65780601f10610e9b57610100808354040283529160200191610ec6565b820191906000526020600020905b815481529060010190602001808311610ea957829003601f168201915b50505050509050919050565b6000809054906101000a900473ffffffffffffffffffffffffffffffffffffffff1673ffffffffffffffffffffffffffffffffffffffff163373ffffffffffffffffffffffffffffffffffffffff16141515610f2d57600080fd5b6000809054906101000a900473ffffffffffffffffffffffffffffffffffffffff1673ffffffffffffffffffffffffffffffffffffffff166108fc3073ffffffffffffffffffffffffffffffffffffffff16319081150290604051600060405180830381858888f193505050501515610fa557600080fd5b565b6000809054906101000a900473ffffffffffffffffffffffffffffffffffffffff1673ffffffffffffffffffffffffffffffffffffffff163373ffffffffffffffffffffffffffffffffffffffff1614151561100257600080fd5b80600660006101000a81548173ffffffffffffffffffffffffffffffffffffffff021916908373ffffffffffffffffffffffffffffffffffffffff16021790555050565b6000809054906101000a900473ffffffffffffffffffffffffffffffffffffffff1681565b60006007826040518082805190602001908083835b6020831015156110a55780518252602082019150602081019050602083039250611080565b6001836020036101000a038019825116818451168082178552505050505050905001915050908152602001604051809103902060020160009054906101000a900473ffffffffffffffffffffffffffffffffffffffff169050919050565b600260009054906101000a900473ffffffffffffffffffffffffffffffffffffffff1673ffffffffffffffffffffffffffffffffffffffff1663559b7bdc6000336040518363ffffffff167c0100000000000000000000000000000000000000000000000000000000028152600401808381526020018273ffffffffffffffffffffffffffffffffffffffff1673ffffffffffffffffffffffffffffffffffffffff16815260200192505050602060405180830381600087803b15156111c857600080fd5b5af115156111d557600080fd5b5050506040518051905015156111ea57600080fd5b60016008836040518082805190602001908083835b60208310151561122457805182526020820191506020810190506020830392506111ff565b6001836020036101000a038019825116818451168082178552505050505050905001915050908152602001604051809103902060008373ffffffffffffffffffffffffffffffffffffffff1673ffffffffffffffffffffffffffffffffffffffff16815260200190815260200160002060006101000a81548160ff0219169083151502179055505050565b6112b761218c565b6112bf61218c565b6112c883611862565b6112d0611879565b915060006112dd836116d7565b11156112e857600080fd5b6112f061191d565b6060604051908101604052804281526020018481526020013273ffffffffffffffffffffffffffffffffffffffff168152506007836040518082805190602001908083835b60208310151561135a5780518252602082019150602081019050602083039250611335565b6001836020036101000a03801982511681845116808217855250505050505090500191505090815260200160405180910390206000820151816000015560208201518160010190805190602001906113b39291906121a0565b5060408201518160020160006101000a81548173ffffffffffffffffffffffffffffffffffffffff021916908373ffffffffffffffffffffffffffffffffffffffff16021790555090505081600560003373ffffffffffffffffffffffffffffffffffffffff1673ffffffffffffffffffffffffffffffffffffffff1681526020019081526020016000209080519060200190611451929190612220565b5060016008836040518082805190602001908083835b60208310151561148c5780518252602082019150602081019050602083039250611467565b6001836020036101000a038019825116818451168082178552505050505050905001915050908152602001604051809103902060003373ffffffffffffffffffffffffffffffffffffffff1673ffffffffffffffffffffffffffffffffffffffff16815260200190815260200160002060006101000a81548160ff0219169083151502179055506115b760018054600181600116156101000203166002900480601f0160208091040260200160405190810160405280929190818152602001828054600181600116156101000203166002900480156115ac5780601f10611581576101008083540402835291602001916115ac565b820191906000526020600020905b81548152906001019060200180831161158f57829003601f168201915b505050505083611a34565b90507fdad5c3eecfdb62dd69e6e72053b88029e1d6277d4bc773c00fef243982adcb7d42826040518083815260200180602001828103825283818151815260200191508051906020019080838360005b83811015611622578082015181840152602081019050611607565b50505050905090810190601f16801561164f5780820380516001836020036101000a031916815260200191505b50935050505060405180910390a1505050565b60006003826040518082805190602001908083835b60208310151561169c5780518252602082019150602081019050602083039250611677565b6001836020036101000a0380198251168184511680821785525050505050509050019150509081526020016040518091039020549050919050565b60006007826040518082805190602001908083835b60208310151561171157805182526020820191506020810190506020830392506116ec565b6001836020036101000a0380198251168184511680821785525050505050509050019150509081526020016040518091039020600001549050919050565b6000809054906101000a900473ffffffffffffffffffffffffffffffffffffffff1673ffffffffffffffffffffffffffffffffffffffff163373ffffffffffffffffffffffffffffffffffffffff161415156117aa57600080fd5b80600190805190602001906117c0929190612220565b5050565b6000809054906101000a900473ffffffffffffffffffffffffffffffffffffffff1673ffffffffffffffffffffffffffffffffffffffff163373ffffffffffffffffffffffffffffffffffffffff1614151561181f57600080fd5b806000806101000a81548173ffffffffffffffffffffffffffffffffffffffff021916908373ffffffffffffffffffffffffffffffffffffffff16021790555050565b61186b81611c14565b151561187657600080fd5b50565b61188161218c565b61188961218c565b61189161218c565b61189961218c565b6118e36118da6040805190810160405280600b81526020017f626c6f636b6f6666736574000000000000000000000000000000000000000000815250611662565b4303600b611ec7565b92506119063273ffffffffffffffffffffffffffffffffffffffff166002611ec7565b91506119128383611a34565b905080935050505090565b600061195d6040805190810160405280600381526020017f6665650000000000000000000000000000000000000000000000000000000000815250611662565b9050600460003373ffffffffffffffffffffffffffffffffffffffff1673ffffffffffffffffffffffffffffffffffffffff16815260200190815260200160002060009054906101000a900460ff16806119b75750600081145b156119c157611a31565b803410156119ce57600080fd5b600660009054906101000a900473ffffffffffffffffffffffffffffffffffffffff1673ffffffffffffffffffffffffffffffffffffffff166108fc829081150290604051600060405180830381858888f193505050501515611a3057600080fd5b5b50565b611a3c61218c565b611a446122a0565b611a4c6122a0565b611a5461218c565b611a5c6122a0565b6000808895508794508451865101604051805910611a775750595b9080825280601f01601f1916602001820160405250935083925060009150600090505b8551811015611b4d578581815181101515611ab157fe5b9060200101517f010000000000000000000000000000000000000000000000000000000000000090047f0100000000000000000000000000000000000000000000000000000000000000028383806001019450815181101515611b1057fe5b9060200101907effffffffffffffffffffffffffffffffffffffffffffffffffffffffffffff1916908160001a9053508080600101915050611a9a565b600090505b8451811015611c05578481815181101515611b6957fe5b9060200101517f010000000000000000000000000000000000000000000000000000000000000090047f0100000000000000000000000000000000000000000000000000000000000000028383806001019450815181101515611bc857fe5b9060200101907effffffffffffffffffffffffffffffffffffffffffffffffffffffffffffff1916908160001a9053508080600101915050611b52565b82965050505050505092915050565b6000611c1e6122a0565b611c266122a0565b60008492506040805190810160405280601381526020017f226964223a22736d617274696e766f69636522000000000000000000000000008152509150602060ff1683511015611c795760009350611ebf565b60009050816000815181101515611c8c57fe5b9060200101517f010000000000000000000000000000000000000000000000000000000000000090047f0100000000000000000000000000000000000000000000000000000000000000027effffffffffffffffffffffffffffffffffffffffffffffffffffffffffffff1916836001815181101515611d0857fe5b9060200101517f010000000000000000000000000000000000000000000000000000000000000090047f0100000000000000000000000000000000000000000000000000000000000000027effffffffffffffffffffffffffffffffffffffffffffffffffffffffffffff19161415611eba57600190505b815181108015611d935750825181600101105b8015611e9557508181815181101515611da857fe5b9060200101517f010000000000000000000000000000000000000000000000000000000000000090047f0100000000000000000000000000000000000000000000000000000000000000027effffffffffffffffffffffffffffffffffffffffffffffffffffffffffffff19168382600101815181101515611e2657fe5b9060200101517f010000000000000000000000000000000000000000000000000000000000000090047f0100000000000000000000000000000000000000000000000000000000000000027effffffffffffffffffffffffffffffffffffffffffffffffffffffffffffff1916145b15611ea7578080600101915050611d80565b8151811415611eb95760019350611ebf565b5b600093505b505050919050565b611ecf61218c565b611ed761218c565b611edf6122a0565b600080600080611eed6122a0565b6000611ef76122a0565b606060405190810160405280603a81526020017f3132333435363738396162636465666768696a6b6d6e6f70717273747576777881526020017f797a41424344454647484a4b4c4d4e505152535455565758595a0000000000008152509850889750603a96506000955060009450600093508a60ff16604051805910611f7a5750595b9080825280601f01601f19166020018201604052509250600091505b8a60ff168260ff161015612090578660ff168c1015611fb457600193505b8660ff168c811515611fc257fe5b0694508660ff168c811515611fd357fe5b049b508785815181101515611fe457fe5b9060200101517f010000000000000000000000000000000000000000000000000000000000000090047f010000000000000000000000000000000000000000000000000000000000000002838360ff1681518110151561204057fe5b9060200101907effffffffffffffffffffffffffffffffffffffffffffffffffffffffffffff1916908160001a9053508580600101965050831561208357612090565b8180600101925050611f96565b8560ff166040518059106120a15750595b9080825280601f01601f19166020018201604052509050600091505b8560ff168260ff16101561217a578260018388030360ff168151811015156120e157fe5b9060200101517f010000000000000000000000000000000000000000000000000000000000000090047f010000000000000000000000000000000000000000000000000000000000000002818360ff1681518110151561213d57fe5b9060200101907effffffffffffffffffffffffffffffffffffffffffffffffffffffffffffff1916908160001a90535081806001019250506120bd565b80995050505050505050505092915050565b602060405190810160405280600081525090565b828054600181600116156101000203166002900490600052602060002090601f016020900481019282601f106121e157805160ff191683800117855561220f565b8280016001018555821561220f579182015b8281111561220e5782518255916020019190600101906121f3565b5b50905061221c91906122b4565b5090565b828054600181600116156101000203166002900490600052602060002090601f016020900481019282601f1061226157805160ff191683800117855561228f565b8280016001018555821561228f579182015b8281111561228e578251825591602001919060010190612273565b5b50905061229c91906122b4565b5090565b602060405190810160405280600081525090565b6122d691905b808211156122d25760008160009055506001016122ba565b5090565b905600a165627a7a723058200458c3edf7f87d87f7f7a9ebe317f8c073fe3d7de5d66e6cb7d1b0285a22026b0029",
  "source": "pragma solidity ^0.4.15;\n\nimport \"./CredentialManager.sol\";\n\n/**\n * Copyright 2016 Everex https://everex.io\n *\n * Licensed under the Apache License, Version 2.0 (the \"License\");\n * you may not use this file except in compliance with the License.\n * You may obtain a copy of the License at\n *\n *     http://www.apache.org/licenses/LICENSE-2.0\n *\n * Unless required by applicable law or agreed to in writing, software\n * distributed under the License is distributed on an \"AS IS\" BASIS,\n * WITHOUT WARRANTIES OR CONDITIONS OF ANY KIND, either express or implied.\n * See the License for the specific language governing permissions and\n * limitations under the License.\n */\n\n/* String utility library */\nlibrary strUtils {\n    string constant CHAINY_JSON_ID = '\"id\":\"smartinvoice\"';\n    uint8 constant CHAINY_JSON_MIN_LEN = 32;\n\n    /* Converts given number to base58, limited by _maxLength symbols */\n    function toBase58(uint256 _value, uint8 _maxLength) internal returns (string) {\n        string memory letters = \"123456789abcdefghijkmnopqrstuvwxyzABCDEFGHJKLMNPQRSTUVWXYZ\";\n        bytes memory alphabet = bytes(letters);\n        uint8 base = 58;\n        uint8 len = 0;\n        uint256 remainder = 0;\n        bool needBreak = false;\n        bytes memory bytesReversed = bytes(new string(_maxLength));\n\n        for (uint8 i = 0; i < _maxLength; i++) {\n            if(_value < base){\n                needBreak = true;\n            }\n            remainder = _value % base;\n            _value = uint256(_value / base);\n            bytesReversed[i] = alphabet[remainder];\n            len++;\n            if(needBreak){\n                break;\n            }\n        }\n\n        // Reverse\n        bytes memory result = bytes(new string(len));\n        for (i = 0; i < len; i++) {\n            result[i] = bytesReversed[len - i - 1];\n        }\n        return string(result);\n    }\n\n    /* Concatenates two strings */\n    function concat(string _s1, string _s2) internal returns (string) {\n        bytes memory bs1 = bytes(_s1);\n        bytes memory bs2 = bytes(_s2);\n        string memory s3 = new string(bs1.length + bs2.length);\n        bytes memory bs3 = bytes(s3);\n\n        uint256 j = 0;\n        for (uint256 i = 0; i < bs1.length; i++) {\n            bs3[j++] = bs1[i];\n        }\n        for (i = 0; i < bs2.length; i++) {\n            bs3[j++] = bs2[i];\n        }\n\n        return string(bs3);\n    }\n\n    /* Checks if provided JSON string has valid Chainy format */\n    function isValidChainyJson(string _json) internal returns (bool) {\n        bytes memory json = bytes(_json);\n        bytes memory id = bytes(CHAINY_JSON_ID);\n\n        if (json.length < CHAINY_JSON_MIN_LEN) {\n            return false;\n        } else {\n            uint len = 0;\n            if (json[1] == id[0]) {\n                len = 1;\n                while (len < id.length && (1 + len) < json.length && json[1 + len] == id[len]) {\n                    len++;\n                }\n                if (len == id.length) {\n                    return true;\n                }\n            }\n        }\n\n        return false;\n    }\n}\n\n\n// Ownership\ncontract owned {\n    address public owner;\n\n    function owned() {\n        owner = msg.sender;\n    }\n\n    modifier onlyOwner {\n        if (msg.sender != owner) throw;\n        _;\n    }\n\n    function transferOwnership(address newOwner) onlyOwner {\n        owner = newOwner;\n    }\n}\n\ncontract Chainy is owned {\n    // Chainy viewer url\n    string CHAINY_URL;\n\n    CredentialManager private credentialManager;\n    bool private isCredentialManagerSet;\n\n    // Configuration\n    mapping(string => uint256) private chainyConfig;\n\n    // Service accounts\n    mapping (address => bool) private srvAccount;\n\n    mapping (address => string) private lastChainy;\n\n    // Fee receiver\n    address private receiverAddress;\n\n    struct data {uint256 timestamp; string json; address sender;}\n\n    mapping (string => data) private chainy;\n    mapping (string => mapping(address => bool)) private chainyAccess;\n\n    event chainyShortLink(uint256 timestamp, string code);\n\n    // Constructor\n    function Chainy() {\n        setConfig(\"fee\", 0);\n        // change the block offset to 1000000 to use contract in testnet\n        setConfig(\"blockoffset\", 100000);\n        setChainyURL(\"\");\n        isCredentialManagerSet = false;\n    }\n\n    function setCredentialManager(address _cred) {\n        require(!isCredentialManagerSet);\n        credentialManager = CredentialManager(_cred);\n        isCredentialManagerSet = true;\n    }\n\n    // Sets new Chainy viewer URL\n    function setChainyURL(string _url) onlyOwner {\n        CHAINY_URL = _url;\n    }\n\n    // Returns current Chainy viewer URL\n    function getChainyURL() constant returns(string){\n        return CHAINY_URL;\n    }\n\n    // Sets configuration option\n    function setConfig(string _key, uint256 _value) onlyOwner {\n        chainyConfig[_key] = _value;\n    }\n\n    // Returns configuration option\n    function getConfig(string _key) constant returns (uint256 _value) {\n        return chainyConfig[_key];\n    }\n\n    // Add/Remove service account\n    function setServiceAccount(address _address, bool _value) onlyOwner {\n        srvAccount[_address] = _value;\n    }\n\n    // Set receiver address\n    function setReceiverAddress(address _address) onlyOwner {\n        receiverAddress = _address;\n    }\n\n    // Send all ether back to owner\n    function releaseFunds() onlyOwner {\n        if(!owner.send(this.balance)) throw;\n    }\n\n    // Add record\n    function addChainyData(string json) {\n        checkFormat(json);\n\n        var code = generateShortLink();\n        // Checks if the record exist\n        if (getChainyTimestamp(code) > 0) throw;\n\n        processFee();\n        chainy[code] = data({\n            timestamp: block.timestamp,\n            json: json,\n            sender: tx.origin\n        });\n\n        lastChainy[msg.sender] = code;\n        chainyAccess[code][msg.sender] = true;\n\n        // Fire event\n        var link = strUtils.concat(CHAINY_URL, code);\n        chainyShortLink(block.timestamp, link);\n    }\n\n    function getLastChainy(address sender) constant returns (string) {\n        return lastChainy[sender];\n    }\n\n    // Get record timestamp\n    function getChainyTimestamp(string code) constant returns (uint256) {\n        return chainy[code].timestamp;\n    }\n\n    // Get record JSON\n    function getChainyData(string code) constant returns (string) {\n        if (chainyAccess[code][msg.sender] == true) {\n            return chainy[code].json;\n        } else {\n            require(credentialManager.isInRole(0,msg.sender));\n            return chainy[code].json;\n        }\n    }\n\n    function setChainyAccess (string code, address _target) {\n        require(credentialManager.isInRole(0,msg.sender));\n        chainyAccess[code][_target] = true;\n    }\n\n    // Get record sender\n    function getChainySender(string code) constant returns (address) {\n        return chainy[code].sender;\n    }\n\n    // Checks if enough fee provided\n    function processFee() internal {\n        var fee = getConfig(\"fee\");\n        if (srvAccount[msg.sender] || (fee == 0)) return;\n\n        if (msg.value < fee)\n            throw;\n        else\n            if (!receiverAddress.send(fee)) throw;\n    }\n\n    // Checks if provided string has valid format\n    function checkFormat(string json) internal {\n        if (!strUtils.isValidChainyJson(json)) throw;\n    }\n\n    // Generates a shortlink code for this transaction\n    function generateShortLink() internal returns (string) {\n        var s1 = strUtils.toBase58(block.number - getConfig(\"blockoffset\"), 11);\n        var s2 = strUtils.toBase58(uint256(tx.origin), 2);\n\n        var s = strUtils.concat(s1, s2);\n        return s;\n    }\n}",
  "sourcePath": "/home/fengkiej/Documents/Semester 6/project/smartinvoicetest-master/contracts/Chainy.sol",
  "compiler": {
    "name": "solc",
    "version": "0.4.21+commit.dfe3193c.Emscripten.clang"
  },
  "schemaVersion": "2.0.0",
  "updatedAt": "2018-05-15T17:29:15.540Z"
}