{
  "contractName": "Chainy",
  "abi": [
    {
      "constant": true,
      "inputs": [
        {
          "name": "code",
          "type": "string"
        }
      ],
      "name": "getChainyData",
      "outputs": [
        {
          "name": "",
          "type": "string"
        }
      ],
      "payable": false,
      "stateMutability": "view",
      "type": "function"
    },
    {
      "constant": false,
      "inputs": [
        {
          "name": "_address",
          "type": "address"
        },
        {
          "name": "_value",
          "type": "bool"
        }
      ],
      "name": "setServiceAccount",
      "outputs": [],
      "payable": false,
      "stateMutability": "nonpayable",
      "type": "function"
    },
    {
      "constant": false,
      "inputs": [
        {
          "name": "_cred",
          "type": "address"
        }
      ],
      "name": "setCredentialManager",
      "outputs": [],
      "payable": false,
      "stateMutability": "nonpayable",
      "type": "function"
    },
    {
      "constant": true,
      "inputs": [],
      "name": "getChainyURL",
      "outputs": [
        {
          "name": "",
          "type": "string"
        }
      ],
      "payable": false,
      "stateMutability": "view",
      "type": "function"
    },
    {
      "constant": false,
      "inputs": [
        {
          "name": "_key",
          "type": "string"
        },
        {
          "name": "_value",
          "type": "uint256"
        }
      ],
      "name": "setConfig",
      "outputs": [],
      "payable": false,
      "stateMutability": "nonpayable",
      "type": "function"
    },
    {
      "constant": true,
      "inputs": [
        {
          "name": "sender",
          "type": "address"
        }
      ],
      "name": "getLastChainy",
      "outputs": [
        {
          "name": "",
          "type": "string"
        }
      ],
      "payable": false,
      "stateMutability": "view",
      "type": "function"
    },
    {
      "constant": false,
      "inputs": [],
      "name": "releaseFunds",
      "outputs": [],
      "payable": false,
      "stateMutability": "nonpayable",
      "type": "function"
    },
    {
      "constant": false,
      "inputs": [
        {
          "name": "_address",
          "type": "address"
        }
      ],
      "name": "setReceiverAddress",
      "outputs": [],
      "payable": false,
      "stateMutability": "nonpayable",
      "type": "function"
    },
    {
      "constant": true,
      "inputs": [],
      "name": "owner",
      "outputs": [
        {
          "name": "",
          "type": "address"
        }
      ],
      "payable": false,
      "stateMutability": "view",
      "type": "function"
    },
    {
      "constant": true,
      "inputs": [
        {
          "name": "code",
          "type": "string"
        }
      ],
      "name": "getChainySender",
      "outputs": [
        {
          "name": "",
          "type": "address"
        }
      ],
      "payable": false,
      "stateMutability": "view",
      "type": "function"
    },
    {
      "constant": false,
      "inputs": [
        {
          "name": "code",
          "type": "string"
        },
        {
          "name": "_target",
          "type": "address"
        }
      ],
      "name": "setChainyAccess",
      "outputs": [],
      "payable": false,
      "stateMutability": "nonpayable",
      "type": "function"
    },
    {
      "constant": false,
      "inputs": [
        {
          "name": "json",
          "type": "string"
        }
      ],
      "name": "addChainyData",
      "outputs": [],
      "payable": false,
      "stateMutability": "nonpayable",
      "type": "function"
    },
    {
      "constant": true,
      "inputs": [
        {
          "name": "_key",
          "type": "string"
        }
      ],
      "name": "getConfig",
      "outputs": [
        {
          "name": "_value",
          "type": "uint256"
        }
      ],
      "payable": false,
      "stateMutability": "view",
      "type": "function"
    },
    {
      "constant": true,
      "inputs": [
        {
          "name": "code",
          "type": "string"
        }
      ],
      "name": "getChainyTimestamp",
      "outputs": [
        {
          "name": "",
          "type": "uint256"
        }
      ],
      "payable": false,
      "stateMutability": "view",
      "type": "function"
    },
    {
      "constant": false,
      "inputs": [
        {
          "name": "_url",
          "type": "string"
        }
      ],
      "name": "setChainyURL",
      "outputs": [],
      "payable": false,
      "stateMutability": "nonpayable",
      "type": "function"
    },
    {
      "constant": false,
      "inputs": [
        {
          "name": "newOwner",
          "type": "address"
        }
      ],
      "name": "transferOwnership",
      "outputs": [],
      "payable": false,
      "stateMutability": "nonpayable",
      "type": "function"
    },
    {
      "inputs": [],
      "payable": false,
      "stateMutability": "nonpayable",
      "type": "constructor"
    },
    {
      "anonymous": false,
      "inputs": [
        {
          "indexed": false,
          "name": "timestamp",
          "type": "uint256"
        },
        {
          "indexed": false,
          "name": "code",
          "type": "string"
        }
      ],
      "name": "chainyShortLink",
      "type": "event"
    }
  ],
  "bytecode": "0x606060405234156200001057600080fd5b336000806101000a81548173ffffffffffffffffffffffffffffffffffffffff021916908373ffffffffffffffffffffffffffffffffffffffff160217905550620000a66040805190810160405280600381526020017f666565000000000000000000000000000000000000000000000000000000000081525060006200014e6401000000000262000d29176401000000009004565b620000fe6040805190810160405280600b81526020017f626c6f636b6f6666736574000000000000000000000000000000000000000000815250620186a06200014e6401000000000262000d29176401000000009004565b6200012d6020604051908101604052806000815250620002206401000000000262001769176401000000009004565b6000600260146101000a81548160ff02191690831515021790555062000347565b6000809054906101000a900473ffffffffffffffffffffffffffffffffffffffff1673ffffffffffffffffffffffffffffffffffffffff163373ffffffffffffffffffffffffffffffffffffffff16141515620001aa57600080fd5b806003836040518082805190602001908083835b602083101515620001e55780518252602082019150602081019050602083039250620001be565b6001836020036101000a0380198251168184511680821785525050505050509050019150509081526020016040518091039020819055505050565b6000809054906101000a900473ffffffffffffffffffffffffffffffffffffffff1673ffffffffffffffffffffffffffffffffffffffff163373ffffffffffffffffffffffffffffffffffffffff161415156200027c57600080fd5b80600190805190602001906200029492919062000298565b5050565b828054600181600116156101000203166002900490600052602060002090601f016020900481019282601f10620002db57805160ff19168380011785556200030c565b828001600101855582156200030c579182015b828111156200030b578251825591602001919060010190620002ee565b5b5090506200031b91906200031f565b5090565b6200034491905b808211156200034057600081600090555060010162000326565b5090565b90565b61231f80620003576000396000f3006060604052600436106100e6576000357c0100000000000000000000000000000000000000000000000000000000900463ffffffff168063045236b4146100eb57806309d2d0b9146101c157806321e6652c14610205578063233120aa1461023e5780633e8f5b90146102cc5780634ed42b991461033257806369d89575146103e45780638279c7db146103f95780638da5cb5b14610432578063919edc7c1461048757806392eb34d014610524578063ac3e7d24146105a0578063b44bd51d146105fd578063e8b13c441461066e578063eef8e35f146106df578063f2fde38b1461073c575b600080fd5b34156100f657600080fd5b610146600480803590602001908201803590602001908080601f01602080910402602001604051908101604052809392919081815260200183838082843782019150505050505091905050610775565b6040518080602001828103825283818151815260200191508051906020019080838360005b8381101561018657808201518184015260208101905061016b565b50505050905090810190601f1680156101b35780820380516001836020036101000a031916815260200191505b509250505060405180910390f35b34156101cc57600080fd5b610203600480803573ffffffffffffffffffffffffffffffffffffffff169060200190919080351515906020019091905050610b50565b005b341561021057600080fd5b61023c600480803573ffffffffffffffffffffffffffffffffffffffff16906020019091905050610c06565b005b341561024957600080fd5b610251610c81565b6040518080602001828103825283818151815260200191508051906020019080838360005b83811015610291578082015181840152602081019050610276565b50505050905090810190601f1680156102be5780820380516001836020036101000a031916815260200191505b509250505060405180910390f35b34156102d757600080fd5b610330600480803590602001908201803590602001908080601f01602080910402602001604051908101604052809392919081815260200183838082843782019150505050505091908035906020019091905050610d29565b005b341561033d57600080fd5b610369600480803573ffffffffffffffffffffffffffffffffffffffff16906020019091905050610df8565b6040518080602001828103825283818151815260200191508051906020019080838360005b838110156103a957808201518184015260208101905061038e565b50505050905090810190601f1680156103d65780820380516001836020036101000a031916815260200191505b509250505060405180910390f35b34156103ef57600080fd5b6103f7610edf565b005b341561040457600080fd5b610430600480803573ffffffffffffffffffffffffffffffffffffffff16906020019091905050610fb4565b005b341561043d57600080fd5b610445611053565b604051808273ffffffffffffffffffffffffffffffffffffffff1673ffffffffffffffffffffffffffffffffffffffff16815260200191505060405180910390f35b341561049257600080fd5b6104e2600480803590602001908201803590602001908080601f01602080910402602001604051908101604052809392919081815260200183838082843782019150505050505091905050611078565b604051808273ffffffffffffffffffffffffffffffffffffffff1673ffffffffffffffffffffffffffffffffffffffff16815260200191505060405180910390f35b341561052f57600080fd5b61059e600480803590602001908201803590602001908080601f0160208091040260200160405190810160405280939291908181526020018383808284378201915050505050509190803573ffffffffffffffffffffffffffffffffffffffff16906020019091905050611110565b005b34156105ab57600080fd5b6105fb600480803590602001908201803590602001908080601f016020809104026020016040519081016040528093929190818152602001838380828437820191505050505050919050506112c9565b005b341561060857600080fd5b610658600480803590602001908201803590602001908080601f0160208091040260200160405190810160405280939291908181526020018383808284378201915050505050509190505061167c565b6040518082815260200191505060405180910390f35b341561067957600080fd5b6106c9600480803590602001908201803590602001908080601f016020809104026020016040519081016040528093929190818152602001838380828437820191505050505050919050506116f1565b6040518082815260200191505060405180910390f35b34156106ea57600080fd5b61073a600480803590602001908201803590602001908080601f01602080910402602001604051908101604052809392919081815260200183838082843782019150505050505091905050611769565b005b341561074757600080fd5b610773600480803573ffffffffffffffffffffffffffffffffffffffff169060200190919050506117de565b005b61077d6121a6565b600115156008836040518082805190602001908083835b6020831015156107b95780518252602082019150602081019050602083039250610794565b6001836020036101000a038019825116818451168082178552505050505050905001915050908152602001604051809103902060003373ffffffffffffffffffffffffffffffffffffffff1673ffffffffffffffffffffffffffffffffffffffff16815260200190815260200160002060009054906101000a900460ff161515141561094d576007826040518082805190602001908083835b6020831015156108775780518252602082019150602081019050602083039250610852565b6001836020036101000a03801982511681845116808217855250505050505090500191505090815260200160405180910390206001018054600181600116156101000203166002900480601f0160208091040260200160405190810160405280929190818152602001828054600181600116156101000203166002900480156109415780601f1061091657610100808354040283529160200191610941565b820191906000526020600020905b81548152906001019060200180831161092457829003601f168201915b50505050509050610b4b565b600260009054906101000a900473ffffffffffffffffffffffffffffffffffffffff1673ffffffffffffffffffffffffffffffffffffffff1663559b7bdc6000336000604051602001526040518363ffffffff167c0100000000000000000000000000000000000000000000000000000000028152600401808381526020018273ffffffffffffffffffffffffffffffffffffffff1673ffffffffffffffffffffffffffffffffffffffff16815260200192505050602060405180830381600087803b1515610a1b57600080fd5b6102c65a03f11515610a2c57600080fd5b505050604051805190501515610a4157600080fd5b6007826040518082805190602001908083835b602083101515610a795780518252602082019150602081019050602083039250610a54565b6001836020036101000a03801982511681845116808217855250505050505090500191505090815260200160405180910390206001018054600181600116156101000203166002900480601f016020809104026020016040519081016040528092919081815260200182805460018160011615610100020316600290048015610b435780601f10610b1857610100808354040283529160200191610b43565b820191906000526020600020905b815481529060010190602001808311610b2657829003601f168201915b505050505090505b919050565b6000809054906101000a900473ffffffffffffffffffffffffffffffffffffffff1673ffffffffffffffffffffffffffffffffffffffff163373ffffffffffffffffffffffffffffffffffffffff16141515610bab57600080fd5b80600460008473ffffffffffffffffffffffffffffffffffffffff1673ffffffffffffffffffffffffffffffffffffffff16815260200190815260200160002060006101000a81548160ff0219169083151502179055505050565b600260149054906101000a900460ff16151515610c2257600080fd5b80600260006101000a81548173ffffffffffffffffffffffffffffffffffffffff021916908373ffffffffffffffffffffffffffffffffffffffff1602179055506001600260146101000a81548160ff02191690831515021790555050565b610c896121a6565b60018054600181600116156101000203166002900480601f016020809104026020016040519081016040528092919081815260200182805460018160011615610100020316600290048015610d1f5780601f10610cf457610100808354040283529160200191610d1f565b820191906000526020600020905b815481529060010190602001808311610d0257829003601f168201915b5050505050905090565b6000809054906101000a900473ffffffffffffffffffffffffffffffffffffffff1673ffffffffffffffffffffffffffffffffffffffff163373ffffffffffffffffffffffffffffffffffffffff16141515610d8457600080fd5b806003836040518082805190602001908083835b602083101515610dbd5780518252602082019150602081019050602083039250610d98565b6001836020036101000a0380198251168184511680821785525050505050509050019150509081526020016040518091039020819055505050565b610e006121a6565b600560008373ffffffffffffffffffffffffffffffffffffffff1673ffffffffffffffffffffffffffffffffffffffff1681526020019081526020016000208054600181600116156101000203166002900480601f016020809104026020016040519081016040528092919081815260200182805460018160011615610100020316600290048015610ed35780601f10610ea857610100808354040283529160200191610ed3565b820191906000526020600020905b815481529060010190602001808311610eb657829003601f168201915b50505050509050919050565b6000809054906101000a900473ffffffffffffffffffffffffffffffffffffffff1673ffffffffffffffffffffffffffffffffffffffff163373ffffffffffffffffffffffffffffffffffffffff16141515610f3a57600080fd5b6000809054906101000a900473ffffffffffffffffffffffffffffffffffffffff1673ffffffffffffffffffffffffffffffffffffffff166108fc3073ffffffffffffffffffffffffffffffffffffffff16319081150290604051600060405180830381858888f193505050501515610fb257600080fd5b565b6000809054906101000a900473ffffffffffffffffffffffffffffffffffffffff1673ffffffffffffffffffffffffffffffffffffffff163373ffffffffffffffffffffffffffffffffffffffff1614151561100f57600080fd5b80600660006101000a81548173ffffffffffffffffffffffffffffffffffffffff021916908373ffffffffffffffffffffffffffffffffffffffff16021790555050565b6000809054906101000a900473ffffffffffffffffffffffffffffffffffffffff1681565b60006007826040518082805190602001908083835b6020831015156110b2578051825260208201915060208101905060208303925061108d565b6001836020036101000a038019825116818451168082178552505050505050905001915050908152602001604051809103902060020160009054906101000a900473ffffffffffffffffffffffffffffffffffffffff169050919050565b600260009054906101000a900473ffffffffffffffffffffffffffffffffffffffff1673ffffffffffffffffffffffffffffffffffffffff1663559b7bdc6000336000604051602001526040518363ffffffff167c0100000000000000000000000000000000000000000000000000000000028152600401808381526020018273ffffffffffffffffffffffffffffffffffffffff1673ffffffffffffffffffffffffffffffffffffffff16815260200192505050602060405180830381600087803b15156111de57600080fd5b6102c65a03f115156111ef57600080fd5b50505060405180519050151561120457600080fd5b60016008836040518082805190602001908083835b60208310151561123e5780518252602082019150602081019050602083039250611219565b6001836020036101000a038019825116818451168082178552505050505050905001915050908152602001604051809103902060008373ffffffffffffffffffffffffffffffffffffffff1673ffffffffffffffffffffffffffffffffffffffff16815260200190815260200160002060006101000a81548160ff0219169083151502179055505050565b6112d16121a6565b6112d96121a6565b6112e28361187c565b6112ea611893565b915060006112f7836116f1565b111561130257600080fd5b61130a611937565b6060604051908101604052804281526020018481526020013273ffffffffffffffffffffffffffffffffffffffff168152506007836040518082805190602001908083835b602083101515611374578051825260208201915060208101905060208303925061134f565b6001836020036101000a03801982511681845116808217855250505050505090500191505090815260200160405180910390206000820151816000015560208201518160010190805190602001906113cd9291906121ba565b5060408201518160020160006101000a81548173ffffffffffffffffffffffffffffffffffffffff021916908373ffffffffffffffffffffffffffffffffffffffff16021790555090505081600560003373ffffffffffffffffffffffffffffffffffffffff1673ffffffffffffffffffffffffffffffffffffffff168152602001908152602001600020908051906020019061146b92919061223a565b5060016008836040518082805190602001908083835b6020831015156114a65780518252602082019150602081019050602083039250611481565b6001836020036101000a038019825116818451168082178552505050505050905001915050908152602001604051809103902060003373ffffffffffffffffffffffffffffffffffffffff1673ffffffffffffffffffffffffffffffffffffffff16815260200190815260200160002060006101000a81548160ff0219169083151502179055506115d160018054600181600116156101000203166002900480601f0160208091040260200160405190810160405280929190818152602001828054600181600116156101000203166002900480156115c65780601f1061159b576101008083540402835291602001916115c6565b820191906000526020600020905b8154815290600101906020018083116115a957829003601f168201915b505050505083611a4e565b90507fdad5c3eecfdb62dd69e6e72053b88029e1d6277d4bc773c00fef243982adcb7d42826040518083815260200180602001828103825283818151815260200191508051906020019080838360005b8381101561163c578082015181840152602081019050611621565b50505050905090810190601f1680156116695780820380516001836020036101000a031916815260200191505b50935050505060405180910390a1505050565b60006003826040518082805190602001908083835b6020831015156116b65780518252602082019150602081019050602083039250611691565b6001836020036101000a0380198251168184511680821785525050505050509050019150509081526020016040518091039020549050919050565b60006007826040518082805190602001908083835b60208310151561172b5780518252602082019150602081019050602083039250611706565b6001836020036101000a0380198251168184511680821785525050505050509050019150509081526020016040518091039020600001549050919050565b6000809054906101000a900473ffffffffffffffffffffffffffffffffffffffff1673ffffffffffffffffffffffffffffffffffffffff163373ffffffffffffffffffffffffffffffffffffffff161415156117c457600080fd5b80600190805190602001906117da92919061223a565b5050565b6000809054906101000a900473ffffffffffffffffffffffffffffffffffffffff1673ffffffffffffffffffffffffffffffffffffffff163373ffffffffffffffffffffffffffffffffffffffff1614151561183957600080fd5b806000806101000a81548173ffffffffffffffffffffffffffffffffffffffff021916908373ffffffffffffffffffffffffffffffffffffffff16021790555050565b61188581611c2e565b151561189057600080fd5b50565b61189b6121a6565b6118a36121a6565b6118ab6121a6565b6118b36121a6565b6118fd6118f46040805190810160405280600b81526020017f626c6f636b6f666673657400000000000000000000000000000000000000000081525061167c565b4303600b611ee1565b92506119203273ffffffffffffffffffffffffffffffffffffffff166002611ee1565b915061192c8383611a4e565b905080935050505090565b60006119776040805190810160405280600381526020017f666565000000000000000000000000000000000000000000000000000000000081525061167c565b9050600460003373ffffffffffffffffffffffffffffffffffffffff1673ffffffffffffffffffffffffffffffffffffffff16815260200190815260200160002060009054906101000a900460ff16806119d15750600081145b156119db57611a4b565b803410156119e857600080fd5b600660009054906101000a900473ffffffffffffffffffffffffffffffffffffffff1673ffffffffffffffffffffffffffffffffffffffff166108fc829081150290604051600060405180830381858888f193505050501515611a4a57600080fd5b5b50565b611a566121a6565b611a5e6122ba565b611a666122ba565b611a6e6121a6565b611a766122ba565b6000808895508794508451865101604051805910611a915750595b9080825280601f01601f1916602001820160405250935083925060009150600090505b8551811015611b67578581815181101515611acb57fe5b9060200101517f010000000000000000000000000000000000000000000000000000000000000090047f0100000000000000000000000000000000000000000000000000000000000000028383806001019450815181101515611b2a57fe5b9060200101907effffffffffffffffffffffffffffffffffffffffffffffffffffffffffffff1916908160001a9053508080600101915050611ab4565b600090505b8451811015611c1f578481815181101515611b8357fe5b9060200101517f010000000000000000000000000000000000000000000000000000000000000090047f0100000000000000000000000000000000000000000000000000000000000000028383806001019450815181101515611be257fe5b9060200101907effffffffffffffffffffffffffffffffffffffffffffffffffffffffffffff1916908160001a9053508080600101915050611b6c565b82965050505050505092915050565b6000611c386122ba565b611c406122ba565b60008492506040805190810160405280601381526020017f226964223a22736d617274696e766f69636522000000000000000000000000008152509150602060ff1683511015611c935760009350611ed9565b60009050816000815181101515611ca657fe5b9060200101517f010000000000000000000000000000000000000000000000000000000000000090047f0100000000000000000000000000000000000000000000000000000000000000027effffffffffffffffffffffffffffffffffffffffffffffffffffffffffffff1916836001815181101515611d2257fe5b9060200101517f010000000000000000000000000000000000000000000000000000000000000090047f0100000000000000000000000000000000000000000000000000000000000000027effffffffffffffffffffffffffffffffffffffffffffffffffffffffffffff19161415611ed457600190505b815181108015611dad5750825181600101105b8015611eaf57508181815181101515611dc257fe5b9060200101517f010000000000000000000000000000000000000000000000000000000000000090047f0100000000000000000000000000000000000000000000000000000000000000027effffffffffffffffffffffffffffffffffffffffffffffffffffffffffffff19168382600101815181101515611e4057fe5b9060200101517f010000000000000000000000000000000000000000000000000000000000000090047f0100000000000000000000000000000000000000000000000000000000000000027effffffffffffffffffffffffffffffffffffffffffffffffffffffffffffff1916145b15611ec1578080600101915050611d9a565b8151811415611ed35760019350611ed9565b5b600093505b505050919050565b611ee96121a6565b611ef16121a6565b611ef96122ba565b600080600080611f076122ba565b6000611f116122ba565b606060405190810160405280603a81526020017f3132333435363738396162636465666768696a6b6d6e6f70717273747576777881526020017f797a41424344454647484a4b4c4d4e505152535455565758595a0000000000008152509850889750603a96506000955060009450600093508a60ff16604051805910611f945750595b9080825280601f01601f19166020018201604052509250600091505b8a60ff168260ff1610156120aa578660ff168c1015611fce57600193505b8660ff168c811515611fdc57fe5b0694508660ff168c811515611fed57fe5b049b508785815181101515611ffe57fe5b9060200101517f010000000000000000000000000000000000000000000000000000000000000090047f010000000000000000000000000000000000000000000000000000000000000002838360ff1681518110151561205a57fe5b9060200101907effffffffffffffffffffffffffffffffffffffffffffffffffffffffffffff1916908160001a9053508580600101965050831561209d576120aa565b8180600101925050611fb0565b8560ff166040518059106120bb5750595b9080825280601f01601f19166020018201604052509050600091505b8560ff168260ff161015612194578260018388030360ff168151811015156120fb57fe5b9060200101517f010000000000000000000000000000000000000000000000000000000000000090047f010000000000000000000000000000000000000000000000000000000000000002818360ff1681518110151561215757fe5b9060200101907effffffffffffffffffffffffffffffffffffffffffffffffffffffffffffff1916908160001a90535081806001019250506120d7565b80995050505050505050505092915050565b602060405190810160405280600081525090565b828054600181600116156101000203166002900490600052602060002090601f016020900481019282601f106121fb57805160ff1916838001178555612229565b82800160010185558215612229579182015b8281111561222857825182559160200191906001019061220d565b5b50905061223691906122ce565b5090565b828054600181600116156101000203166002900490600052602060002090601f016020900481019282601f1061227b57805160ff19168380011785556122a9565b828001600101855582156122a9579182015b828111156122a857825182559160200191906001019061228d565b5b5090506122b691906122ce565b5090565b602060405190810160405280600081525090565b6122f091905b808211156122ec5760008160009055506001016122d4565b5090565b905600a165627a7a72305820b9a6a05171a0f8013e83d82cddf62f17bd0eb0f7762bfe73880eb8459362b09e0029",
  "source": "pragma solidity ^0.4.15;\r\n\r\nimport \"./CredentialManager.sol\";\r\n\r\n/**\r\n * Copyright 2016 Everex https://everex.io\r\n *\r\n * Licensed under the Apache License, Version 2.0 (the \"License\");\r\n * you may not use this file except in compliance with the License.\r\n * You may obtain a copy of the License at\r\n *\r\n *     http://www.apache.org/licenses/LICENSE-2.0\r\n *\r\n * Unless required by applicable law or agreed to in writing, software\r\n * distributed under the License is distributed on an \"AS IS\" BASIS,\r\n * WITHOUT WARRANTIES OR CONDITIONS OF ANY KIND, either express or implied.\r\n * See the License for the specific language governing permissions and\r\n * limitations under the License.\r\n */\r\n\r\n/* String utility library */\r\nlibrary strUtils {\r\n    string constant CHAINY_JSON_ID = '\"id\":\"smartinvoice\"';\r\n    uint8 constant CHAINY_JSON_MIN_LEN = 32;\r\n\r\n    /* Converts given number to base58, limited by _maxLength symbols */\r\n    function toBase58(uint256 _value, uint8 _maxLength) internal returns (string) {\r\n        string memory letters = \"123456789abcdefghijkmnopqrstuvwxyzABCDEFGHJKLMNPQRSTUVWXYZ\";\r\n        bytes memory alphabet = bytes(letters);\r\n        uint8 base = 58;\r\n        uint8 len = 0;\r\n        uint256 remainder = 0;\r\n        bool needBreak = false;\r\n        bytes memory bytesReversed = bytes(new string(_maxLength));\r\n\r\n        for (uint8 i = 0; i < _maxLength; i++) {\r\n            if(_value < base){\r\n                needBreak = true;\r\n            }\r\n            remainder = _value % base;\r\n            _value = uint256(_value / base);\r\n            bytesReversed[i] = alphabet[remainder];\r\n            len++;\r\n            if(needBreak){\r\n                break;\r\n            }\r\n        }\r\n\r\n        // Reverse\r\n        bytes memory result = bytes(new string(len));\r\n        for (i = 0; i < len; i++) {\r\n            result[i] = bytesReversed[len - i - 1];\r\n        }\r\n        return string(result);\r\n    }\r\n\r\n    /* Concatenates two strings */\r\n    function concat(string _s1, string _s2) internal returns (string) {\r\n        bytes memory bs1 = bytes(_s1);\r\n        bytes memory bs2 = bytes(_s2);\r\n        string memory s3 = new string(bs1.length + bs2.length);\r\n        bytes memory bs3 = bytes(s3);\r\n\r\n        uint256 j = 0;\r\n        for (uint256 i = 0; i < bs1.length; i++) {\r\n            bs3[j++] = bs1[i];\r\n        }\r\n        for (i = 0; i < bs2.length; i++) {\r\n            bs3[j++] = bs2[i];\r\n        }\r\n\r\n        return string(bs3);\r\n    }\r\n\r\n    /* Checks if provided JSON string has valid Chainy format */\r\n    function isValidChainyJson(string _json) internal returns (bool) {\r\n        bytes memory json = bytes(_json);\r\n        bytes memory id = bytes(CHAINY_JSON_ID);\r\n\r\n        if (json.length < CHAINY_JSON_MIN_LEN) {\r\n            return false;\r\n        } else {\r\n            uint len = 0;\r\n            if (json[1] == id[0]) {\r\n                len = 1;\r\n                while (len < id.length && (1 + len) < json.length && json[1 + len] == id[len]) {\r\n                    len++;\r\n                }\r\n                if (len == id.length) {\r\n                    return true;\r\n                }\r\n            }\r\n        }\r\n\r\n        return false;\r\n    }\r\n}\r\n\r\n\r\n// Ownership\r\ncontract owned {\r\n    address public owner;\r\n\r\n    function owned() {\r\n        owner = msg.sender;\r\n    }\r\n\r\n    modifier onlyOwner {\r\n        if (msg.sender != owner) throw;\r\n        _;\r\n    }\r\n\r\n    function transferOwnership(address newOwner) onlyOwner {\r\n        owner = newOwner;\r\n    }\r\n}\r\n\r\ncontract Chainy is owned {\r\n    // Chainy viewer url\r\n    string CHAINY_URL;\r\n\r\n    CredentialManager private credentialManager;\r\n    bool private isCredentialManagerSet;\r\n\r\n    // Configuration\r\n    mapping(string => uint256) private chainyConfig;\r\n\r\n    // Service accounts\r\n    mapping (address => bool) private srvAccount;\r\n\r\n    mapping (address => string) private lastChainy;\r\n\r\n    // Fee receiver\r\n    address private receiverAddress;\r\n\r\n    struct data {uint256 timestamp; string json; address sender;}\r\n\r\n    mapping (string => data) private chainy;\r\n    mapping (string => mapping(address => bool)) private chainyAccess;\r\n\r\n    event chainyShortLink(uint256 timestamp, string code);\r\n\r\n    // Constructor\r\n    function Chainy() {\r\n        setConfig(\"fee\", 0);\r\n        // change the block offset to 1000000 to use contract in testnet\r\n        setConfig(\"blockoffset\", 100000);\r\n        setChainyURL(\"\");\r\n        isCredentialManagerSet = false;\r\n    }\r\n\r\n    function setCredentialManager(address _cred) {\r\n        require(!isCredentialManagerSet);\r\n        credentialManager = CredentialManager(_cred);\r\n        isCredentialManagerSet = true;\r\n    }\r\n\r\n    // Sets new Chainy viewer URL\r\n    function setChainyURL(string _url) onlyOwner {\r\n        CHAINY_URL = _url;\r\n    }\r\n\r\n    // Returns current Chainy viewer URL\r\n    function getChainyURL() constant returns(string){\r\n        return CHAINY_URL;\r\n    }\r\n\r\n    // Sets configuration option\r\n    function setConfig(string _key, uint256 _value) onlyOwner {\r\n        chainyConfig[_key] = _value;\r\n    }\r\n\r\n    // Returns configuration option\r\n    function getConfig(string _key) constant returns (uint256 _value) {\r\n        return chainyConfig[_key];\r\n    }\r\n\r\n    // Add/Remove service account\r\n    function setServiceAccount(address _address, bool _value) onlyOwner {\r\n        srvAccount[_address] = _value;\r\n    }\r\n\r\n    // Set receiver address\r\n    function setReceiverAddress(address _address) onlyOwner {\r\n        receiverAddress = _address;\r\n    }\r\n\r\n    // Send all ether back to owner\r\n    function releaseFunds() onlyOwner {\r\n        if(!owner.send(this.balance)) throw;\r\n    }\r\n\r\n    // Add record\r\n    function addChainyData(string json) {\r\n        checkFormat(json);\r\n\r\n        var code = generateShortLink();\r\n        // Checks if the record exist\r\n        if (getChainyTimestamp(code) > 0) throw;\r\n\r\n        processFee();\r\n        chainy[code] = data({\r\n            timestamp: block.timestamp,\r\n            json: json,\r\n            sender: tx.origin\r\n        });\r\n\r\n        lastChainy[msg.sender] = code;\r\n        chainyAccess[code][msg.sender] = true;\r\n\r\n        // Fire event\r\n        var link = strUtils.concat(CHAINY_URL, code);\r\n        chainyShortLink(block.timestamp, link);\r\n    }\r\n\r\n    function getLastChainy(address sender) constant returns (string) {\r\n        return lastChainy[sender];\r\n    }\r\n\r\n    // Get record timestamp\r\n    function getChainyTimestamp(string code) constant returns (uint256) {\r\n        return chainy[code].timestamp;\r\n    }\r\n\r\n    // Get record JSON\r\n    function getChainyData(string code) constant returns (string) {\r\n        if (chainyAccess[code][msg.sender] == true) {\r\n            return chainy[code].json;\r\n        } else {\r\n            require(credentialManager.isInRole(0,msg.sender));\r\n            return chainy[code].json;\r\n        }\r\n    }\r\n\r\n    function setChainyAccess (string code, address _target) {\r\n        require(credentialManager.isInRole(0,msg.sender));\r\n        chainyAccess[code][_target] = true;\r\n    }\r\n\r\n    // Get record sender\r\n    function getChainySender(string code) constant returns (address) {\r\n        return chainy[code].sender;\r\n    }\r\n\r\n    // Checks if enough fee provided\r\n    function processFee() internal {\r\n        var fee = getConfig(\"fee\");\r\n        if (srvAccount[msg.sender] || (fee == 0)) return;\r\n\r\n        if (msg.value < fee)\r\n            throw;\r\n        else\r\n            if (!receiverAddress.send(fee)) throw;\r\n    }\r\n\r\n    // Checks if provided string has valid format\r\n    function checkFormat(string json) internal {\r\n        if (!strUtils.isValidChainyJson(json)) throw;\r\n    }\r\n\r\n    // Generates a shortlink code for this transaction\r\n    function generateShortLink() internal returns (string) {\r\n        var s1 = strUtils.toBase58(block.number - getConfig(\"blockoffset\"), 11);\r\n        var s2 = strUtils.toBase58(uint256(tx.origin), 2);\r\n\r\n        var s = strUtils.concat(s1, s2);\r\n        return s;\r\n    }\r\n}",
  "sourcePath": "C:\\Side\\dnb\\smartinvoice\\contracts\\Chainy.sol",
  "compiler": {
    "name": "solc",
    "version": "0.4.18+commit.9cf6e910.Emscripten.clang"
  },
  "schemaVersion": "1.0.1",
  "updatedAt": "2018-03-24T14:41:29.598Z"
}