{
  "contractName": "Chainy",
  "abi": [
    {
      "constant": true,
      "inputs": [],
      "name": "owner",
      "outputs": [
        {
          "name": "",
          "type": "address"
        }
      ],
      "payable": false,
      "stateMutability": "view",
      "type": "function"
    },
    {
      "constant": false,
      "inputs": [
        {
          "name": "newOwner",
          "type": "address"
        }
      ],
      "name": "transferOwnership",
      "outputs": [],
      "payable": false,
      "stateMutability": "nonpayable",
      "type": "function"
    },
    {
      "inputs": [],
      "payable": false,
      "stateMutability": "nonpayable",
      "type": "constructor"
    },
    {
      "anonymous": false,
      "inputs": [
        {
          "indexed": false,
          "name": "timestamp",
          "type": "uint256"
        },
        {
          "indexed": false,
          "name": "code",
          "type": "string"
        }
      ],
      "name": "chainyShortLink",
      "type": "event"
    },
    {
      "constant": false,
      "inputs": [
        {
          "name": "_cred",
          "type": "address"
        }
      ],
      "name": "setCredentialManager",
      "outputs": [],
      "payable": false,
      "stateMutability": "nonpayable",
      "type": "function"
    },
    {
      "constant": false,
      "inputs": [
        {
          "name": "_url",
          "type": "string"
        }
      ],
      "name": "setChainyURL",
      "outputs": [],
      "payable": false,
      "stateMutability": "nonpayable",
      "type": "function"
    },
    {
      "constant": true,
      "inputs": [],
      "name": "getChainyURL",
      "outputs": [
        {
          "name": "",
          "type": "string"
        }
      ],
      "payable": false,
      "stateMutability": "view",
      "type": "function"
    },
    {
      "constant": false,
      "inputs": [
        {
          "name": "_key",
          "type": "string"
        },
        {
          "name": "_value",
          "type": "uint256"
        }
      ],
      "name": "setConfig",
      "outputs": [],
      "payable": false,
      "stateMutability": "nonpayable",
      "type": "function"
    },
    {
      "constant": true,
      "inputs": [
        {
          "name": "_key",
          "type": "string"
        }
      ],
      "name": "getConfig",
      "outputs": [
        {
          "name": "_value",
          "type": "uint256"
        }
      ],
      "payable": false,
      "stateMutability": "view",
      "type": "function"
    },
    {
      "constant": false,
      "inputs": [
        {
          "name": "_address",
          "type": "address"
        },
        {
          "name": "_value",
          "type": "bool"
        }
      ],
      "name": "setServiceAccount",
      "outputs": [],
      "payable": false,
      "stateMutability": "nonpayable",
      "type": "function"
    },
    {
      "constant": false,
      "inputs": [
        {
          "name": "_address",
          "type": "address"
        }
      ],
      "name": "setReceiverAddress",
      "outputs": [],
      "payable": false,
      "stateMutability": "nonpayable",
      "type": "function"
    },
    {
      "constant": false,
      "inputs": [],
      "name": "releaseFunds",
      "outputs": [],
      "payable": false,
      "stateMutability": "nonpayable",
      "type": "function"
    },
    {
      "constant": false,
      "inputs": [
        {
          "name": "json",
          "type": "string"
        }
      ],
      "name": "addChainyData",
      "outputs": [],
      "payable": false,
      "stateMutability": "nonpayable",
      "type": "function"
    },
    {
      "constant": true,
      "inputs": [
        {
          "name": "_code",
          "type": "string"
        },
        {
          "name": "user",
          "type": "address"
        }
      ],
      "name": "getChainyAccess",
      "outputs": [
        {
          "name": "",
          "type": "bool"
        }
      ],
      "payable": false,
      "stateMutability": "view",
      "type": "function"
    },
    {
      "constant": true,
      "inputs": [
        {
          "name": "sender",
          "type": "address"
        }
      ],
      "name": "getLastChainy",
      "outputs": [
        {
          "name": "",
          "type": "string"
        }
      ],
      "payable": false,
      "stateMutability": "view",
      "type": "function"
    },
    {
      "constant": true,
      "inputs": [
        {
          "name": "code",
          "type": "string"
        }
      ],
      "name": "getChainyTimestamp",
      "outputs": [
        {
          "name": "",
          "type": "uint256"
        }
      ],
      "payable": false,
      "stateMutability": "view",
      "type": "function"
    },
    {
      "constant": true,
      "inputs": [
        {
          "name": "code",
          "type": "string"
        }
      ],
      "name": "getChainyData",
      "outputs": [
        {
          "name": "",
          "type": "string"
        }
      ],
      "payable": false,
      "stateMutability": "view",
      "type": "function"
    },
    {
      "constant": false,
      "inputs": [
        {
          "name": "code",
          "type": "string"
        },
        {
          "name": "_target",
          "type": "address"
        }
      ],
      "name": "setChainyAccess",
      "outputs": [],
      "payable": false,
      "stateMutability": "nonpayable",
      "type": "function"
    },
    {
      "constant": true,
      "inputs": [
        {
          "name": "code",
          "type": "string"
        }
      ],
      "name": "getChainySender",
      "outputs": [
        {
          "name": "",
          "type": "address"
        }
      ],
      "payable": false,
      "stateMutability": "view",
      "type": "function"
    }
  ],
  "bytecode": "0x606060405234156200001057600080fd5b336000806101000a81548173ffffffffffffffffffffffffffffffffffffffff021916908373ffffffffffffffffffffffffffffffffffffffff160217905550620000a66040805190810160405280600381526020017f666565000000000000000000000000000000000000000000000000000000000081525060006200014e6401000000000262000dbb176401000000009004565b620000fe6040805190810160405280600b81526020017f626c6f636b6f6666736574000000000000000000000000000000000000000000815250620186a06200014e6401000000000262000dbb176401000000009004565b6200012d60206040519081016040528060008152506200022064010000000002620018b3176401000000009004565b6000600260146101000a81548160ff02191690831515021790555062000347565b6000809054906101000a900473ffffffffffffffffffffffffffffffffffffffff1673ffffffffffffffffffffffffffffffffffffffff163373ffffffffffffffffffffffffffffffffffffffff16141515620001aa57600080fd5b806003836040518082805190602001908083835b602083101515620001e55780518252602082019150602081019050602083039250620001be565b6001836020036101000a0380198251168184511680821785525050505050509050019150509081526020016040518091039020819055505050565b6000809054906101000a900473ffffffffffffffffffffffffffffffffffffffff1673ffffffffffffffffffffffffffffffffffffffff163373ffffffffffffffffffffffffffffffffffffffff161415156200027c57600080fd5b80600190805190602001906200029492919062000298565b5050565b828054600181600116156101000203166002900490600052602060002090601f016020900481019282601f10620002db57805160ff19168380011785556200030c565b828001600101855582156200030c579182015b828111156200030b578251825591602001919060010190620002ee565b5b5090506200031b91906200031f565b5090565b6200034491905b808211156200034057600081600090555060010162000326565b5090565b90565b61246980620003576000396000f3006060604052600436106100f1576000357c0100000000000000000000000000000000000000000000000000000000900463ffffffff168063045236b4146100f657806309d2d0b9146101cc57806321e6652c14610210578063233120aa146102495780633e8f5b90146102d75780634ed42b991461033d57806369d89575146103ef5780638279c7db14610404578063829115951461043d5780638da5cb5b146104d1578063919edc7c1461052657806392eb34d0146105c3578063ac3e7d241461063f578063b44bd51d1461069c578063e8b13c441461070d578063eef8e35f1461077e578063f2fde38b146107db575b600080fd5b341561010157600080fd5b610151600480803590602001908201803590602001908080601f01602080910402602001604051908101604052809392919081815260200183838082843782019150505050505091905050610814565b6040518080602001828103825283818151815260200191508051906020019080838360005b83811015610191578082015181840152602081019050610176565b50505050905090810190601f1680156101be5780820380516001836020036101000a031916815260200191505b509250505060405180910390f35b34156101d757600080fd5b61020e600480803573ffffffffffffffffffffffffffffffffffffffff169060200190919080351515906020019091905050610be2565b005b341561021b57600080fd5b610247600480803573ffffffffffffffffffffffffffffffffffffffff16906020019091905050610c98565b005b341561025457600080fd5b61025c610d13565b6040518080602001828103825283818151815260200191508051906020019080838360005b8381101561029c578082015181840152602081019050610281565b50505050905090810190601f1680156102c95780820380516001836020036101000a031916815260200191505b509250505060405180910390f35b34156102e257600080fd5b61033b600480803590602001908201803590602001908080601f01602080910402602001604051908101604052809392919081815260200183838082843782019150505050505091908035906020019091905050610dbb565b005b341561034857600080fd5b610374600480803573ffffffffffffffffffffffffffffffffffffffff16906020019091905050610e8a565b6040518080602001828103825283818151815260200191508051906020019080838360005b838110156103b4578082015181840152602081019050610399565b50505050905090810190601f1680156103e15780820380516001836020036101000a031916815260200191505b509250505060405180910390f35b34156103fa57600080fd5b610402610f71565b005b341561040f57600080fd5b61043b600480803573ffffffffffffffffffffffffffffffffffffffff16906020019091905050611046565b005b341561044857600080fd5b6104b7600480803590602001908201803590602001908080601f0160208091040260200160405190810160405280939291908181526020018383808284378201915050505050509190803573ffffffffffffffffffffffffffffffffffffffff169060200190919050506110e5565b604051808215151515815260200191505060405180910390f35b34156104dc57600080fd5b6104e46111aa565b604051808273ffffffffffffffffffffffffffffffffffffffff1673ffffffffffffffffffffffffffffffffffffffff16815260200191505060405180910390f35b341561053157600080fd5b610581600480803590602001908201803590602001908080601f016020809104026020016040519081016040528093929190818152602001838380828437820191505050505050919050506111cf565b604051808273ffffffffffffffffffffffffffffffffffffffff1673ffffffffffffffffffffffffffffffffffffffff16815260200191505060405180910390f35b34156105ce57600080fd5b61063d600480803590602001908201803590602001908080601f0160208091040260200160405190810160405280939291908181526020018383808284378201915050505050509190803573ffffffffffffffffffffffffffffffffffffffff16906020019091905050611267565b005b341561064a57600080fd5b61069a600480803590602001908201803590602001908080601f01602080910402602001604051908101604052809392919081815260200183838082843782019150505050505091905050611413565b005b34156106a757600080fd5b6106f7600480803590602001908201803590602001908080601f016020809104026020016040519081016040528093929190818152602001838380828437820191505050505050919050506117c6565b6040518082815260200191505060405180910390f35b341561071857600080fd5b610768600480803590602001908201803590602001908080601f0160208091040260200160405190810160405280939291908181526020018383808284378201915050505050509190505061183b565b6040518082815260200191505060405180910390f35b341561078957600080fd5b6107d9600480803590602001908201803590602001908080601f016020809104026020016040519081016040528093929190818152602001838380828437820191505050505050919050506118b3565b005b34156107e657600080fd5b610812600480803573ffffffffffffffffffffffffffffffffffffffff16906020019091905050611928565b005b61081c6122f0565b600115156008836040518082805190602001908083835b6020831015156108585780518252602082019150602081019050602083039250610833565b6001836020036101000a038019825116818451168082178552505050505050905001915050908152602001604051809103902060003373ffffffffffffffffffffffffffffffffffffffff1673ffffffffffffffffffffffffffffffffffffffff16815260200190815260200160002060009054906101000a900460ff16151514156109ec576007826040518082805190602001908083835b60208310151561091657805182526020820191506020810190506020830392506108f1565b6001836020036101000a03801982511681845116808217855250505050505090500191505090815260200160405180910390206001018054600181600116156101000203166002900480601f0160208091040260200160405190810160405280929190818152602001828054600181600116156101000203166002900480156109e05780601f106109b5576101008083540402835291602001916109e0565b820191906000526020600020905b8154815290600101906020018083116109c357829003601f168201915b50505050509050610bdd565b600260009054906101000a900473ffffffffffffffffffffffffffffffffffffffff1673ffffffffffffffffffffffffffffffffffffffff1663559b7bdc6000336040518363ffffffff167c0100000000000000000000000000000000000000000000000000000000028152600401808381526020018273ffffffffffffffffffffffffffffffffffffffff1673ffffffffffffffffffffffffffffffffffffffff16815260200192505050602060405180830381600087803b1515610ab157600080fd5b5af11515610abe57600080fd5b505050604051805190501515610ad357600080fd5b6007826040518082805190602001908083835b602083101515610b0b5780518252602082019150602081019050602083039250610ae6565b6001836020036101000a03801982511681845116808217855250505050505090500191505090815260200160405180910390206001018054600181600116156101000203166002900480601f016020809104026020016040519081016040528092919081815260200182805460018160011615610100020316600290048015610bd55780601f10610baa57610100808354040283529160200191610bd5565b820191906000526020600020905b815481529060010190602001808311610bb857829003601f168201915b505050505090505b919050565b6000809054906101000a900473ffffffffffffffffffffffffffffffffffffffff1673ffffffffffffffffffffffffffffffffffffffff163373ffffffffffffffffffffffffffffffffffffffff16141515610c3d57600080fd5b80600460008473ffffffffffffffffffffffffffffffffffffffff1673ffffffffffffffffffffffffffffffffffffffff16815260200190815260200160002060006101000a81548160ff0219169083151502179055505050565b600260149054906101000a900460ff16151515610cb457600080fd5b80600260006101000a81548173ffffffffffffffffffffffffffffffffffffffff021916908373ffffffffffffffffffffffffffffffffffffffff1602179055506001600260146101000a81548160ff02191690831515021790555050565b610d1b6122f0565b60018054600181600116156101000203166002900480601f016020809104026020016040519081016040528092919081815260200182805460018160011615610100020316600290048015610db15780601f10610d8657610100808354040283529160200191610db1565b820191906000526020600020905b815481529060010190602001808311610d9457829003601f168201915b5050505050905090565b6000809054906101000a900473ffffffffffffffffffffffffffffffffffffffff1673ffffffffffffffffffffffffffffffffffffffff163373ffffffffffffffffffffffffffffffffffffffff16141515610e1657600080fd5b806003836040518082805190602001908083835b602083101515610e4f5780518252602082019150602081019050602083039250610e2a565b6001836020036101000a0380198251168184511680821785525050505050509050019150509081526020016040518091039020819055505050565b610e926122f0565b600560008373ffffffffffffffffffffffffffffffffffffffff1673ffffffffffffffffffffffffffffffffffffffff1681526020019081526020016000208054600181600116156101000203166002900480601f016020809104026020016040519081016040528092919081815260200182805460018160011615610100020316600290048015610f655780601f10610f3a57610100808354040283529160200191610f65565b820191906000526020600020905b815481529060010190602001808311610f4857829003601f168201915b50505050509050919050565b6000809054906101000a900473ffffffffffffffffffffffffffffffffffffffff1673ffffffffffffffffffffffffffffffffffffffff163373ffffffffffffffffffffffffffffffffffffffff16141515610fcc57600080fd5b6000809054906101000a900473ffffffffffffffffffffffffffffffffffffffff1673ffffffffffffffffffffffffffffffffffffffff166108fc3073ffffffffffffffffffffffffffffffffffffffff16319081150290604051600060405180830381858888f19350505050151561104457600080fd5b565b6000809054906101000a900473ffffffffffffffffffffffffffffffffffffffff1673ffffffffffffffffffffffffffffffffffffffff163373ffffffffffffffffffffffffffffffffffffffff161415156110a157600080fd5b80600660006101000a81548173ffffffffffffffffffffffffffffffffffffffff021916908373ffffffffffffffffffffffffffffffffffffffff16021790555050565b6000806008846040518082805190602001908083835b60208310151561112057805182526020820191506020810190506020830392506110fb565b6001836020036101000a038019825116818451168082178552505050505050905001915050908152602001604051809103902060008473ffffffffffffffffffffffffffffffffffffffff1673ffffffffffffffffffffffffffffffffffffffff16815260200190815260200160002060009054906101000a900460ff1690508091505092915050565b6000809054906101000a900473ffffffffffffffffffffffffffffffffffffffff1681565b60006007826040518082805190602001908083835b60208310151561120957805182526020820191506020810190506020830392506111e4565b6001836020036101000a038019825116818451168082178552505050505050905001915050908152602001604051809103902060020160009054906101000a900473ffffffffffffffffffffffffffffffffffffffff169050919050565b600260009054906101000a900473ffffffffffffffffffffffffffffffffffffffff1673ffffffffffffffffffffffffffffffffffffffff1663559b7bdc6000336040518363ffffffff167c0100000000000000000000000000000000000000000000000000000000028152600401808381526020018273ffffffffffffffffffffffffffffffffffffffff1673ffffffffffffffffffffffffffffffffffffffff16815260200192505050602060405180830381600087803b151561132c57600080fd5b5af1151561133957600080fd5b50505060405180519050151561134e57600080fd5b60016008836040518082805190602001908083835b6020831015156113885780518252602082019150602081019050602083039250611363565b6001836020036101000a038019825116818451168082178552505050505050905001915050908152602001604051809103902060008373ffffffffffffffffffffffffffffffffffffffff1673ffffffffffffffffffffffffffffffffffffffff16815260200190815260200160002060006101000a81548160ff0219169083151502179055505050565b61141b6122f0565b6114236122f0565b61142c836119c6565b6114346119dd565b915060006114418361183b565b111561144c57600080fd5b611454611a81565b6060604051908101604052804281526020018481526020013273ffffffffffffffffffffffffffffffffffffffff168152506007836040518082805190602001908083835b6020831015156114be5780518252602082019150602081019050602083039250611499565b6001836020036101000a0380198251168184511680821785525050505050509050019150509081526020016040518091039020600082015181600001556020820151816001019080519060200190611517929190612304565b5060408201518160020160006101000a81548173ffffffffffffffffffffffffffffffffffffffff021916908373ffffffffffffffffffffffffffffffffffffffff16021790555090505081600560003373ffffffffffffffffffffffffffffffffffffffff1673ffffffffffffffffffffffffffffffffffffffff16815260200190815260200160002090805190602001906115b5929190612384565b5060016008836040518082805190602001908083835b6020831015156115f057805182526020820191506020810190506020830392506115cb565b6001836020036101000a038019825116818451168082178552505050505050905001915050908152602001604051809103902060003373ffffffffffffffffffffffffffffffffffffffff1673ffffffffffffffffffffffffffffffffffffffff16815260200190815260200160002060006101000a81548160ff02191690831515021790555061171b60018054600181600116156101000203166002900480601f0160208091040260200160405190810160405280929190818152602001828054600181600116156101000203166002900480156117105780601f106116e557610100808354040283529160200191611710565b820191906000526020600020905b8154815290600101906020018083116116f357829003601f168201915b505050505083611b98565b90507fdad5c3eecfdb62dd69e6e72053b88029e1d6277d4bc773c00fef243982adcb7d42826040518083815260200180602001828103825283818151815260200191508051906020019080838360005b8381101561178657808201518184015260208101905061176b565b50505050905090810190601f1680156117b35780820380516001836020036101000a031916815260200191505b50935050505060405180910390a1505050565b60006003826040518082805190602001908083835b60208310151561180057805182526020820191506020810190506020830392506117db565b6001836020036101000a0380198251168184511680821785525050505050509050019150509081526020016040518091039020549050919050565b60006007826040518082805190602001908083835b6020831015156118755780518252602082019150602081019050602083039250611850565b6001836020036101000a0380198251168184511680821785525050505050509050019150509081526020016040518091039020600001549050919050565b6000809054906101000a900473ffffffffffffffffffffffffffffffffffffffff1673ffffffffffffffffffffffffffffffffffffffff163373ffffffffffffffffffffffffffffffffffffffff1614151561190e57600080fd5b8060019080519060200190611924929190612384565b5050565b6000809054906101000a900473ffffffffffffffffffffffffffffffffffffffff1673ffffffffffffffffffffffffffffffffffffffff163373ffffffffffffffffffffffffffffffffffffffff1614151561198357600080fd5b806000806101000a81548173ffffffffffffffffffffffffffffffffffffffff021916908373ffffffffffffffffffffffffffffffffffffffff16021790555050565b6119cf81611d78565b15156119da57600080fd5b50565b6119e56122f0565b6119ed6122f0565b6119f56122f0565b6119fd6122f0565b611a47611a3e6040805190810160405280600b81526020017f626c6f636b6f66667365740000000000000000000000000000000000000000008152506117c6565b4303600b61202b565b9250611a6a3273ffffffffffffffffffffffffffffffffffffffff16600261202b565b9150611a768383611b98565b905080935050505090565b6000611ac16040805190810160405280600381526020017f66656500000000000000000000000000000000000000000000000000000000008152506117c6565b9050600460003373ffffffffffffffffffffffffffffffffffffffff1673ffffffffffffffffffffffffffffffffffffffff16815260200190815260200160002060009054906101000a900460ff1680611b1b5750600081145b15611b2557611b95565b80341015611b3257600080fd5b600660009054906101000a900473ffffffffffffffffffffffffffffffffffffffff1673ffffffffffffffffffffffffffffffffffffffff166108fc829081150290604051600060405180830381858888f193505050501515611b9457600080fd5b5b50565b611ba06122f0565b611ba8612404565b611bb0612404565b611bb86122f0565b611bc0612404565b6000808895508794508451865101604051805910611bdb5750595b9080825280601f01601f1916602001820160405250935083925060009150600090505b8551811015611cb1578581815181101515611c1557fe5b9060200101517f010000000000000000000000000000000000000000000000000000000000000090047f0100000000000000000000000000000000000000000000000000000000000000028383806001019450815181101515611c7457fe5b9060200101907effffffffffffffffffffffffffffffffffffffffffffffffffffffffffffff1916908160001a9053508080600101915050611bfe565b600090505b8451811015611d69578481815181101515611ccd57fe5b9060200101517f010000000000000000000000000000000000000000000000000000000000000090047f0100000000000000000000000000000000000000000000000000000000000000028383806001019450815181101515611d2c57fe5b9060200101907effffffffffffffffffffffffffffffffffffffffffffffffffffffffffffff1916908160001a9053508080600101915050611cb6565b82965050505050505092915050565b6000611d82612404565b611d8a612404565b60008492506040805190810160405280601381526020017f226964223a22736d617274696e766f69636522000000000000000000000000008152509150602060ff1683511015611ddd5760009350612023565b60009050816000815181101515611df057fe5b9060200101517f010000000000000000000000000000000000000000000000000000000000000090047f0100000000000000000000000000000000000000000000000000000000000000027effffffffffffffffffffffffffffffffffffffffffffffffffffffffffffff1916836001815181101515611e6c57fe5b9060200101517f010000000000000000000000000000000000000000000000000000000000000090047f0100000000000000000000000000000000000000000000000000000000000000027effffffffffffffffffffffffffffffffffffffffffffffffffffffffffffff1916141561201e57600190505b815181108015611ef75750825181600101105b8015611ff957508181815181101515611f0c57fe5b9060200101517f010000000000000000000000000000000000000000000000000000000000000090047f0100000000000000000000000000000000000000000000000000000000000000027effffffffffffffffffffffffffffffffffffffffffffffffffffffffffffff19168382600101815181101515611f8a57fe5b9060200101517f010000000000000000000000000000000000000000000000000000000000000090047f0100000000000000000000000000000000000000000000000000000000000000027effffffffffffffffffffffffffffffffffffffffffffffffffffffffffffff1916145b1561200b578080600101915050611ee4565b815181141561201d5760019350612023565b5b600093505b505050919050565b6120336122f0565b61203b6122f0565b612043612404565b600080600080612051612404565b600061205b612404565b606060405190810160405280603a81526020017f3132333435363738396162636465666768696a6b6d6e6f70717273747576777881526020017f797a41424344454647484a4b4c4d4e505152535455565758595a0000000000008152509850889750603a96506000955060009450600093508a60ff166040518059106120de5750595b9080825280601f01601f19166020018201604052509250600091505b8a60ff168260ff1610156121f4578660ff168c101561211857600193505b8660ff168c81151561212657fe5b0694508660ff168c81151561213757fe5b049b50878581518110151561214857fe5b9060200101517f010000000000000000000000000000000000000000000000000000000000000090047f010000000000000000000000000000000000000000000000000000000000000002838360ff168151811015156121a457fe5b9060200101907effffffffffffffffffffffffffffffffffffffffffffffffffffffffffffff1916908160001a905350858060010196505083156121e7576121f4565b81806001019250506120fa565b8560ff166040518059106122055750595b9080825280601f01601f19166020018201604052509050600091505b8560ff168260ff1610156122de578260018388030360ff1681518110151561224557fe5b9060200101517f010000000000000000000000000000000000000000000000000000000000000090047f010000000000000000000000000000000000000000000000000000000000000002818360ff168151811015156122a157fe5b9060200101907effffffffffffffffffffffffffffffffffffffffffffffffffffffffffffff1916908160001a9053508180600101925050612221565b80995050505050505050505092915050565b602060405190810160405280600081525090565b828054600181600116156101000203166002900490600052602060002090601f016020900481019282601f1061234557805160ff1916838001178555612373565b82800160010185558215612373579182015b82811115612372578251825591602001919060010190612357565b5b5090506123809190612418565b5090565b828054600181600116156101000203166002900490600052602060002090601f016020900481019282601f106123c557805160ff19168380011785556123f3565b828001600101855582156123f3579182015b828111156123f25782518255916020019190600101906123d7565b5b5090506124009190612418565b5090565b602060405190810160405280600081525090565b61243a91905b8082111561243657600081600090555060010161241e565b5090565b905600a165627a7a7230582094372e8832386d8f20edc64b59e01d412d7b437a31d6e234184f0576da79e3eb0029",
  "source": "pragma solidity ^0.4.15;\r\n\r\nimport \"./CredentialManager.sol\";\r\n\r\n/**\r\n * Copyright 2016 Everex https://everex.io\r\n *\r\n * Licensed under the Apache License, Version 2.0 (the \"License\");\r\n * you may not use this file except in compliance with the License.\r\n * You may obtain a copy of the License at\r\n *\r\n *     http://www.apache.org/licenses/LICENSE-2.0\r\n *\r\n * Unless required by applicable law or agreed to in writing, software\r\n * distributed under the License is distributed on an \"AS IS\" BASIS,\r\n * WITHOUT WARRANTIES OR CONDITIONS OF ANY KIND, either express or implied.\r\n * See the License for the specific language governing permissions and\r\n * limitations under the License.\r\n */\r\n\r\n/* String utility library */\r\nlibrary strUtils {\r\n    string constant CHAINY_JSON_ID = '\"id\":\"smartinvoice\"';\r\n    uint8 constant CHAINY_JSON_MIN_LEN = 32;\r\n\r\n    /* Converts given number to base58, limited by _maxLength symbols */\r\n    function toBase58(uint256 _value, uint8 _maxLength) internal returns (string) {\r\n        string memory letters = \"123456789abcdefghijkmnopqrstuvwxyzABCDEFGHJKLMNPQRSTUVWXYZ\";\r\n        bytes memory alphabet = bytes(letters);\r\n        uint8 base = 58;\r\n        uint8 len = 0;\r\n        uint256 remainder = 0;\r\n        bool needBreak = false;\r\n        bytes memory bytesReversed = bytes(new string(_maxLength));\r\n\r\n        for (uint8 i = 0; i < _maxLength; i++) {\r\n            if(_value < base){\r\n                needBreak = true;\r\n            }\r\n            remainder = _value % base;\r\n            _value = uint256(_value / base);\r\n            bytesReversed[i] = alphabet[remainder];\r\n            len++;\r\n            if(needBreak){\r\n                break;\r\n            }\r\n        }\r\n\r\n        // Reverse\r\n        bytes memory result = bytes(new string(len));\r\n        for (i = 0; i < len; i++) {\r\n            result[i] = bytesReversed[len - i - 1];\r\n        }\r\n        return string(result);\r\n    }\r\n\r\n    /* Concatenates two strings */\r\n    function concat(string _s1, string _s2) internal returns (string) {\r\n        bytes memory bs1 = bytes(_s1);\r\n        bytes memory bs2 = bytes(_s2);\r\n        string memory s3 = new string(bs1.length + bs2.length);\r\n        bytes memory bs3 = bytes(s3);\r\n\r\n        uint256 j = 0;\r\n        for (uint256 i = 0; i < bs1.length; i++) {\r\n            bs3[j++] = bs1[i];\r\n        }\r\n        for (i = 0; i < bs2.length; i++) {\r\n            bs3[j++] = bs2[i];\r\n        }\r\n\r\n        return string(bs3);\r\n    }\r\n\r\n    /* Checks if provided JSON string has valid Chainy format */\r\n    function isValidChainyJson(string _json) internal returns (bool) {\r\n        bytes memory json = bytes(_json);\r\n        bytes memory id = bytes(CHAINY_JSON_ID);\r\n\r\n        if (json.length < CHAINY_JSON_MIN_LEN) {\r\n            return false;\r\n        } else {\r\n            uint len = 0;\r\n            if (json[1] == id[0]) {\r\n                len = 1;\r\n                while (len < id.length && (1 + len) < json.length && json[1 + len] == id[len]) {\r\n                    len++;\r\n                }\r\n                if (len == id.length) {\r\n                    return true;\r\n                }\r\n            }\r\n        }\r\n\r\n        return false;\r\n    }\r\n}\r\n\r\n\r\n// Ownership\r\ncontract owned {\r\n    address public owner;\r\n\r\n    function owned() {\r\n        owner = msg.sender;\r\n    }\r\n\r\n    modifier onlyOwner {\r\n        if (msg.sender != owner) throw;\r\n        _;\r\n    }\r\n\r\n    function transferOwnership(address newOwner) onlyOwner {\r\n        owner = newOwner;\r\n    }\r\n}\r\n\r\ncontract Chainy is owned {\r\n    // Chainy viewer url\r\n    string CHAINY_URL;\r\n\r\n    CredentialManager private credentialManager;\r\n    bool private isCredentialManagerSet;\r\n\r\n    // Configuration\r\n    mapping(string => uint256) private chainyConfig;\r\n\r\n    // Service accounts\r\n    mapping (address => bool) private srvAccount;\r\n\r\n    mapping (address => string) private lastChainy;\r\n\r\n    // Fee receiver\r\n    address private receiverAddress;\r\n\r\n    struct data {uint256 timestamp; string json; address sender;}\r\n\r\n    mapping (string => data) private chainy;\r\n    mapping (string => mapping(address => bool)) private chainyAccess;\r\n\r\n    event chainyShortLink(uint256 timestamp, string code);\r\n\r\n    // Constructor\r\n    function Chainy() {\r\n        setConfig(\"fee\", 0);\r\n        // change the block offset to 1000000 to use contract in testnet\r\n        setConfig(\"blockoffset\", 100000);\r\n        setChainyURL(\"\");\r\n        isCredentialManagerSet = false;\r\n    }\r\n\r\n    function setCredentialManager(address _cred) {\r\n        require(!isCredentialManagerSet);\r\n        credentialManager = CredentialManager(_cred);\r\n        isCredentialManagerSet = true;\r\n    }\r\n\r\n    // Sets new Chainy viewer URL\r\n    function setChainyURL(string _url) onlyOwner {\r\n        CHAINY_URL = _url;\r\n    }\r\n\r\n    // Returns current Chainy viewer URL\r\n    function getChainyURL() constant returns(string){\r\n        return CHAINY_URL;\r\n    }\r\n\r\n    // Sets configuration option\r\n    function setConfig(string _key, uint256 _value) onlyOwner {\r\n        chainyConfig[_key] = _value;\r\n    }\r\n\r\n    // Returns configuration option\r\n    function getConfig(string _key) constant returns (uint256 _value) {\r\n        return chainyConfig[_key];\r\n    }\r\n\r\n    // Add/Remove service account\r\n    function setServiceAccount(address _address, bool _value) onlyOwner {\r\n        srvAccount[_address] = _value;\r\n    }\r\n\r\n    // Set receiver address\r\n    function setReceiverAddress(address _address) onlyOwner {\r\n        receiverAddress = _address;\r\n    }\r\n\r\n    // Send all ether back to owner\r\n    function releaseFunds() onlyOwner {\r\n        if(!owner.send(this.balance)) throw;\r\n    }\r\n\r\n    // Add record\r\n    function addChainyData(string json) {\r\n        checkFormat(json);\r\n\r\n        var code = generateShortLink();\r\n        // Checks if the record exist\r\n        if (getChainyTimestamp(code) > 0) throw;\r\n\r\n        processFee();\r\n        chainy[code] = data({\r\n            timestamp: block.timestamp,\r\n            json: json,\r\n            sender: tx.origin\r\n        });\r\n\r\n        lastChainy[msg.sender] = code;\r\n        chainyAccess[code][msg.sender] = true;\r\n\r\n        // Fire event\r\n        var link = strUtils.concat(CHAINY_URL, code);\r\n        chainyShortLink(block.timestamp, link);\r\n    }\r\n\r\n    function getChainyAccess(string _code,address user) constant returns (bool) {\r\n        var canAccess = chainyAccess[_code][user];\r\n\r\n        return canAccess;\r\n    }\r\n\r\n    function getLastChainy(address sender) constant returns (string) {\r\n        return lastChainy[sender];\r\n    }\r\n\r\n    // Get record timestamp\r\n    function getChainyTimestamp(string code) constant returns (uint256) {\r\n        return chainy[code].timestamp;\r\n    }\r\n\r\n    // Get record JSON\r\n    function getChainyData(string code) constant returns (string) {\r\n        if (chainyAccess[code][msg.sender] == true) {\r\n            return chainy[code].json;\r\n        } else {\r\n            require(credentialManager.isInRole(0,msg.sender));\r\n            return chainy[code].json;\r\n        }\r\n    }\r\n\r\n    function setChainyAccess (string code, address _target) {\r\n        require(credentialManager.isInRole(0,msg.sender));\r\n        chainyAccess[code][_target] = true;\r\n    }\r\n\r\n    // Get record sender\r\n    function getChainySender(string code) constant returns (address) {\r\n        return chainy[code].sender;\r\n    }\r\n\r\n    // Checks if enough fee provided\r\n    function processFee() internal {\r\n        var fee = getConfig(\"fee\");\r\n        if (srvAccount[msg.sender] || (fee == 0)) return;\r\n\r\n        if (msg.value < fee)\r\n            throw;\r\n        else\r\n            if (!receiverAddress.send(fee)) throw;\r\n    }\r\n\r\n    // Checks if provided string has valid format\r\n    function checkFormat(string json) internal {\r\n        if (!strUtils.isValidChainyJson(json)) throw;\r\n    }\r\n\r\n    // Generates a shortlink code for this transaction\r\n    function generateShortLink() internal returns (string) {\r\n        var s1 = strUtils.toBase58(block.number - getConfig(\"blockoffset\"), 11);\r\n        var s2 = strUtils.toBase58(uint256(tx.origin), 2);\r\n\r\n        var s = strUtils.concat(s1, s2);\r\n        return s;\r\n    }\r\n}",
  "sourcePath": "C:\\Side\\dnb\\smartinvoice\\contracts\\Chainy.sol",
  "compiler": {
    "name": "solc",
    "version": "0.4.21+commit.dfe3193c.Emscripten.clang"
  },
  "schemaVersion": "2.0.0",
  "updatedAt": "2018-05-31T15:06:28.019Z"
}