{
  "contractName": "CredentialManager",
  "abi": [
    {
      "inputs": [],
      "payable": false,
      "stateMutability": "nonpayable",
      "type": "constructor"
    },
    {
      "constant": false,
      "inputs": [
        {
          "name": "role",
          "type": "uint256"
        },
        {
          "name": "user",
          "type": "address"
        }
      ],
      "name": "setRole",
      "outputs": [],
      "payable": false,
      "stateMutability": "nonpayable",
      "type": "function"
    },
    {
      "constant": true,
      "inputs": [
        {
          "name": "role",
          "type": "uint256"
        },
        {
          "name": "user",
          "type": "address"
        }
      ],
      "name": "isInRole",
      "outputs": [
        {
          "name": "",
          "type": "bool"
        }
      ],
      "payable": false,
      "stateMutability": "view",
      "type": "function"
    }
  ],
  "bytecode": "0x6060604052341561000f57600080fd5b600160008080815260200190815260200160002060003373ffffffffffffffffffffffffffffffffffffffff1673ffffffffffffffffffffffffffffffffffffffff16815260200190815260200160002060006101000a81548160ff021916908315150217905550610202806100866000396000f30060606040526004361061004c576000357c0100000000000000000000000000000000000000000000000000000000900463ffffffff168063559b7bdc14610051578063aa03f625146100ab575b600080fd5b341561005c57600080fd5b610091600480803590602001909190803573ffffffffffffffffffffffffffffffffffffffff169060200190919050506100ed565b604051808215151515815260200191505060405180910390f35b34156100b657600080fd5b6100eb600480803590602001909190803573ffffffffffffffffffffffffffffffffffffffff16906020019091905050610154565b005b600080600084815260200190815260200160002060008373ffffffffffffffffffffffffffffffffffffffff1673ffffffffffffffffffffffffffffffffffffffff16815260200190815260200160002060009054906101000a900460ff16905092915050565b61015f6000336100ed565b151561016a57600080fd5b600160008084815260200190815260200160002060008373ffffffffffffffffffffffffffffffffffffffff1673ffffffffffffffffffffffffffffffffffffffff16815260200190815260200160002060006101000a81548160ff02191690831515021790555050505600a165627a7a72305820974433822540698c66b5ec99d86d95a0cd35141ab8fb596aeff84705dfb54cc30029",
  "source": "pragma solidity ^0.4.15;\r\n\r\ncontract CredentialManager {\r\n\r\n    //0 - admin\r\n    //1 - supplier\r\n    //2 - buyer\r\n    //3 - investor\r\n\r\n    mapping(uint => mapping(address => bool)) private userRoles;\r\n    \r\n    function CredentialManager() {\r\n        //set initial admin\r\n        userRoles[0][msg.sender] = true;\r\n    }\r\n\r\n    function setRole(uint role, address user) {\r\n        require(isInRole(0, msg.sender)); //check whether the sender is admin\r\n        userRoles[role][user] = true;\r\n    }\r\n\r\n    function isInRole(uint role, address user) constant public returns (bool) {\r\n        return userRoles[role][user];\r\n    }\r\n}\r\n",
  "sourcePath": "C:\\Side\\dnb\\smartinvoice\\contracts\\CredentialManager.sol",
  "compiler": {
    "name": "solc",
    "version": "0.4.21+commit.dfe3193c.Emscripten.clang"
  },
  "schemaVersion": "2.0.0",
  "updatedAt": "2018-05-31T15:06:28.313Z"
}