{
  "contractName": "CredentialManager",
  "abi": [
    {
      "inputs": [],
      "payable": false,
      "stateMutability": "nonpayable",
      "type": "constructor"
    },
    {
      "constant": false,
      "inputs": [
        {
          "name": "role",
          "type": "uint256"
        },
        {
          "name": "user",
          "type": "address"
        }
      ],
      "name": "setRole",
      "outputs": [],
      "payable": false,
      "stateMutability": "nonpayable",
      "type": "function"
    },
    {
      "constant": true,
      "inputs": [
        {
          "name": "role",
          "type": "uint256"
        },
        {
          "name": "user",
          "type": "address"
        }
      ],
      "name": "isInRole",
      "outputs": [
        {
          "name": "",
          "type": "bool"
        }
      ],
      "payable": false,
      "stateMutability": "view",
      "type": "function"
    }
  ],
  "bytecode": "0x6060604052341561000f57600080fd5b600160008080815260200190815260200160002060003373ffffffffffffffffffffffffffffffffffffffff1673ffffffffffffffffffffffffffffffffffffffff16815260200190815260200160002060006101000a81548160ff021916908315150217905550610202806100866000396000f30060606040526004361061004c576000357c0100000000000000000000000000000000000000000000000000000000900463ffffffff168063559b7bdc14610051578063aa03f625146100ab575b600080fd5b341561005c57600080fd5b610091600480803590602001909190803573ffffffffffffffffffffffffffffffffffffffff169060200190919050506100ed565b604051808215151515815260200191505060405180910390f35b34156100b657600080fd5b6100eb600480803590602001909190803573ffffffffffffffffffffffffffffffffffffffff16906020019091905050610154565b005b600080600084815260200190815260200160002060008373ffffffffffffffffffffffffffffffffffffffff1673ffffffffffffffffffffffffffffffffffffffff16815260200190815260200160002060009054906101000a900460ff16905092915050565b61015f6000336100ed565b151561016a57600080fd5b600160008084815260200190815260200160002060008373ffffffffffffffffffffffffffffffffffffffff1673ffffffffffffffffffffffffffffffffffffffff16815260200190815260200160002060006101000a81548160ff02191690831515021790555050505600a165627a7a723058204d349be884fba745734ba2f0f152881ce7e5270c89e3cbc849d6c221667cece40029",
  "source": "pragma solidity ^0.4.15;\n\ncontract CredentialManager {\n\n    //0 - admin\n    //1 - supplier\n    //2 - buyer\n    //3 - investor\n\n    mapping(uint => mapping(address => bool)) private userRoles;\n    \n    function CredentialManager() {\n        //set initial admin\n        userRoles[0][msg.sender] = true;\n    }\n\n    function setRole(uint role, address user) {\n        require(isInRole(0, msg.sender)); //check whether the sender is admin\n        userRoles[role][user] = true;\n    }\n\n    function isInRole(uint role, address user) constant public returns (bool) {\n        return userRoles[role][user];\n    }\n}\n",
  "sourcePath": "/home/fengkiej/Documents/Semester 6/project/smartinvoicetest-master/contracts/CredentialManager.sol",
  "compiler": {
    "name": "solc",
    "version": "0.4.21+commit.dfe3193c.Emscripten.clang"
  },
  "schemaVersion": "2.0.0",
  "updatedAt": "2018-05-15T17:29:15.551Z"
}