{
  "contractName": "InvestorCommisionContract",
  "abi": [
    {
      "constant": true,
      "inputs": [],
      "name": "decimals",
      "outputs": [
        {
          "name": "",
          "type": "uint256"
        }
      ],
      "payable": false,
      "stateMutability": "view",
      "type": "function"
    },
    {
      "anonymous": false,
      "inputs": [
        {
          "indexed": false,
          "name": "proposalStatus",
          "type": "string"
        },
        {
          "indexed": false,
          "name": "investor",
          "type": "address"
        }
      ],
      "name": "InvestorCommisionStatus",
      "type": "event"
    },
    {
      "constant": false,
      "inputs": [
        {
          "name": "credmgr",
          "type": "address"
        }
      ],
      "name": "setCredentialManager",
      "outputs": [],
      "payable": false,
      "stateMutability": "nonpayable",
      "type": "function"
    },
    {
      "constant": true,
      "inputs": [
        {
          "name": "investor",
          "type": "address"
        }
      ],
      "name": "getRate",
      "outputs": [
        {
          "name": "",
          "type": "uint256"
        },
        {
          "name": "",
          "type": "uint8"
        }
      ],
      "payable": false,
      "stateMutability": "view",
      "type": "function"
    },
    {
      "constant": false,
      "inputs": [
        {
          "name": "investor",
          "type": "address"
        },
        {
          "name": "newRate",
          "type": "uint256"
        },
        {
          "name": "newRateType",
          "type": "uint8"
        }
      ],
      "name": "setRate",
      "outputs": [],
      "payable": false,
      "stateMutability": "nonpayable",
      "type": "function"
    },
    {
      "constant": false,
      "inputs": [
        {
          "name": "investor",
          "type": "address"
        },
        {
          "name": "newRate",
          "type": "uint256"
        },
        {
          "name": "newRateType",
          "type": "uint8"
        }
      ],
      "name": "proposeRate",
      "outputs": [],
      "payable": false,
      "stateMutability": "nonpayable",
      "type": "function"
    },
    {
      "constant": true,
      "inputs": [
        {
          "name": "investor",
          "type": "address"
        }
      ],
      "name": "getRateProposal",
      "outputs": [
        {
          "name": "",
          "type": "uint256"
        },
        {
          "name": "",
          "type": "uint8"
        }
      ],
      "payable": false,
      "stateMutability": "view",
      "type": "function"
    },
    {
      "constant": false,
      "inputs": [],
      "name": "acceptRateProposal",
      "outputs": [],
      "payable": false,
      "stateMutability": "nonpayable",
      "type": "function"
    },
    {
      "constant": false,
      "inputs": [],
      "name": "rejectRateProposal",
      "outputs": [],
      "payable": false,
      "stateMutability": "nonpayable",
      "type": "function"
    }
  ],
  "bytecode": "0x606060405260008060146101000a81548160ff021916908315150217905550341561002957600080fd5b611671806100386000396000f30060606040526004361061008e576000357c0100000000000000000000000000000000000000000000000000000000900463ffffffff16806321e6652c14610093578063313ce567146100cc57806337cef791146100f557806338e1c058146101575780638c30524c146101a557806390dfda1514610207578063aa15b8621461021c578063d23df45c1461026a575b600080fd5b341561009e57600080fd5b6100ca600480803573ffffffffffffffffffffffffffffffffffffffff1690602001909190505061027f565b005b34156100d757600080fd5b6100df6102ff565b6040518082815260200191505060405180910390f35b341561010057600080fd5b61012c600480803573ffffffffffffffffffffffffffffffffffffffff16906020019091905050610304565b6040518083815260200182600281111561014257fe5b60ff1681526020019250505060405180910390f35b341561016257600080fd5b6101a3600480803573ffffffffffffffffffffffffffffffffffffffff1690602001909190803590602001909190803560ff1690602001909190505061059c565b005b34156101b057600080fd5b6101dc600480803573ffffffffffffffffffffffffffffffffffffffff169060200190919050506108df565b604051808381526020018260028111156101f257fe5b60ff1681526020019250505060405180910390f35b341561021257600080fd5b61021a610b77565b005b341561022757600080fd5b610268600480803573ffffffffffffffffffffffffffffffffffffffff1690602001909190803590602001909190803560ff169060200190919050506110d2565b005b341561027557600080fd5b61027d611415565b005b60001515600060149054906101000a900460ff1615151415156102a157600080fd5b806000806101000a81548173ffffffffffffffffffffffffffffffffffffffff021916908373ffffffffffffffffffffffffffffffffffffffff1602179055506001600060146101000a81548160ff02191690831515021790555050565b600381565b6000806000809054906101000a900473ffffffffffffffffffffffffffffffffffffffff1673ffffffffffffffffffffffffffffffffffffffff1663559b7bdc6000336040518363ffffffff167c0100000000000000000000000000000000000000000000000000000000028152600401808381526020018273ffffffffffffffffffffffffffffffffffffffff1673ffffffffffffffffffffffffffffffffffffffff16815260200192505050602060405180830381600087803b15156103cb57600080fd5b5af115156103d857600080fd5b50505060405180519050806104fb57508273ffffffffffffffffffffffffffffffffffffffff163373ffffffffffffffffffffffffffffffffffffffff161480156104fa57506000809054906101000a900473ffffffffffffffffffffffffffffffffffffffff1673ffffffffffffffffffffffffffffffffffffffff1663559b7bdc6003336040518363ffffffff167c0100000000000000000000000000000000000000000000000000000000028152600401808381526020018273ffffffffffffffffffffffffffffffffffffffff1673ffffffffffffffffffffffffffffffffffffffff16815260200192505050602060405180830381600087803b15156104e257600080fd5b5af115156104ef57600080fd5b505050604051805190505b5b151561050657600080fd5b600160008473ffffffffffffffffffffffffffffffffffffffff1673ffffffffffffffffffffffffffffffffffffffff16815260200190815260200160002054600260008573ffffffffffffffffffffffffffffffffffffffff1673ffffffffffffffffffffffffffffffffffffffff16815260200190815260200160002060009054906101000a900460ff1691509150915091565b6000809054906101000a900473ffffffffffffffffffffffffffffffffffffffff1673ffffffffffffffffffffffffffffffffffffffff1663559b7bdc6000336040518363ffffffff167c0100000000000000000000000000000000000000000000000000000000028152600401808381526020018273ffffffffffffffffffffffffffffffffffffffff1673ffffffffffffffffffffffffffffffffffffffff16815260200192505050602060405180830381600087803b151561066057600080fd5b5af1151561066d57600080fd5b50505060405180519050151561068257600080fd5b6000809054906101000a900473ffffffffffffffffffffffffffffffffffffffff1673ffffffffffffffffffffffffffffffffffffffff1663559b7bdc6003856040518363ffffffff167c0100000000000000000000000000000000000000000000000000000000028152600401808381526020018273ffffffffffffffffffffffffffffffffffffffff1673ffffffffffffffffffffffffffffffffffffffff16815260200192505050602060405180830381600087803b151561074657600080fd5b5af1151561075357600080fd5b50505060405180519050151561076857600080fd5b60008211801561078f57506000600281111561078057fe5b81600281111561078c57fe5b14155b151561079a57600080fd5b81600160008573ffffffffffffffffffffffffffffffffffffffff1673ffffffffffffffffffffffffffffffffffffffff1681526020019081526020016000208190555080600260008573ffffffffffffffffffffffffffffffffffffffff1673ffffffffffffffffffffffffffffffffffffffff16815260200190815260200160002060006101000a81548160ff0219169083600281111561083957fe5b02179055507fa9b238864c5c664b3be20679d24d46b1b3a71af272120efdd1e80a5b0fa87e438360405180806020018373ffffffffffffffffffffffffffffffffffffffff1673ffffffffffffffffffffffffffffffffffffffff1681526020018281038252600b8152602001807f726174654368616e6765640000000000000000000000000000000000000000008152506020019250505060405180910390a1505050565b6000806000809054906101000a900473ffffffffffffffffffffffffffffffffffffffff1673ffffffffffffffffffffffffffffffffffffffff1663559b7bdc6000336040518363ffffffff167c0100000000000000000000000000000000000000000000000000000000028152600401808381526020018273ffffffffffffffffffffffffffffffffffffffff1673ffffffffffffffffffffffffffffffffffffffff16815260200192505050602060405180830381600087803b15156109a657600080fd5b5af115156109b357600080fd5b5050506040518051905080610ad657508273ffffffffffffffffffffffffffffffffffffffff163373ffffffffffffffffffffffffffffffffffffffff16148015610ad557506000809054906101000a900473ffffffffffffffffffffffffffffffffffffffff1673ffffffffffffffffffffffffffffffffffffffff1663559b7bdc6003336040518363ffffffff167c0100000000000000000000000000000000000000000000000000000000028152600401808381526020018273ffffffffffffffffffffffffffffffffffffffff1673ffffffffffffffffffffffffffffffffffffffff16815260200192505050602060405180830381600087803b1515610abd57600080fd5b5af11515610aca57600080fd5b505050604051805190505b5b1515610ae157600080fd5b600360008473ffffffffffffffffffffffffffffffffffffffff1673ffffffffffffffffffffffffffffffffffffffff16815260200190815260200160002054600460008573ffffffffffffffffffffffffffffffffffffffff1673ffffffffffffffffffffffffffffffffffffffff16815260200190815260200160002060009054906101000a900460ff1691509150915091565b60008060009054906101000a900473ffffffffffffffffffffffffffffffffffffffff1673ffffffffffffffffffffffffffffffffffffffff1663559b7bdc6003336040518363ffffffff167c0100000000000000000000000000000000000000000000000000000000028152600401808381526020018273ffffffffffffffffffffffffffffffffffffffff1673ffffffffffffffffffffffffffffffffffffffff16815260200192505050602060405180830381600087803b1515610c3d57600080fd5b5af11515610c4a57600080fd5b505050604051805190501515610c5f57600080fd5b339050600360008273ffffffffffffffffffffffffffffffffffffffff1673ffffffffffffffffffffffffffffffffffffffff16815260200190815260200160002054600160008373ffffffffffffffffffffffffffffffffffffffff1673ffffffffffffffffffffffffffffffffffffffff16815260200190815260200160002081905550600460008273ffffffffffffffffffffffffffffffffffffffff1673ffffffffffffffffffffffffffffffffffffffff16815260200190815260200160002060009054906101000a900460ff16600260008373ffffffffffffffffffffffffffffffffffffffff1673ffffffffffffffffffffffffffffffffffffffff16815260200190815260200160002060006101000a81548160ff02191690836002811115610d8c57fe5b0217905550600360008273ffffffffffffffffffffffffffffffffffffffff1673ffffffffffffffffffffffffffffffffffffffff16815260200190815260200160002054600160008373ffffffffffffffffffffffffffffffffffffffff1673ffffffffffffffffffffffffffffffffffffffff16815260200190815260200160002054148015610ecb5750600460008273ffffffffffffffffffffffffffffffffffffffff1673ffffffffffffffffffffffffffffffffffffffff16815260200190815260200160002060009054906101000a900460ff166002811115610e7157fe5b600260008373ffffffffffffffffffffffffffffffffffffffff1673ffffffffffffffffffffffffffffffffffffffff16815260200190815260200160002060009054906101000a900460ff166002811115610ec957fe5b145b1515610ed357fe5b6000600160008373ffffffffffffffffffffffffffffffffffffffff1673ffffffffffffffffffffffffffffffffffffffff16815260200190815260200160002054118015610f85575060006002811115610f2a57fe5b600460008373ffffffffffffffffffffffffffffffffffffffff1673ffffffffffffffffffffffffffffffffffffffff16815260200190815260200160002060009054906101000a900460ff166002811115610f8257fe5b14155b1515610f8d57fe5b6000600460008373ffffffffffffffffffffffffffffffffffffffff1673ffffffffffffffffffffffffffffffffffffffff16815260200190815260200160002060006101000a81548160ff02191690836002811115610fe957fe5b02179055506000600360008373ffffffffffffffffffffffffffffffffffffffff1673ffffffffffffffffffffffffffffffffffffffff168152602001908152602001600020819055507fa9b238864c5c664b3be20679d24d46b1b3a71af272120efdd1e80a5b0fa87e438160405180806020018373ffffffffffffffffffffffffffffffffffffffff1673ffffffffffffffffffffffffffffffffffffffff168152602001828103825260108152602001807f70726f706f73616c4163636570746564000000000000000000000000000000008152506020019250505060405180910390a150565b6000809054906101000a900473ffffffffffffffffffffffffffffffffffffffff1673ffffffffffffffffffffffffffffffffffffffff1663559b7bdc6000336040518363ffffffff167c0100000000000000000000000000000000000000000000000000000000028152600401808381526020018273ffffffffffffffffffffffffffffffffffffffff1673ffffffffffffffffffffffffffffffffffffffff16815260200192505050602060405180830381600087803b151561119657600080fd5b5af115156111a357600080fd5b5050506040518051905015156111b857600080fd5b6000809054906101000a900473ffffffffffffffffffffffffffffffffffffffff1673ffffffffffffffffffffffffffffffffffffffff1663559b7bdc6003856040518363ffffffff167c0100000000000000000000000000000000000000000000000000000000028152600401808381526020018273ffffffffffffffffffffffffffffffffffffffff1673ffffffffffffffffffffffffffffffffffffffff16815260200192505050602060405180830381600087803b151561127c57600080fd5b5af1151561128957600080fd5b50505060405180519050151561129e57600080fd5b6000821180156112c55750600060028111156112b657fe5b8160028111156112c257fe5b14155b15156112d057600080fd5b81600360008573ffffffffffffffffffffffffffffffffffffffff1673ffffffffffffffffffffffffffffffffffffffff1681526020019081526020016000208190555080600460008573ffffffffffffffffffffffffffffffffffffffff1673ffffffffffffffffffffffffffffffffffffffff16815260200190815260200160002060006101000a81548160ff0219169083600281111561136f57fe5b02179055507fa9b238864c5c664b3be20679d24d46b1b3a71af272120efdd1e80a5b0fa87e438360405180806020018373ffffffffffffffffffffffffffffffffffffffff1673ffffffffffffffffffffffffffffffffffffffff1681526020018281038252600d8152602001807f70726f706f73616c4164646564000000000000000000000000000000000000008152506020019250505060405180910390a1505050565b60008060009054906101000a900473ffffffffffffffffffffffffffffffffffffffff1673ffffffffffffffffffffffffffffffffffffffff1663559b7bdc6003336040518363ffffffff167c0100000000000000000000000000000000000000000000000000000000028152600401808381526020018273ffffffffffffffffffffffffffffffffffffffff1673ffffffffffffffffffffffffffffffffffffffff16815260200192505050602060405180830381600087803b15156114db57600080fd5b5af115156114e857600080fd5b5050506040518051905015156114fd57600080fd5b3390506000600460008373ffffffffffffffffffffffffffffffffffffffff1673ffffffffffffffffffffffffffffffffffffffff16815260200190815260200160002060006101000a81548160ff0219169083600281111561155c57fe5b02179055506000600360008373ffffffffffffffffffffffffffffffffffffffff1673ffffffffffffffffffffffffffffffffffffffff168152602001908152602001600020819055507fa9b238864c5c664b3be20679d24d46b1b3a71af272120efdd1e80a5b0fa87e438160405180806020018373ffffffffffffffffffffffffffffffffffffffff1673ffffffffffffffffffffffffffffffffffffffff168152602001828103825260108152602001807f70726f706f73616c52656a6563746564000000000000000000000000000000008152506020019250505060405180910390a1505600a165627a7a72305820777780a022cb584a222d8fd1545505000aafb8497ddc4d3c344097988b7a96e20029",
  "source": "pragma solidity ^0.4.0;\r\nimport \"./CredentialManager.sol\";\r\n\r\ncontract InvestorCommisionContract {\r\n    enum RateType {NONE, FLAT_RATE, DYNAMIC_RATE}\r\n    \r\n    uint256 constant public decimals = 3;\r\n    CredentialManager private credentialManager;\r\n    bool private isCredentialManagerSet = false;\r\n\r\n    mapping(address => uint256) private rate;\r\n    mapping(address => RateType) private rateType;\r\n    \r\n    mapping(address => uint256) private rateProposal;\r\n    mapping(address => RateType) private rateTypeProposal;\r\n\r\n    event InvestorCommisionStatus(string proposalStatus, address investor);\r\n\r\n    function setCredentialManager(address credmgr) {\r\n    \trequire(isCredentialManagerSet == false);\r\n\t    credentialManager = CredentialManager(credmgr);\r\n\t    isCredentialManagerSet = true;\r\n    }\r\n    \r\n    //be careful when reading rate in regard to contract's decimals value\r\n    function getRate(address investor) public constant returns (uint256, RateType) {\r\n        require(credentialManager.isInRole(0,msg.sender) || \r\n            (msg.sender == investor && credentialManager.isInRole(3,msg.sender)));\r\n            \r\n        return (rate[investor], rateType[investor]);\r\n    }\r\n\r\n    //be carefule when setting rate in regard to contract's decimals value\r\n    function setRate(address investor, uint256 newRate, RateType newRateType) public {\r\n        require(credentialManager.isInRole(0,msg.sender));\r\n        require(credentialManager.isInRole(3,investor));\r\n        require(newRate > 0 && newRateType != RateType.NONE);\r\n        rate[investor] = newRate;\r\n        rateType[investor] = newRateType;\r\n        InvestorCommisionStatus(\"rateChanged\", investor);\r\n    }\r\n    \r\n    //be carefule when setting rate in regard to contract's decimals value\r\n    function proposeRate(address investor, uint256 newRate, RateType newRateType) public {\r\n        require(credentialManager.isInRole(0,msg.sender));\r\n        require(credentialManager.isInRole(3,investor));\r\n        require(newRate > 0 && newRateType != RateType.NONE);\r\n        rateProposal[investor] = newRate;\r\n        rateTypeProposal[investor] = newRateType;\r\n        InvestorCommisionStatus(\"proposalAdded\", investor);\r\n    }\r\n    \r\n    //be careful when reading rate in regard to contract's decimals value\r\n    function getRateProposal(address investor) public constant returns (uint256, RateType) {\r\n        require(credentialManager.isInRole(0,msg.sender) || \r\n            (msg.sender == investor && credentialManager.isInRole(3,msg.sender)));\r\n            \r\n        return (rateProposal[investor], rateTypeProposal[investor]);\r\n    }\r\n    \r\n    function acceptRateProposal() public {\r\n        require(credentialManager.isInRole(3,msg.sender));\r\n        \r\n        address investor = msg.sender;\r\n        rate[investor] = rateProposal[investor];\r\n        rateType[investor] = rateTypeProposal[investor];\r\n        \r\n        assert(rate[investor] == rateProposal[investor] && rateType[investor] == rateTypeProposal[investor]);\r\n\t    assert(rate[investor] > 0 && rateTypeProposal[investor] != RateType.NONE);\r\n        rateTypeProposal[investor] = RateType.NONE;\r\n        rateProposal[investor] = 0; \r\n\r\n        InvestorCommisionStatus(\"proposalAccepted\", investor);\r\n    }\r\n\r\n    function rejectRateProposal() public {\r\n        require(credentialManager.isInRole(3,msg.sender));\r\n        \r\n        address investor = msg.sender;\r\n        rateTypeProposal[investor] = RateType.NONE;\r\n        rateProposal[investor] = 0; \r\n\r\n        InvestorCommisionStatus(\"proposalRejected\", investor);\r\n    }\r\n}\r\n",
  "sourcePath": "C:\\Side\\dnb\\smartinvoice\\contracts\\InvestorCommisionContract.sol",
  "compiler": {
    "name": "solc",
    "version": "0.4.21+commit.dfe3193c.Emscripten.clang"
  },
  "schemaVersion": "2.0.0",
  "updatedAt": "2018-05-31T15:06:28.115Z"
}