{
  "contractName": "InvoiceToken",
  "abi": [
    {
      "constant": false,
      "inputs": [
        {
          "name": "_to",
          "type": "address"
        },
        {
          "name": "_tokenId",
          "type": "uint256"
        }
      ],
      "name": "approve",
      "outputs": [],
      "payable": false,
      "stateMutability": "nonpayable",
      "type": "function"
    },
    {
      "constant": true,
      "inputs": [],
      "name": "totalSupply",
      "outputs": [
        {
          "name": "",
          "type": "uint256"
        }
      ],
      "payable": false,
      "stateMutability": "view",
      "type": "function"
    },
    {
      "constant": true,
      "inputs": [
        {
          "name": "_tokenId",
          "type": "uint256"
        }
      ],
      "name": "approvedFor",
      "outputs": [
        {
          "name": "",
          "type": "address"
        }
      ],
      "payable": false,
      "stateMutability": "view",
      "type": "function"
    },
    {
      "constant": true,
      "inputs": [
        {
          "name": "_owner",
          "type": "address"
        }
      ],
      "name": "tokensOf",
      "outputs": [
        {
          "name": "",
          "type": "uint256[]"
        }
      ],
      "payable": false,
      "stateMutability": "view",
      "type": "function"
    },
    {
      "constant": true,
      "inputs": [
        {
          "name": "_tokenId",
          "type": "uint256"
        }
      ],
      "name": "ownerOf",
      "outputs": [
        {
          "name": "",
          "type": "address"
        }
      ],
      "payable": false,
      "stateMutability": "view",
      "type": "function"
    },
    {
      "constant": true,
      "inputs": [
        {
          "name": "_owner",
          "type": "address"
        }
      ],
      "name": "balanceOf",
      "outputs": [
        {
          "name": "",
          "type": "uint256"
        }
      ],
      "payable": false,
      "stateMutability": "view",
      "type": "function"
    },
    {
      "constant": false,
      "inputs": [
        {
          "name": "_to",
          "type": "address"
        },
        {
          "name": "_tokenId",
          "type": "uint256"
        }
      ],
      "name": "transfer",
      "outputs": [],
      "payable": false,
      "stateMutability": "nonpayable",
      "type": "function"
    },
    {
      "constant": false,
      "inputs": [
        {
          "name": "_tokenId",
          "type": "uint256"
        }
      ],
      "name": "takeOwnership",
      "outputs": [],
      "payable": false,
      "stateMutability": "nonpayable",
      "type": "function"
    },
    {
      "inputs": [],
      "payable": false,
      "stateMutability": "nonpayable",
      "type": "constructor"
    },
    {
      "anonymous": false,
      "inputs": [
        {
          "indexed": false,
          "name": "tokenId",
          "type": "uint256"
        },
        {
          "indexed": false,
          "name": "supplier",
          "type": "address"
        },
        {
          "indexed": false,
          "name": "owner",
          "type": "address"
        }
      ],
      "name": "InvoiceMinted",
      "type": "event"
    },
    {
      "anonymous": false,
      "inputs": [
        {
          "indexed": true,
          "name": "_from",
          "type": "address"
        },
        {
          "indexed": true,
          "name": "_to",
          "type": "address"
        },
        {
          "indexed": false,
          "name": "_tokenId",
          "type": "uint256"
        }
      ],
      "name": "Transfer",
      "type": "event"
    },
    {
      "anonymous": false,
      "inputs": [
        {
          "indexed": true,
          "name": "_owner",
          "type": "address"
        },
        {
          "indexed": true,
          "name": "_approved",
          "type": "address"
        },
        {
          "indexed": false,
          "name": "_tokenId",
          "type": "uint256"
        }
      ],
      "name": "Approval",
      "type": "event"
    },
    {
      "constant": false,
      "inputs": [
        {
          "name": "_cred",
          "type": "address"
        }
      ],
      "name": "setCredentialManager",
      "outputs": [],
      "payable": false,
      "stateMutability": "nonpayable",
      "type": "function"
    },
    {
      "constant": false,
      "inputs": [
        {
          "name": "_to",
          "type": "address"
        },
        {
          "name": "_chainyCode",
          "type": "string"
        },
        {
          "name": "_supplier",
          "type": "address"
        },
        {
          "name": "_investor",
          "type": "address"
        },
        {
          "name": "_buyer",
          "type": "address"
        },
        {
          "name": "_percentageFunding",
          "type": "uint256"
        },
        {
          "name": "_percentageInterest",
          "type": "uint256"
        },
        {
          "name": "_iCommission",
          "type": "uint256"
        },
        {
          "name": "_sCommission",
          "type": "uint256"
        }
      ],
      "name": "mint",
      "outputs": [],
      "payable": false,
      "stateMutability": "nonpayable",
      "type": "function"
    },
    {
      "constant": false,
      "inputs": [
        {
          "name": "_tokenId",
          "type": "uint256"
        }
      ],
      "name": "burn",
      "outputs": [],
      "payable": false,
      "stateMutability": "nonpayable",
      "type": "function"
    },
    {
      "constant": true,
      "inputs": [],
      "name": "name",
      "outputs": [
        {
          "name": "",
          "type": "string"
        }
      ],
      "payable": false,
      "stateMutability": "view",
      "type": "function"
    },
    {
      "constant": true,
      "inputs": [],
      "name": "symbol",
      "outputs": [
        {
          "name": "",
          "type": "string"
        }
      ],
      "payable": false,
      "stateMutability": "view",
      "type": "function"
    },
    {
      "constant": true,
      "inputs": [
        {
          "name": "_tokenId",
          "type": "uint256"
        }
      ],
      "name": "tokenMetadata",
      "outputs": [
        {
          "name": "chainyUrl",
          "type": "string"
        },
        {
          "name": "supplier",
          "type": "address"
        },
        {
          "name": "investor",
          "type": "address"
        },
        {
          "name": "buyer",
          "type": "address"
        },
        {
          "name": "percentageFunding",
          "type": "uint256"
        },
        {
          "name": "percentageInterest",
          "type": "uint256"
        }
      ],
      "payable": false,
      "stateMutability": "view",
      "type": "function"
    },
    {
      "constant": true,
      "inputs": [
        {
          "name": "_tokenId",
          "type": "uint256"
        }
      ],
      "name": "tokenCommission",
      "outputs": [
        {
          "name": "iCommission",
          "type": "uint256"
        },
        {
          "name": "sCommission",
          "type": "uint256"
        }
      ],
      "payable": false,
      "stateMutability": "view",
      "type": "function"
    }
  ],
  "bytecode": "0x6060604052341561000f57600080fd5b6000600660146101000a81548160ff021916908315150217905550611f8f806100396000396000f3006060604052600436106100db576000357c0100000000000000000000000000000000000000000000000000000000900463ffffffff16806306fdde03146100e0578063095ea7b31461016e57806318160ddd146101b057806321e6652c146101d95780632a6dd48f1461021257806342966c68146102755780635a3f2672146102985780636352211e146103265780636914db601461038957806370a08231146104cc57806395d89b4114610519578063a9059cbb146105a7578063ac728c71146105e9578063b2e6ceeb146106e6578063d04f2d0714610709575b600080fd5b34156100eb57600080fd5b6100f3610747565b6040518080602001828103825283818151815260200191508051906020019080838360005b83811015610133578082015181840152602081019050610118565b50505050905090810190601f1680156101605780820380516001836020036101000a031916815260200191505b509250505060405180910390f35b341561017957600080fd5b6101ae600480803573ffffffffffffffffffffffffffffffffffffffff1690602001909190803590602001909190505061078a565b005b34156101bb57600080fd5b6101c361091d565b6040518082815260200191505060405180910390f35b34156101e457600080fd5b610210600480803573ffffffffffffffffffffffffffffffffffffffff16906020019091905050610926565b005b341561021d57600080fd5b61023360048080359060200190919050506109a1565b604051808273ffffffffffffffffffffffffffffffffffffffff1673ffffffffffffffffffffffffffffffffffffffff16815260200191505060405180910390f35b341561028057600080fd5b61029660048080359060200190919050506109de565b005b34156102a357600080fd5b6102cf600480803573ffffffffffffffffffffffffffffffffffffffff169060200190919050506109ea565b6040518080602001828103825283818151815260200191508051906020019060200280838360005b838110156103125780820151818401526020810190506102f7565b505050509050019250505060405180910390f35b341561033157600080fd5b6103476004808035906020019091905050610a87565b604051808273ffffffffffffffffffffffffffffffffffffffff1673ffffffffffffffffffffffffffffffffffffffff16815260200191505060405180910390f35b341561039457600080fd5b6103aa6004808035906020019091905050610b05565b60405180806020018773ffffffffffffffffffffffffffffffffffffffff1673ffffffffffffffffffffffffffffffffffffffff1681526020018673ffffffffffffffffffffffffffffffffffffffff1673ffffffffffffffffffffffffffffffffffffffff1681526020018573ffffffffffffffffffffffffffffffffffffffff1673ffffffffffffffffffffffffffffffffffffffff168152602001848152602001838152602001828103825288818151815260200191508051906020019080838360005b8381101561048c578082015181840152602081019050610471565b50505050905090810190601f1680156104b95780820380516001836020036101000a031916815260200191505b5097505050505050505060405180910390f35b34156104d757600080fd5b610503600480803573ffffffffffffffffffffffffffffffffffffffff16906020019091905050610f97565b6040518082815260200191505060405180910390f35b341561052457600080fd5b61052c610fe3565b6040518080602001828103825283818151815260200191508051906020019080838360005b8381101561056c578082015181840152602081019050610551565b50505050905090810190601f1680156105995780820380516001836020036101000a031916815260200191505b509250505060405180910390f35b34156105b257600080fd5b6105e7600480803573ffffffffffffffffffffffffffffffffffffffff16906020019091908035906020019091905050611026565b005b34156105f457600080fd5b6106e4600480803573ffffffffffffffffffffffffffffffffffffffff1690602001909190803590602001908201803590602001908080601f0160208091040260200160405190810160405280939291908181526020018383808284378201915050505050509190803573ffffffffffffffffffffffffffffffffffffffff1690602001909190803573ffffffffffffffffffffffffffffffffffffffff1690602001909190803573ffffffffffffffffffffffffffffffffffffffff16906020019091908035906020019091908035906020019091908035906020019091908035906020019091905050611079565b005b34156106f157600080fd5b6107076004808035906020019091905050611445565b005b341561071457600080fd5b61072a6004808035906020019091905050611470565b604051808381526020018281526020019250505060405180910390f35b61074f611e3e565b6040805190810160405280600d81526020017f496e766f69636520546f6b656e00000000000000000000000000000000000000815250905090565b6000813373ffffffffffffffffffffffffffffffffffffffff166107ad82610a87565b73ffffffffffffffffffffffffffffffffffffffff161415156107cf57600080fd5b6107d883610a87565b91508173ffffffffffffffffffffffffffffffffffffffff168473ffffffffffffffffffffffffffffffffffffffff161415151561081557600080fd5b6000610820846109a1565b73ffffffffffffffffffffffffffffffffffffffff1614158061085a575060008473ffffffffffffffffffffffffffffffffffffffff1614155b1561091757836002600085815260200190815260200160002060006101000a81548173ffffffffffffffffffffffffffffffffffffffff021916908373ffffffffffffffffffffffffffffffffffffffff1602179055508373ffffffffffffffffffffffffffffffffffffffff168273ffffffffffffffffffffffffffffffffffffffff167f8c5be1e5ebec7d5bd14f71427d1e84f3dd0314c0f7b2291e5b200ac8c7c3b925856040518082815260200191505060405180910390a35b50505050565b60008054905090565b600660149054906101000a900460ff1615151561094257600080fd5b80600660006101000a81548173ffffffffffffffffffffffffffffffffffffffff021916908373ffffffffffffffffffffffffffffffffffffffff1602179055506001600660146101000a81548160ff02191690831515021790555050565b60006002600083815260200190815260200160002060009054906101000a900473ffffffffffffffffffffffffffffffffffffffff169050919050565b6109e781611633565b50565b6109f2611e52565b600360008373ffffffffffffffffffffffffffffffffffffffff1673ffffffffffffffffffffffffffffffffffffffff168152602001908152602001600020805480602002602001604051908101604052809291908181526020018280548015610a7b57602002820191906000526020600020905b815481526020019060010190808311610a67575b50505050509050919050565b6000806001600084815260200190815260200160002060009054906101000a900473ffffffffffffffffffffffffffffffffffffffff169050600073ffffffffffffffffffffffffffffffffffffffff168173ffffffffffffffffffffffffffffffffffffffff1614151515610afc57600080fd5b80915050919050565b610b0d611e3e565b6000806000806000600115156007600089815260200190815260200160002060003373ffffffffffffffffffffffffffffffffffffffff1673ffffffffffffffffffffffffffffffffffffffff16815260200190815260200160002060009054906101000a900460ff1615151415610d1557600560008881526020019081526020016000206000016005600089815260200190815260200160002060010160009054906101000a900473ffffffffffffffffffffffffffffffffffffffff16600560008a815260200190815260200160002060030160009054906101000a900473ffffffffffffffffffffffffffffffffffffffff16600560008b815260200190815260200160002060020160009054906101000a900473ffffffffffffffffffffffffffffffffffffffff16600560008c815260200190815260200160002060040154600560008d815260200190815260200160002060050154858054600181600116156101000203166002900480601f016020809104026020016040519081016040528092919081815260200182805460018160011615610100020316600290048015610cfd5780601f10610cd257610100808354040283529160200191610cfd565b820191906000526020600020905b815481529060010190602001808311610ce057829003601f168201915b50505050509550955095509550955095509550610f8e565b600660009054906101000a900473ffffffffffffffffffffffffffffffffffffffff1673ffffffffffffffffffffffffffffffffffffffff1663559b7bdc6000336040518363ffffffff167c0100000000000000000000000000000000000000000000000000000000028152600401808381526020018273ffffffffffffffffffffffffffffffffffffffff1673ffffffffffffffffffffffffffffffffffffffff16815260200192505050602060405180830381600087803b1515610dda57600080fd5b5af11515610de757600080fd5b505050604051805190501515610dfc57600080fd5b600560008881526020019081526020016000206000016005600089815260200190815260200160002060010160009054906101000a900473ffffffffffffffffffffffffffffffffffffffff16600560008a815260200190815260200160002060030160009054906101000a900473ffffffffffffffffffffffffffffffffffffffff16600560008b815260200190815260200160002060020160009054906101000a900473ffffffffffffffffffffffffffffffffffffffff16600560008c815260200190815260200160002060040154600560008d815260200190815260200160002060050154858054600181600116156101000203166002900480601f016020809104026020016040519081016040528092919081815260200182805460018160011615610100020316600290048015610f7a5780601f10610f4f57610100808354040283529160200191610f7a565b820191906000526020600020905b815481529060010190602001808311610f5d57829003601f168201915b505050505095509550955095509550955095505b91939550919395565b6000600360008373ffffffffffffffffffffffffffffffffffffffff1673ffffffffffffffffffffffffffffffffffffffff168152602001908152602001600020805490509050919050565b610feb611e3e565b6040805190810160405280600381526020017f494e560000000000000000000000000000000000000000000000000000000000815250905090565b803373ffffffffffffffffffffffffffffffffffffffff1661104782610a87565b73ffffffffffffffffffffffffffffffffffffffff1614151561106957600080fd5b611074338484611707565b505050565b60008773ffffffffffffffffffffffffffffffffffffffff163373ffffffffffffffffffffffffffffffffffffffff161415156110b557600080fd5b6110bd61091d565b90506110c98a82611850565b886005600083815260200190815260200160002060000190805190602001906110f3929190611e66565b50876005600083815260200190815260200160002060010160006101000a81548173ffffffffffffffffffffffffffffffffffffffff021916908373ffffffffffffffffffffffffffffffffffffffff160217905550856005600083815260200190815260200160002060020160006101000a81548173ffffffffffffffffffffffffffffffffffffffff021916908373ffffffffffffffffffffffffffffffffffffffff160217905550866005600083815260200190815260200160002060030160006101000a81548173ffffffffffffffffffffffffffffffffffffffff021916908373ffffffffffffffffffffffffffffffffffffffff16021790555084600560008381526020019081526020016000206004018190555083600560008381526020019081526020016000206005018190555082600560008381526020019081526020016000206006018190555081600560008381526020019081526020016000206007018190555060016007600083815260200190815260200160002060008a73ffffffffffffffffffffffffffffffffffffffff1673ffffffffffffffffffffffffffffffffffffffff16815260200190815260200160002060006101000a81548160ff02191690831515021790555060016007600083815260200190815260200160002060008973ffffffffffffffffffffffffffffffffffffffff1673ffffffffffffffffffffffffffffffffffffffff16815260200190815260200160002060006101000a81548160ff02191690831515021790555060016007600083815260200190815260200160002060008873ffffffffffffffffffffffffffffffffffffffff1673ffffffffffffffffffffffffffffffffffffffff16815260200190815260200160002060006101000a81548160ff0219169083151502179055507fa740a7a3e7e1123be2162092626c56c3362aca4addd8f22e803143145c04c00f81898c604051808481526020018373ffffffffffffffffffffffffffffffffffffffff1673ffffffffffffffffffffffffffffffffffffffff1681526020018273ffffffffffffffffffffffffffffffffffffffff1673ffffffffffffffffffffffffffffffffffffffff168152602001935050505060405180910390a150505050505050505050565b61144f33826118ea565b151561145a57600080fd5b61146d61146682610a87565b3383611707565b50565b600080600115156007600085815260200190815260200160002060003373ffffffffffffffffffffffffffffffffffffffff1673ffffffffffffffffffffffffffffffffffffffff16815260200190815260200160002060009054906101000a900460ff161515141561151457600560008481526020019081526020016000206006015460056000858152602001908152602001600020600701549150915061162e565b600660009054906101000a900473ffffffffffffffffffffffffffffffffffffffff1673ffffffffffffffffffffffffffffffffffffffff1663559b7bdc6000336040518363ffffffff167c0100000000000000000000000000000000000000000000000000000000028152600401808381526020018273ffffffffffffffffffffffffffffffffffffffff1673ffffffffffffffffffffffffffffffffffffffff16815260200192505050602060405180830381600087803b15156115d957600080fd5b5af115156115e657600080fd5b5050506040518051905015156115fb57600080fd5b60056000848152602001908152602001600020600601546005600085815260200190815260200160002060070154915091505b915091565b803373ffffffffffffffffffffffffffffffffffffffff1661165482610a87565b73ffffffffffffffffffffffffffffffffffffffff1614151561167657600080fd5b6000611681836109a1565b73ffffffffffffffffffffffffffffffffffffffff161415156116a9576116a8338361192b565b5b6116b33383611a14565b60003373ffffffffffffffffffffffffffffffffffffffff167fddf252ad1be2c89b69c2b068fc378daa952ba7f163c4a11628f55a4df523b3ef846040518082815260200191505060405180910390a35050565b600073ffffffffffffffffffffffffffffffffffffffff168273ffffffffffffffffffffffffffffffffffffffff161415151561174357600080fd5b61174c81610a87565b73ffffffffffffffffffffffffffffffffffffffff168273ffffffffffffffffffffffffffffffffffffffff161415151561178657600080fd5b8273ffffffffffffffffffffffffffffffffffffffff166117a682610a87565b73ffffffffffffffffffffffffffffffffffffffff161415156117c857600080fd5b6117d2838261192b565b6117dc8382611a14565b6117e68282611c9c565b8173ffffffffffffffffffffffffffffffffffffffff168373ffffffffffffffffffffffffffffffffffffffff167fddf252ad1be2c89b69c2b068fc378daa952ba7f163c4a11628f55a4df523b3ef836040518082815260200191505060405180910390a3505050565b600073ffffffffffffffffffffffffffffffffffffffff168273ffffffffffffffffffffffffffffffffffffffff161415151561188c57600080fd5b6118968282611c9c565b8173ffffffffffffffffffffffffffffffffffffffff1660007fddf252ad1be2c89b69c2b068fc378daa952ba7f163c4a11628f55a4df523b3ef836040518082815260200191505060405180910390a35050565b60008273ffffffffffffffffffffffffffffffffffffffff1661190c836109a1565b73ffffffffffffffffffffffffffffffffffffffff1614905092915050565b8173ffffffffffffffffffffffffffffffffffffffff1661194b82610a87565b73ffffffffffffffffffffffffffffffffffffffff1614151561196d57600080fd5b60006002600083815260200190815260200160002060006101000a81548173ffffffffffffffffffffffffffffffffffffffff021916908373ffffffffffffffffffffffffffffffffffffffff16021790555060008273ffffffffffffffffffffffffffffffffffffffff167f8c5be1e5ebec7d5bd14f71427d1e84f3dd0314c0f7b2291e5b200ac8c7c3b925836040518082815260200191505060405180910390a35050565b60008060008473ffffffffffffffffffffffffffffffffffffffff16611a3985610a87565b73ffffffffffffffffffffffffffffffffffffffff16141515611a5b57600080fd5b60046000858152602001908152602001600020549250611a8d6001611a7f87610f97565b611e0790919063ffffffff16565b9150600360008673ffffffffffffffffffffffffffffffffffffffff1673ffffffffffffffffffffffffffffffffffffffff16815260200190815260200160002082815481101515611adb57fe5b906000526020600020900154905060006001600086815260200190815260200160002060006101000a81548173ffffffffffffffffffffffffffffffffffffffff021916908373ffffffffffffffffffffffffffffffffffffffff16021790555080600360008773ffffffffffffffffffffffffffffffffffffffff1673ffffffffffffffffffffffffffffffffffffffff16815260200190815260200160002084815481101515611b8957fe5b9060005260206000209001819055506000600360008773ffffffffffffffffffffffffffffffffffffffff1673ffffffffffffffffffffffffffffffffffffffff16815260200190815260200160002083815481101515611be657fe5b906000526020600020900181905550600360008673ffffffffffffffffffffffffffffffffffffffff1673ffffffffffffffffffffffffffffffffffffffff168152602001908152602001600020805480919060019003611c479190611ee6565b5060006004600086815260200190815260200160002081905550826004600083815260200190815260200160002081905550611c8f6001600054611e0790919063ffffffff16565b6000819055505050505050565b60008073ffffffffffffffffffffffffffffffffffffffff166001600084815260200190815260200160002060009054906101000a900473ffffffffffffffffffffffffffffffffffffffff1673ffffffffffffffffffffffffffffffffffffffff16141515611d0b57600080fd5b826001600084815260200190815260200160002060006101000a81548173ffffffffffffffffffffffffffffffffffffffff021916908373ffffffffffffffffffffffffffffffffffffffff160217905550611d6683610f97565b9050600360008473ffffffffffffffffffffffffffffffffffffffff1673ffffffffffffffffffffffffffffffffffffffff1681526020019081526020016000208054806001018281611db99190611f12565b916000526020600020900160008490919091505550806004600084815260200190815260200160002081905550611dfc6001600054611e2090919063ffffffff16565b600081905550505050565b6000828211151515611e1557fe5b818303905092915050565b6000808284019050838110151515611e3457fe5b8091505092915050565b602060405190810160405280600081525090565b602060405190810160405280600081525090565b828054600181600116156101000203166002900490600052602060002090601f016020900481019282601f10611ea757805160ff1916838001178555611ed5565b82800160010185558215611ed5579182015b82811115611ed4578251825591602001919060010190611eb9565b5b509050611ee29190611f3e565b5090565b815481835581811511611f0d57818360005260206000209182019101611f0c9190611f3e565b5b505050565b815481835581811511611f3957818360005260206000209182019101611f389190611f3e565b5b505050565b611f6091905b80821115611f5c576000816000905550600101611f44565b5090565b905600a165627a7a72305820cb1a92f54a73e84fa70dd793c91889b4629da5d1a818b211d0f8e99835f2d00d0029",
  "source": "pragma solidity ^0.4.18;\r\n\r\nimport \"./ERC721Token.sol\";\r\nimport \"./CredentialManager.sol\";\r\n\r\ncontract InvoiceToken is ERC721Token {\r\n\r\n    struct Invoice {\r\n        string chainy;\r\n        address supplier;\r\n        address buyer;\r\n        address investor;\r\n        uint percentageFunding;\r\n        uint percentageInterest;\r\n        uint iCommission;\r\n        uint sCommission;\r\n    }\r\n    \r\n    string constant private TOKENNAME = \"Invoice Token\";\r\n    string constant private TOKENSYMBOL = \"INV\";\r\n    mapping (uint256 => Invoice) private invoiceMetadata;\r\n    \r\n    CredentialManager private credentialManager;\r\n    bool private isCredentialManagerSet;\r\n    mapping (uint256 => mapping(address => bool)) private invoiceAccess;\r\n    \r\n    event InvoiceMinted(uint tokenId, address supplier, address owner);\r\n\r\n    function InvoiceToken () {\r\n        isCredentialManagerSet = false;\r\n    }\r\n\r\n    function setCredentialManager(address _cred) public {\r\n        require(!isCredentialManagerSet);\r\n        credentialManager = CredentialManager(_cred);\r\n        isCredentialManagerSet = true;\r\n    }\r\n\r\n    function mint(address _to, string _chainyCode, address _supplier, address _investor, address _buyer, uint _percentageFunding, uint _percentageInterest, uint _iCommission, uint _sCommission) public {\r\n        require(msg.sender == _supplier);\r\n        uint last = totalSupply();\r\n        super._mint(_to, last);\r\n        invoiceMetadata[last].chainy = _chainyCode;\r\n        invoiceMetadata[last].supplier = _supplier;\r\n        invoiceMetadata[last].buyer = _buyer;\r\n        invoiceMetadata[last].investor = _investor;\r\n        invoiceMetadata[last].percentageFunding = _percentageFunding;\r\n        invoiceMetadata[last].percentageInterest = _percentageInterest;\r\n\r\n        invoiceMetadata[last].iCommission = _iCommission;\r\n        invoiceMetadata[last].sCommission = _sCommission;\r\n\r\n        invoiceAccess[last][_supplier] = true;\r\n        invoiceAccess[last][_investor] = true;\r\n        invoiceAccess[last][_buyer] = true;\r\n        InvoiceMinted(last,_supplier,_to);\r\n    }\r\n\r\n    function burn(uint256 _tokenId) public {\r\n        super._burn(_tokenId);\r\n    }\r\n\r\n    function name() public constant returns (string) {\r\n        return TOKENNAME;\r\n    }\r\n\r\n    function symbol() public constant returns (string) {\r\n        return TOKENSYMBOL;\r\n    }\r\n    \r\n    function tokenMetadata(uint256 _tokenId) public constant returns (string chainyUrl, address supplier, address investor, address buyer, uint percentageFunding, uint percentageInterest) {\r\n        if (invoiceAccess[_tokenId][msg.sender] == true) {\r\n            return \r\n            (\r\n                invoiceMetadata[_tokenId].chainy,\r\n                invoiceMetadata[_tokenId].supplier,\r\n                invoiceMetadata[_tokenId].investor,\r\n                invoiceMetadata[_tokenId].buyer,\r\n                invoiceMetadata[_tokenId].percentageFunding,\r\n                invoiceMetadata[_tokenId].percentageInterest\r\n            );\r\n        } else {\r\n            require(credentialManager.isInRole(0,msg.sender));\r\n            return \r\n            (\r\n                invoiceMetadata[_tokenId].chainy,\r\n                invoiceMetadata[_tokenId].supplier,\r\n                invoiceMetadata[_tokenId].investor,\r\n                invoiceMetadata[_tokenId].buyer,\r\n                invoiceMetadata[_tokenId].percentageFunding,\r\n                invoiceMetadata[_tokenId].percentageInterest\r\n            );\r\n        }\r\n    }\r\n    \r\n    function tokenCommission(uint256 _tokenId) public constant returns (uint iCommission, uint sCommission) {\r\n        if (invoiceAccess[_tokenId][msg.sender] == true) {\r\n            return \r\n            (\r\n                invoiceMetadata[_tokenId].iCommission,\r\n                invoiceMetadata[_tokenId].sCommission\r\n            );\r\n        } else {\r\n            require(credentialManager.isInRole(0,msg.sender));\r\n            return \r\n            (\r\n                invoiceMetadata[_tokenId].iCommission,\r\n                invoiceMetadata[_tokenId].sCommission\r\n            );\r\n        }\r\n    }\r\n}",
  "sourcePath": "C:\\Side\\dnb\\smartinvoice\\contracts\\InvoiceToken.sol",
  "compiler": {
    "name": "solc",
    "version": "0.4.21+commit.dfe3193c.Emscripten.clang"
  },
  "schemaVersion": "2.0.0",
  "updatedAt": "2018-05-31T15:06:28.363Z"
}