{
  "contractName": "InvoiceToken",
  "abi": [
    {
      "constant": false,
      "inputs": [
        {
          "name": "_to",
          "type": "address"
        },
        {
          "name": "_tokenId",
          "type": "uint256"
        }
      ],
      "name": "approve",
      "outputs": [],
      "payable": false,
      "stateMutability": "nonpayable",
      "type": "function"
    },
    {
      "constant": true,
      "inputs": [],
      "name": "totalSupply",
      "outputs": [
        {
          "name": "",
          "type": "uint256"
        }
      ],
      "payable": false,
      "stateMutability": "view",
      "type": "function"
    },
    {
      "constant": true,
      "inputs": [
        {
          "name": "_tokenId",
          "type": "uint256"
        }
      ],
      "name": "approvedFor",
      "outputs": [
        {
          "name": "",
          "type": "address"
        }
      ],
      "payable": false,
      "stateMutability": "view",
      "type": "function"
    },
    {
      "constant": true,
      "inputs": [
        {
          "name": "_owner",
          "type": "address"
        }
      ],
      "name": "tokensOf",
      "outputs": [
        {
          "name": "",
          "type": "uint256[]"
        }
      ],
      "payable": false,
      "stateMutability": "view",
      "type": "function"
    },
    {
      "constant": true,
      "inputs": [
        {
          "name": "_tokenId",
          "type": "uint256"
        }
      ],
      "name": "ownerOf",
      "outputs": [
        {
          "name": "",
          "type": "address"
        }
      ],
      "payable": false,
      "stateMutability": "view",
      "type": "function"
    },
    {
      "constant": true,
      "inputs": [
        {
          "name": "_owner",
          "type": "address"
        }
      ],
      "name": "balanceOf",
      "outputs": [
        {
          "name": "",
          "type": "uint256"
        }
      ],
      "payable": false,
      "stateMutability": "view",
      "type": "function"
    },
    {
      "constant": false,
      "inputs": [
        {
          "name": "_to",
          "type": "address"
        },
        {
          "name": "_tokenId",
          "type": "uint256"
        }
      ],
      "name": "transfer",
      "outputs": [],
      "payable": false,
      "stateMutability": "nonpayable",
      "type": "function"
    },
    {
      "constant": false,
      "inputs": [
        {
          "name": "_tokenId",
          "type": "uint256"
        }
      ],
      "name": "takeOwnership",
      "outputs": [],
      "payable": false,
      "stateMutability": "nonpayable",
      "type": "function"
    },
    {
      "inputs": [],
      "payable": false,
      "stateMutability": "nonpayable",
      "type": "constructor"
    },
    {
      "anonymous": false,
      "inputs": [
        {
          "indexed": false,
          "name": "tokenId",
          "type": "uint256"
        },
        {
          "indexed": false,
          "name": "supplier",
          "type": "address"
        },
        {
          "indexed": false,
          "name": "owner",
          "type": "address"
        }
      ],
      "name": "InvoiceMinted",
      "type": "event"
    },
    {
      "anonymous": false,
      "inputs": [
        {
          "indexed": true,
          "name": "_from",
          "type": "address"
        },
        {
          "indexed": true,
          "name": "_to",
          "type": "address"
        },
        {
          "indexed": false,
          "name": "_tokenId",
          "type": "uint256"
        }
      ],
      "name": "Transfer",
      "type": "event"
    },
    {
      "anonymous": false,
      "inputs": [
        {
          "indexed": true,
          "name": "_owner",
          "type": "address"
        },
        {
          "indexed": true,
          "name": "_approved",
          "type": "address"
        },
        {
          "indexed": false,
          "name": "_tokenId",
          "type": "uint256"
        }
      ],
      "name": "Approval",
      "type": "event"
    },
    {
      "constant": false,
      "inputs": [
        {
          "name": "_cred",
          "type": "address"
        }
      ],
      "name": "setCredentialManager",
      "outputs": [],
      "payable": false,
      "stateMutability": "nonpayable",
      "type": "function"
    },
    {
      "constant": false,
      "inputs": [
        {
          "name": "_to",
          "type": "address"
        },
        {
          "name": "_chainyCode",
          "type": "string"
        },
        {
          "name": "_supplier",
          "type": "address"
        },
        {
          "name": "_investor",
          "type": "address"
        },
        {
          "name": "_buyer",
          "type": "address"
        },
        {
          "name": "_percentageFunding",
          "type": "uint256"
        },
        {
          "name": "_percentageInterest",
          "type": "uint256"
        },
        {
          "name": "_iCommision",
          "type": "uint256"
        },
        {
          "name": "_sCommision",
          "type": "uint256"
        }
      ],
      "name": "mint",
      "outputs": [],
      "payable": false,
      "stateMutability": "nonpayable",
      "type": "function"
    },
    {
      "constant": false,
      "inputs": [
        {
          "name": "_tokenId",
          "type": "uint256"
        }
      ],
      "name": "burn",
      "outputs": [],
      "payable": false,
      "stateMutability": "nonpayable",
      "type": "function"
    },
    {
      "constant": true,
      "inputs": [],
      "name": "name",
      "outputs": [
        {
          "name": "",
          "type": "string"
        }
      ],
      "payable": false,
      "stateMutability": "view",
      "type": "function"
    },
    {
      "constant": true,
      "inputs": [],
      "name": "symbol",
      "outputs": [
        {
          "name": "",
          "type": "string"
        }
      ],
      "payable": false,
      "stateMutability": "view",
      "type": "function"
    },
    {
      "constant": true,
      "inputs": [
        {
          "name": "_tokenId",
          "type": "uint256"
        }
      ],
      "name": "tokenMetadata",
      "outputs": [
        {
          "name": "chainyUrl",
          "type": "string"
        },
        {
          "name": "supplier",
          "type": "address"
        },
        {
          "name": "investor",
          "type": "address"
        },
        {
          "name": "buyer",
          "type": "address"
        },
        {
          "name": "percentageFunding",
          "type": "uint256"
        },
        {
          "name": "percentageInterest",
          "type": "uint256"
        }
      ],
      "payable": false,
      "stateMutability": "view",
      "type": "function"
    }
  ],
  "bytecode": "0x6060604052341561000f57600080fd5b6000600660146101000a81548160ff021916908315150217905550611d83806100396000396000f3006060604052600436106100d0576000357c0100000000000000000000000000000000000000000000000000000000900463ffffffff16806306fdde03146100d5578063095ea7b31461016357806318160ddd146101a557806321e6652c146101ce5780632a6dd48f1461020757806342966c681461026a5780635a3f26721461028d5780636352211e1461031b5780636914db601461037e57806370a08231146104c157806395d89b411461050e578063a9059cbb1461059c578063ac728c71146105de578063b2e6ceeb146106db575b600080fd5b34156100e057600080fd5b6100e86106fe565b6040518080602001828103825283818151815260200191508051906020019080838360005b8381101561012857808201518184015260208101905061010d565b50505050905090810190601f1680156101555780820380516001836020036101000a031916815260200191505b509250505060405180910390f35b341561016e57600080fd5b6101a3600480803573ffffffffffffffffffffffffffffffffffffffff16906020019091908035906020019091905050610741565b005b34156101b057600080fd5b6101b86108d4565b6040518082815260200191505060405180910390f35b34156101d957600080fd5b610205600480803573ffffffffffffffffffffffffffffffffffffffff169060200190919050506108dd565b005b341561021257600080fd5b6102286004808035906020019091905050610958565b604051808273ffffffffffffffffffffffffffffffffffffffff1673ffffffffffffffffffffffffffffffffffffffff16815260200191505060405180910390f35b341561027557600080fd5b61028b6004808035906020019091905050610995565b005b341561029857600080fd5b6102c4600480803573ffffffffffffffffffffffffffffffffffffffff169060200190919050506109a1565b6040518080602001828103825283818151815260200191508051906020019060200280838360005b838110156103075780820151818401526020810190506102ec565b505050509050019250505060405180910390f35b341561032657600080fd5b61033c6004808035906020019091905050610a3e565b604051808273ffffffffffffffffffffffffffffffffffffffff1673ffffffffffffffffffffffffffffffffffffffff16815260200191505060405180910390f35b341561038957600080fd5b61039f6004808035906020019091905050610abc565b60405180806020018773ffffffffffffffffffffffffffffffffffffffff1673ffffffffffffffffffffffffffffffffffffffff1681526020018673ffffffffffffffffffffffffffffffffffffffff1673ffffffffffffffffffffffffffffffffffffffff1681526020018573ffffffffffffffffffffffffffffffffffffffff1673ffffffffffffffffffffffffffffffffffffffff168152602001848152602001838152602001828103825288818151815260200191508051906020019080838360005b83811015610481578082015181840152602081019050610466565b50505050905090810190601f1680156104ae5780820380516001836020036101000a031916815260200191505b5097505050505050505060405180910390f35b34156104cc57600080fd5b6104f8600480803573ffffffffffffffffffffffffffffffffffffffff16906020019091905050610f4e565b6040518082815260200191505060405180910390f35b341561051957600080fd5b610521610f9a565b6040518080602001828103825283818151815260200191508051906020019080838360005b83811015610561578082015181840152602081019050610546565b50505050905090810190601f16801561058e5780820380516001836020036101000a031916815260200191505b509250505060405180910390f35b34156105a757600080fd5b6105dc600480803573ffffffffffffffffffffffffffffffffffffffff16906020019091908035906020019091905050610fdd565b005b34156105e957600080fd5b6106d9600480803573ffffffffffffffffffffffffffffffffffffffff1690602001909190803590602001908201803590602001908080601f0160208091040260200160405190810160405280939291908181526020018383808284378201915050505050509190803573ffffffffffffffffffffffffffffffffffffffff1690602001909190803573ffffffffffffffffffffffffffffffffffffffff1690602001909190803573ffffffffffffffffffffffffffffffffffffffff16906020019091908035906020019091908035906020019091908035906020019091908035906020019091905050611030565b005b34156106e657600080fd5b6106fc60048080359060200190919050506113fc565b005b610706611c32565b6040805190810160405280600d81526020017f496e766f69636520546f6b656e00000000000000000000000000000000000000815250905090565b6000813373ffffffffffffffffffffffffffffffffffffffff1661076482610a3e565b73ffffffffffffffffffffffffffffffffffffffff1614151561078657600080fd5b61078f83610a3e565b91508173ffffffffffffffffffffffffffffffffffffffff168473ffffffffffffffffffffffffffffffffffffffff16141515156107cc57600080fd5b60006107d784610958565b73ffffffffffffffffffffffffffffffffffffffff16141580610811575060008473ffffffffffffffffffffffffffffffffffffffff1614155b156108ce57836002600085815260200190815260200160002060006101000a81548173ffffffffffffffffffffffffffffffffffffffff021916908373ffffffffffffffffffffffffffffffffffffffff1602179055508373ffffffffffffffffffffffffffffffffffffffff168273ffffffffffffffffffffffffffffffffffffffff167f8c5be1e5ebec7d5bd14f71427d1e84f3dd0314c0f7b2291e5b200ac8c7c3b925856040518082815260200191505060405180910390a35b50505050565b60008054905090565b600660149054906101000a900460ff161515156108f957600080fd5b80600660006101000a81548173ffffffffffffffffffffffffffffffffffffffff021916908373ffffffffffffffffffffffffffffffffffffffff1602179055506001600660146101000a81548160ff02191690831515021790555050565b60006002600083815260200190815260200160002060009054906101000a900473ffffffffffffffffffffffffffffffffffffffff169050919050565b61099e81611427565b50565b6109a9611c46565b600360008373ffffffffffffffffffffffffffffffffffffffff1673ffffffffffffffffffffffffffffffffffffffff168152602001908152602001600020805480602002602001604051908101604052809291908181526020018280548015610a3257602002820191906000526020600020905b815481526020019060010190808311610a1e575b50505050509050919050565b6000806001600084815260200190815260200160002060009054906101000a900473ffffffffffffffffffffffffffffffffffffffff169050600073ffffffffffffffffffffffffffffffffffffffff168173ffffffffffffffffffffffffffffffffffffffff1614151515610ab357600080fd5b80915050919050565b610ac4611c32565b6000806000806000600115156007600089815260200190815260200160002060003373ffffffffffffffffffffffffffffffffffffffff1673ffffffffffffffffffffffffffffffffffffffff16815260200190815260200160002060009054906101000a900460ff1615151415610ccc57600560008881526020019081526020016000206000016005600089815260200190815260200160002060010160009054906101000a900473ffffffffffffffffffffffffffffffffffffffff16600560008a815260200190815260200160002060030160009054906101000a900473ffffffffffffffffffffffffffffffffffffffff16600560008b815260200190815260200160002060020160009054906101000a900473ffffffffffffffffffffffffffffffffffffffff16600560008c815260200190815260200160002060040154600560008d815260200190815260200160002060050154858054600181600116156101000203166002900480601f016020809104026020016040519081016040528092919081815260200182805460018160011615610100020316600290048015610cb45780601f10610c8957610100808354040283529160200191610cb4565b820191906000526020600020905b815481529060010190602001808311610c9757829003601f168201915b50505050509550955095509550955095509550610f45565b600660009054906101000a900473ffffffffffffffffffffffffffffffffffffffff1673ffffffffffffffffffffffffffffffffffffffff1663559b7bdc6000336040518363ffffffff167c0100000000000000000000000000000000000000000000000000000000028152600401808381526020018273ffffffffffffffffffffffffffffffffffffffff1673ffffffffffffffffffffffffffffffffffffffff16815260200192505050602060405180830381600087803b1515610d9157600080fd5b5af11515610d9e57600080fd5b505050604051805190501515610db357600080fd5b600560008881526020019081526020016000206000016005600089815260200190815260200160002060010160009054906101000a900473ffffffffffffffffffffffffffffffffffffffff16600560008a815260200190815260200160002060030160009054906101000a900473ffffffffffffffffffffffffffffffffffffffff16600560008b815260200190815260200160002060020160009054906101000a900473ffffffffffffffffffffffffffffffffffffffff16600560008c815260200190815260200160002060040154600560008d815260200190815260200160002060050154858054600181600116156101000203166002900480601f016020809104026020016040519081016040528092919081815260200182805460018160011615610100020316600290048015610f315780601f10610f0657610100808354040283529160200191610f31565b820191906000526020600020905b815481529060010190602001808311610f1457829003601f168201915b505050505095509550955095509550955095505b91939550919395565b6000600360008373ffffffffffffffffffffffffffffffffffffffff1673ffffffffffffffffffffffffffffffffffffffff168152602001908152602001600020805490509050919050565b610fa2611c32565b6040805190810160405280600381526020017f494e560000000000000000000000000000000000000000000000000000000000815250905090565b803373ffffffffffffffffffffffffffffffffffffffff16610ffe82610a3e565b73ffffffffffffffffffffffffffffffffffffffff1614151561102057600080fd5b61102b3384846114fb565b505050565b60008773ffffffffffffffffffffffffffffffffffffffff163373ffffffffffffffffffffffffffffffffffffffff1614151561106c57600080fd5b6110746108d4565b90506110808a82611644565b886005600083815260200190815260200160002060000190805190602001906110aa929190611c5a565b50876005600083815260200190815260200160002060010160006101000a81548173ffffffffffffffffffffffffffffffffffffffff021916908373ffffffffffffffffffffffffffffffffffffffff160217905550856005600083815260200190815260200160002060020160006101000a81548173ffffffffffffffffffffffffffffffffffffffff021916908373ffffffffffffffffffffffffffffffffffffffff160217905550866005600083815260200190815260200160002060030160006101000a81548173ffffffffffffffffffffffffffffffffffffffff021916908373ffffffffffffffffffffffffffffffffffffffff16021790555084600560008381526020019081526020016000206004018190555083600560008381526020019081526020016000206005018190555082600560008381526020019081526020016000206006018190555081600560008381526020019081526020016000206007018190555060016007600083815260200190815260200160002060008a73ffffffffffffffffffffffffffffffffffffffff1673ffffffffffffffffffffffffffffffffffffffff16815260200190815260200160002060006101000a81548160ff02191690831515021790555060016007600083815260200190815260200160002060008973ffffffffffffffffffffffffffffffffffffffff1673ffffffffffffffffffffffffffffffffffffffff16815260200190815260200160002060006101000a81548160ff02191690831515021790555060016007600083815260200190815260200160002060008873ffffffffffffffffffffffffffffffffffffffff1673ffffffffffffffffffffffffffffffffffffffff16815260200190815260200160002060006101000a81548160ff0219169083151502179055507fa740a7a3e7e1123be2162092626c56c3362aca4addd8f22e803143145c04c00f81898c604051808481526020018373ffffffffffffffffffffffffffffffffffffffff1673ffffffffffffffffffffffffffffffffffffffff1681526020018273ffffffffffffffffffffffffffffffffffffffff1673ffffffffffffffffffffffffffffffffffffffff168152602001935050505060405180910390a150505050505050505050565b61140633826116de565b151561141157600080fd5b61142461141d82610a3e565b33836114fb565b50565b803373ffffffffffffffffffffffffffffffffffffffff1661144882610a3e565b73ffffffffffffffffffffffffffffffffffffffff1614151561146a57600080fd5b600061147583610958565b73ffffffffffffffffffffffffffffffffffffffff1614151561149d5761149c338361171f565b5b6114a73383611808565b60003373ffffffffffffffffffffffffffffffffffffffff167fddf252ad1be2c89b69c2b068fc378daa952ba7f163c4a11628f55a4df523b3ef846040518082815260200191505060405180910390a35050565b600073ffffffffffffffffffffffffffffffffffffffff168273ffffffffffffffffffffffffffffffffffffffff161415151561153757600080fd5b61154081610a3e565b73ffffffffffffffffffffffffffffffffffffffff168273ffffffffffffffffffffffffffffffffffffffff161415151561157a57600080fd5b8273ffffffffffffffffffffffffffffffffffffffff1661159a82610a3e565b73ffffffffffffffffffffffffffffffffffffffff161415156115bc57600080fd5b6115c6838261171f565b6115d08382611808565b6115da8282611a90565b8173ffffffffffffffffffffffffffffffffffffffff168373ffffffffffffffffffffffffffffffffffffffff167fddf252ad1be2c89b69c2b068fc378daa952ba7f163c4a11628f55a4df523b3ef836040518082815260200191505060405180910390a3505050565b600073ffffffffffffffffffffffffffffffffffffffff168273ffffffffffffffffffffffffffffffffffffffff161415151561168057600080fd5b61168a8282611a90565b8173ffffffffffffffffffffffffffffffffffffffff1660007fddf252ad1be2c89b69c2b068fc378daa952ba7f163c4a11628f55a4df523b3ef836040518082815260200191505060405180910390a35050565b60008273ffffffffffffffffffffffffffffffffffffffff1661170083610958565b73ffffffffffffffffffffffffffffffffffffffff1614905092915050565b8173ffffffffffffffffffffffffffffffffffffffff1661173f82610a3e565b73ffffffffffffffffffffffffffffffffffffffff1614151561176157600080fd5b60006002600083815260200190815260200160002060006101000a81548173ffffffffffffffffffffffffffffffffffffffff021916908373ffffffffffffffffffffffffffffffffffffffff16021790555060008273ffffffffffffffffffffffffffffffffffffffff167f8c5be1e5ebec7d5bd14f71427d1e84f3dd0314c0f7b2291e5b200ac8c7c3b925836040518082815260200191505060405180910390a35050565b60008060008473ffffffffffffffffffffffffffffffffffffffff1661182d85610a3e565b73ffffffffffffffffffffffffffffffffffffffff1614151561184f57600080fd5b60046000858152602001908152602001600020549250611881600161187387610f4e565b611bfb90919063ffffffff16565b9150600360008673ffffffffffffffffffffffffffffffffffffffff1673ffffffffffffffffffffffffffffffffffffffff168152602001908152602001600020828154811015156118cf57fe5b906000526020600020900154905060006001600086815260200190815260200160002060006101000a81548173ffffffffffffffffffffffffffffffffffffffff021916908373ffffffffffffffffffffffffffffffffffffffff16021790555080600360008773ffffffffffffffffffffffffffffffffffffffff1673ffffffffffffffffffffffffffffffffffffffff1681526020019081526020016000208481548110151561197d57fe5b9060005260206000209001819055506000600360008773ffffffffffffffffffffffffffffffffffffffff1673ffffffffffffffffffffffffffffffffffffffff168152602001908152602001600020838154811015156119da57fe5b906000526020600020900181905550600360008673ffffffffffffffffffffffffffffffffffffffff1673ffffffffffffffffffffffffffffffffffffffff168152602001908152602001600020805480919060019003611a3b9190611cda565b5060006004600086815260200190815260200160002081905550826004600083815260200190815260200160002081905550611a836001600054611bfb90919063ffffffff16565b6000819055505050505050565b60008073ffffffffffffffffffffffffffffffffffffffff166001600084815260200190815260200160002060009054906101000a900473ffffffffffffffffffffffffffffffffffffffff1673ffffffffffffffffffffffffffffffffffffffff16141515611aff57600080fd5b826001600084815260200190815260200160002060006101000a81548173ffffffffffffffffffffffffffffffffffffffff021916908373ffffffffffffffffffffffffffffffffffffffff160217905550611b5a83610f4e565b9050600360008473ffffffffffffffffffffffffffffffffffffffff1673ffffffffffffffffffffffffffffffffffffffff1681526020019081526020016000208054806001018281611bad9190611d06565b916000526020600020900160008490919091505550806004600084815260200190815260200160002081905550611bf06001600054611c1490919063ffffffff16565b600081905550505050565b6000828211151515611c0957fe5b818303905092915050565b6000808284019050838110151515611c2857fe5b8091505092915050565b602060405190810160405280600081525090565b602060405190810160405280600081525090565b828054600181600116156101000203166002900490600052602060002090601f016020900481019282601f10611c9b57805160ff1916838001178555611cc9565b82800160010185558215611cc9579182015b82811115611cc8578251825591602001919060010190611cad565b5b509050611cd69190611d32565b5090565b815481835581811511611d0157818360005260206000209182019101611d009190611d32565b5b505050565b815481835581811511611d2d57818360005260206000209182019101611d2c9190611d32565b5b505050565b611d5491905b80821115611d50576000816000905550600101611d38565b5090565b905600a165627a7a7230582083efcbf58b325b1806fd02950ef1347c70c6949ed4ac3ee15ba588839fb14ba10029",
  "source": "pragma solidity ^0.4.18;\r\n\r\nimport \"./ERC721Token.sol\";\r\nimport \"./CredentialManager.sol\";\r\n\r\ncontract InvoiceToken is ERC721Token {\r\n\r\n    struct Invoice {\r\n        string chainy;\r\n        address supplier;\r\n        address buyer;\r\n        address investor;\r\n        uint percentageFunding;\r\n        uint percentageInterest;\r\n        uint iCommision;\r\n        uint sCommision;\r\n    }\r\n    \r\n    string constant private TOKENNAME = \"Invoice Token\";\r\n    string constant private TOKENSYMBOL = \"INV\";\r\n    mapping (uint256 => Invoice) private invoiceMetadata;\r\n    \r\n    CredentialManager private credentialManager;\r\n    bool private isCredentialManagerSet;\r\n    mapping (uint256 => mapping(address => bool)) private invoiceAccess;\r\n    \r\n    event InvoiceMinted(uint tokenId, address supplier, address owner);\r\n\r\n    function InvoiceToken () {\r\n        isCredentialManagerSet = false;\r\n    }\r\n\r\n    function setCredentialManager(address _cred) public {\r\n        require(!isCredentialManagerSet);\r\n        credentialManager = CredentialManager(_cred);\r\n        isCredentialManagerSet = true;\r\n    }\r\n\r\n    function mint(address _to, string _chainyCode, address _supplier, address _investor, address _buyer, uint _percentageFunding, uint _percentageInterest, uint _iCommision, uint _sCommision) public {\r\n        require(msg.sender == _supplier);\r\n        uint last = totalSupply();\r\n        super._mint(_to, last);\r\n        invoiceMetadata[last].chainy = _chainyCode;\r\n        invoiceMetadata[last].supplier = _supplier;\r\n        invoiceMetadata[last].buyer = _buyer;\r\n        invoiceMetadata[last].investor = _investor;\r\n        invoiceMetadata[last].percentageFunding = _percentageFunding;\r\n        invoiceMetadata[last].percentageInterest = _percentageInterest;\r\n\r\n        invoiceMetadata[last].iCommision = _iCommision;\r\n        invoiceMetadata[last].sCommision = _sCommision;\r\n\r\n        invoiceAccess[last][_supplier] = true;\r\n        invoiceAccess[last][_investor] = true;\r\n        invoiceAccess[last][_buyer] = true;\r\n        InvoiceMinted(last,_supplier,_to);\r\n    }\r\n\r\n    function burn(uint256 _tokenId) public {\r\n        super._burn(_tokenId);\r\n    }\r\n\r\n    function name() public constant returns (string) {\r\n        return TOKENNAME;\r\n    }\r\n\r\n    function symbol() public constant returns (string) {\r\n        return TOKENSYMBOL;\r\n    }\r\n    \r\n    function tokenMetadata(uint256 _tokenId) public constant returns (string chainyUrl, address supplier, address investor, address buyer, uint percentageFunding, uint percentageInterest) {\r\n        if (invoiceAccess[_tokenId][msg.sender] == true) {\r\n            return \r\n            (\r\n                invoiceMetadata[_tokenId].chainy,\r\n                invoiceMetadata[_tokenId].supplier,\r\n                invoiceMetadata[_tokenId].investor,\r\n                invoiceMetadata[_tokenId].buyer,\r\n                invoiceMetadata[_tokenId].percentageFunding,\r\n                invoiceMetadata[_tokenId].percentageInterest\r\n            );\r\n        } else {\r\n            require(credentialManager.isInRole(0,msg.sender));\r\n            return \r\n            (\r\n                invoiceMetadata[_tokenId].chainy,\r\n                invoiceMetadata[_tokenId].supplier,\r\n                invoiceMetadata[_tokenId].investor,\r\n                invoiceMetadata[_tokenId].buyer,\r\n                invoiceMetadata[_tokenId].percentageFunding,\r\n                invoiceMetadata[_tokenId].percentageInterest\r\n            );\r\n        }\r\n    }\r\n}",
  "sourcePath": "C:\\Side\\dnb\\smartinvoice\\contracts\\InvoiceToken.sol",
  "compiler": {
    "name": "solc",
    "version": "0.4.21+commit.dfe3193c.Emscripten.clang"
  },
  "schemaVersion": "2.0.0",
  "updatedAt": "2018-05-29T15:09:06.673Z"
}