{
  "contractName": "InvoiceToken",
  "abi": [
    {
      "constant": true,
      "inputs": [],
      "name": "name",
      "outputs": [
        {
          "name": "",
          "type": "string"
        }
      ],
      "payable": false,
      "stateMutability": "view",
      "type": "function"
    },
    {
      "constant": false,
      "inputs": [
        {
          "name": "_to",
          "type": "address"
        },
        {
          "name": "_tokenId",
          "type": "uint256"
        }
      ],
      "name": "approve",
      "outputs": [],
      "payable": false,
      "stateMutability": "nonpayable",
      "type": "function"
    },
    {
      "constant": true,
      "inputs": [],
      "name": "totalSupply",
      "outputs": [
        {
          "name": "",
          "type": "uint256"
        }
      ],
      "payable": false,
      "stateMutability": "view",
      "type": "function"
    },
    {
      "constant": true,
      "inputs": [
        {
          "name": "_tokenId",
          "type": "uint256"
        }
      ],
      "name": "approvedFor",
      "outputs": [
        {
          "name": "",
          "type": "address"
        }
      ],
      "payable": false,
      "stateMutability": "view",
      "type": "function"
    },
    {
      "constant": false,
      "inputs": [
        {
          "name": "_to",
          "type": "address"
        },
        {
          "name": "_tokenId",
          "type": "uint256"
        }
      ],
      "name": "mint",
      "outputs": [
        {
          "name": "",
          "type": "uint256[]"
        }
      ],
      "payable": false,
      "stateMutability": "nonpayable",
      "type": "function"
    },
    {
      "constant": false,
      "inputs": [
        {
          "name": "_tokenId",
          "type": "uint256"
        }
      ],
      "name": "burn",
      "outputs": [
        {
          "name": "",
          "type": "address"
        }
      ],
      "payable": false,
      "stateMutability": "nonpayable",
      "type": "function"
    },
    {
      "constant": true,
      "inputs": [
        {
          "name": "_owner",
          "type": "address"
        }
      ],
      "name": "tokensOf",
      "outputs": [
        {
          "name": "",
          "type": "uint256[]"
        }
      ],
      "payable": false,
      "stateMutability": "view",
      "type": "function"
    },
    {
      "constant": true,
      "inputs": [
        {
          "name": "_tokenId",
          "type": "uint256"
        }
      ],
      "name": "ownerOf",
      "outputs": [
        {
          "name": "",
          "type": "address"
        }
      ],
      "payable": false,
      "stateMutability": "view",
      "type": "function"
    },
    {
      "constant": true,
      "inputs": [
        {
          "name": "_tokenId",
          "type": "uint256"
        }
      ],
      "name": "tokenMetadata",
      "outputs": [
        {
          "name": "chainyUrl",
          "type": "string"
        }
      ],
      "payable": false,
      "stateMutability": "view",
      "type": "function"
    },
    {
      "constant": true,
      "inputs": [
        {
          "name": "_owner",
          "type": "address"
        },
        {
          "name": "_tokenId",
          "type": "uint256"
        }
      ],
      "name": "balanceOf",
      "outputs": [
        {
          "name": "",
          "type": "uint256"
        }
      ],
      "payable": false,
      "stateMutability": "view",
      "type": "function"
    },
    {
      "constant": true,
      "inputs": [
        {
          "name": "_tokenId",
          "type": "uint256"
        }
      ],
      "name": "symbol",
      "outputs": [
        {
          "name": "",
          "type": "string"
        }
      ],
      "payable": false,
      "stateMutability": "view",
      "type": "function"
    },
    {
      "inputs": [
        {
          "name": "_to",
          "type": "address"
        },
        {
          "name": "_tokenId",
          "type": "uint256"
        }
      ],
      "payable": false,
      "stateMutability": "nonpayable",
      "type": "function",
      "constant": false,
      "name": "transfer",
      "outputs": []
    },
    {
      "anonymous": false,
      "inputs": [
        {
          "indexed": true,
          "name": "_tokenId",
          "type": "uint256"
        },
        {
          "indexed": true,
          "name": "_to",
          "type": "address"
        },
        {
          "indexed": false,
          "name": "_tokenId",
          "type": "uint256"
        }
      ],
      "name": "takeOwnership",
      "type": "function",
      "constant": false,
      "outputs": [],
      "payable": false,
      "stateMutability": "nonpayable"
    },
    {
      "anonymous": false,
      "inputs": [
        {
          "indexed": true,
          "name": "_owner",
          "type": "address"
        },
        {
          "indexed": true,
          "name": "_approved",
          "type": "address"
        },
        {
          "indexed": false,
          "name": "_tokenId",
          "type": "uint256"
        }
      ],
      "name": "Approval",
      "type": "constructor",
      "payable": false,
      "stateMutability": "nonpayable"
    },
    {
      "anonymous": false,
      "inputs": [
        {
          "indexed": true,
          "name": "_from",
          "type": "address"
        },
        {
          "indexed": true,
          "name": "_to",
          "type": "address"
        },
        {
          "indexed": false,
          "name": "_tokenId",
          "type": "uint256"
        }
      ],
      "name": "Transfer",
      "type": "event"
    },
    {
      "anonymous": false,
      "inputs": [
        {
          "indexed": true,
          "name": "_owner",
          "type": "address"
        },
        {
          "indexed": true,
          "name": "_approved",
          "type": "address"
        },
        {
          "indexed": false,
          "name": "_tokenId",
          "type": "uint256"
        }
      ],
      "name": "Approval",
      "type": "event"
    }
  ],
  "bytecode": "0x6060604052341561000f57600080fd5b61134d8061001e6000396000f3006060604052600436106100c5576000357c0100000000000000000000000000000000000000000000000000000000900463ffffffff16806306fdde03146100ca578063095ea7b31461015857806318160ddd1461019a5780632a6dd48f146101c357806340c10f191461022657806342966c68146102685780635a3f26721461028b5780636352211e146103195780636914db601461037c57806370a082311461041857806395d89b4114610465578063a9059cbb146104f3578063b2e6ceeb14610535575b600080fd5b34156100d557600080fd5b6100dd610558565b6040518080602001828103825283818151815260200191508051906020019080838360005b8381101561011d578082015181840152602081019050610102565b50505050905090810190601f16801561014a5780820380516001836020036101000a031916815260200191505b509250505060405180910390f35b341561016357600080fd5b610198600480803573ffffffffffffffffffffffffffffffffffffffff1690602001909190803590602001909190505061059b565b005b34156101a557600080fd5b6101ad61072e565b6040518082815260200191505060405180910390f35b34156101ce57600080fd5b6101e46004808035906020019091905050610737565b604051808273ffffffffffffffffffffffffffffffffffffffff1673ffffffffffffffffffffffffffffffffffffffff16815260200191505060405180910390f35b341561023157600080fd5b610266600480803573ffffffffffffffffffffffffffffffffffffffff16906020019091908035906020019091905050610774565b005b341561027357600080fd5b6102896004808035906020019091905050610782565b005b341561029657600080fd5b6102c2600480803573ffffffffffffffffffffffffffffffffffffffff1690602001909190505061078e565b6040518080602001828103825283818151815260200191508051906020019060200280838360005b838110156103055780820151818401526020810190506102ea565b505050509050019250505060405180910390f35b341561032457600080fd5b61033a600480803590602001909190505061082b565b604051808273ffffffffffffffffffffffffffffffffffffffff1673ffffffffffffffffffffffffffffffffffffffff16815260200191505060405180910390f35b341561038757600080fd5b61039d60048080359060200190919050506108a9565b6040518080602001828103825283818151815260200191508051906020019080838360005b838110156103dd5780820151818401526020810190506103c2565b50505050905090810190601f16801561040a5780820380516001836020036101000a031916815260200191505b509250505060405180910390f35b341561042357600080fd5b61044f600480803573ffffffffffffffffffffffffffffffffffffffff16906020019091905050610964565b6040518082815260200191505060405180910390f35b341561047057600080fd5b6104786109b0565b6040518080602001828103825283818151815260200191508051906020019080838360005b838110156104b857808201518184015260208101905061049d565b50505050905090810190601f1680156104e55780820380516001836020036101000a031916815260200191505b509250505060405180910390f35b34156104fe57600080fd5b610533600480803573ffffffffffffffffffffffffffffffffffffffff169060200190919080359060200190919050506109f3565b005b341561054057600080fd5b6105566004808035906020019091905050610a46565b005b61056061127c565b6040805190810160405280600d81526020017f496e766f69636520546f6b656e00000000000000000000000000000000000000815250905090565b6000813373ffffffffffffffffffffffffffffffffffffffff166105be8261082b565b73ffffffffffffffffffffffffffffffffffffffff161415156105e057600080fd5b6105e98361082b565b91508173ffffffffffffffffffffffffffffffffffffffff168473ffffffffffffffffffffffffffffffffffffffff161415151561062657600080fd5b600061063184610737565b73ffffffffffffffffffffffffffffffffffffffff1614158061066b575060008473ffffffffffffffffffffffffffffffffffffffff1614155b1561072857836002600085815260200190815260200160002060006101000a81548173ffffffffffffffffffffffffffffffffffffffff021916908373ffffffffffffffffffffffffffffffffffffffff1602179055508373ffffffffffffffffffffffffffffffffffffffff168273ffffffffffffffffffffffffffffffffffffffff167f8c5be1e5ebec7d5bd14f71427d1e84f3dd0314c0f7b2291e5b200ac8c7c3b925856040518082815260200191505060405180910390a35b50505050565b60008054905090565b60006002600083815260200190815260200160002060009054906101000a900473ffffffffffffffffffffffffffffffffffffffff169050919050565b61077e8282610a71565b5050565b61078b81610b0b565b50565b610796611290565b600360008373ffffffffffffffffffffffffffffffffffffffff1673ffffffffffffffffffffffffffffffffffffffff16815260200190815260200160002080548060200260200160405190810160405280929190818152602001828054801561081f57602002820191906000526020600020905b81548152602001906001019080831161080b575b50505050509050919050565b6000806001600084815260200190815260200160002060009054906101000a900473ffffffffffffffffffffffffffffffffffffffff169050600073ffffffffffffffffffffffffffffffffffffffff168173ffffffffffffffffffffffffffffffffffffffff16141515156108a057600080fd5b80915050919050565b6108b161127c565b600560008381526020019081526020016000208054600181600116156101000203166002900480601f0160208091040260200160405190810160405280929190818152602001828054600181600116156101000203166002900480156109585780601f1061092d57610100808354040283529160200191610958565b820191906000526020600020905b81548152906001019060200180831161093b57829003601f168201915b50505050509050919050565b6000600360008373ffffffffffffffffffffffffffffffffffffffff1673ffffffffffffffffffffffffffffffffffffffff168152602001908152602001600020805490509050919050565b6109b861127c565b6040805190810160405280600381526020017f494e560000000000000000000000000000000000000000000000000000000000815250905090565b803373ffffffffffffffffffffffffffffffffffffffff16610a148261082b565b73ffffffffffffffffffffffffffffffffffffffff16141515610a3657600080fd5b610a41338484610bdf565b505050565b610a503382610d28565b1515610a5b57600080fd5b610a6e610a678261082b565b3383610bdf565b50565b600073ffffffffffffffffffffffffffffffffffffffff168273ffffffffffffffffffffffffffffffffffffffff1614151515610aad57600080fd5b610ab78282610d69565b8173ffffffffffffffffffffffffffffffffffffffff1660007fddf252ad1be2c89b69c2b068fc378daa952ba7f163c4a11628f55a4df523b3ef836040518082815260200191505060405180910390a35050565b803373ffffffffffffffffffffffffffffffffffffffff16610b2c8261082b565b73ffffffffffffffffffffffffffffffffffffffff16141515610b4e57600080fd5b6000610b5983610737565b73ffffffffffffffffffffffffffffffffffffffff16141515610b8157610b803383610ed4565b5b610b8b3383610fbd565b60003373ffffffffffffffffffffffffffffffffffffffff167fddf252ad1be2c89b69c2b068fc378daa952ba7f163c4a11628f55a4df523b3ef846040518082815260200191505060405180910390a35050565b600073ffffffffffffffffffffffffffffffffffffffff168273ffffffffffffffffffffffffffffffffffffffff1614151515610c1b57600080fd5b610c248161082b565b73ffffffffffffffffffffffffffffffffffffffff168273ffffffffffffffffffffffffffffffffffffffff1614151515610c5e57600080fd5b8273ffffffffffffffffffffffffffffffffffffffff16610c7e8261082b565b73ffffffffffffffffffffffffffffffffffffffff16141515610ca057600080fd5b610caa8382610ed4565b610cb48382610fbd565b610cbe8282610d69565b8173ffffffffffffffffffffffffffffffffffffffff168373ffffffffffffffffffffffffffffffffffffffff167fddf252ad1be2c89b69c2b068fc378daa952ba7f163c4a11628f55a4df523b3ef836040518082815260200191505060405180910390a3505050565b60008273ffffffffffffffffffffffffffffffffffffffff16610d4a83610737565b73ffffffffffffffffffffffffffffffffffffffff1614905092915050565b60008073ffffffffffffffffffffffffffffffffffffffff166001600084815260200190815260200160002060009054906101000a900473ffffffffffffffffffffffffffffffffffffffff1673ffffffffffffffffffffffffffffffffffffffff16141515610dd857600080fd5b826001600084815260200190815260200160002060006101000a81548173ffffffffffffffffffffffffffffffffffffffff021916908373ffffffffffffffffffffffffffffffffffffffff160217905550610e3383610964565b9050600360008473ffffffffffffffffffffffffffffffffffffffff1673ffffffffffffffffffffffffffffffffffffffff1681526020019081526020016000208054806001018281610e8691906112a4565b916000526020600020900160008490919091505550806004600084815260200190815260200160002081905550610ec9600160005461124590919063ffffffff16565b600081905550505050565b8173ffffffffffffffffffffffffffffffffffffffff16610ef48261082b565b73ffffffffffffffffffffffffffffffffffffffff16141515610f1657600080fd5b60006002600083815260200190815260200160002060006101000a81548173ffffffffffffffffffffffffffffffffffffffff021916908373ffffffffffffffffffffffffffffffffffffffff16021790555060008273ffffffffffffffffffffffffffffffffffffffff167f8c5be1e5ebec7d5bd14f71427d1e84f3dd0314c0f7b2291e5b200ac8c7c3b925836040518082815260200191505060405180910390a35050565b60008060008473ffffffffffffffffffffffffffffffffffffffff16610fe28561082b565b73ffffffffffffffffffffffffffffffffffffffff1614151561100457600080fd5b60046000858152602001908152602001600020549250611036600161102887610964565b61126390919063ffffffff16565b9150600360008673ffffffffffffffffffffffffffffffffffffffff1673ffffffffffffffffffffffffffffffffffffffff1681526020019081526020016000208281548110151561108457fe5b906000526020600020900154905060006001600086815260200190815260200160002060006101000a81548173ffffffffffffffffffffffffffffffffffffffff021916908373ffffffffffffffffffffffffffffffffffffffff16021790555080600360008773ffffffffffffffffffffffffffffffffffffffff1673ffffffffffffffffffffffffffffffffffffffff1681526020019081526020016000208481548110151561113257fe5b9060005260206000209001819055506000600360008773ffffffffffffffffffffffffffffffffffffffff1673ffffffffffffffffffffffffffffffffffffffff1681526020019081526020016000208381548110151561118f57fe5b906000526020600020900181905550600360008673ffffffffffffffffffffffffffffffffffffffff1673ffffffffffffffffffffffffffffffffffffffff1681526020019081526020016000208054809190600190036111f091906112d0565b5060006004600086815260200190815260200160002081905550826004600083815260200190815260200160002081905550611238600160005461126390919063ffffffff16565b6000819055505050505050565b600080828401905083811015151561125957fe5b8091505092915050565b600082821115151561127157fe5b818303905092915050565b602060405190810160405280600081525090565b602060405190810160405280600081525090565b8154818355818115116112cb578183600052602060002091820191016112ca91906112fc565b5b505050565b8154818355818115116112f7578183600052602060002091820191016112f691906112fc565b5b505050565b61131e91905b8082111561131a576000816000905550600101611302565b5090565b905600a165627a7a7230582035bab40163bad2762cfc625e3a57a3e18db81428b75cd1db9e3eb8657106755f0029",
  "source": "pragma solidity ^0.4.18;\r\n\r\nimport \"./ERC721Token.sol\";\r\n\r\ncontract InvoiceToken is ERC721Token {\r\n    \r\n    string constant private TOKENNAME = \"Invoice Token\";\r\n    string constant private TOKENSYMBOL = \"INV\";\r\n    mapping (uint256 => string) private tokenLinks;\r\n\r\n    function InvoiceToken () {\r\n\r\n    }\r\n    \r\n    function mint(address _to, uint256 _tokenId) public {\r\n        super._mint(_to, _tokenId);\r\n    }\r\n\r\n    function burn(uint256 _tokenId) public {\r\n        super._burn(_tokenId);\r\n    }\r\n\r\n    function name() public constant returns (string) {\r\n        return TOKENNAME;\r\n    }\r\n    function symbol() public constant returns (string) {\r\n        return TOKENSYMBOL;\r\n    }\r\n    \r\n   function tokenMetadata(uint256 _tokenId) constant returns (string chainyUrl) {\r\n       return tokenLinks[_tokenId];\r\n   }\r\n}",
  "sourcePath": "C:\\Side\\dnb\\smartinvoice\\contracts\\InvoiceToken.sol",
  "compiler": {
    "name": "solc",
    "version": "0.4.18+commit.9cf6e910.Emscripten.clang"
  },
  "schemaVersion": "1.0.1",
  "updatedAt": "2018-03-13T10:51:47.610Z"
}