{
  "contractName": "InvoiceToken",
  "abi": [
    {
      "constant": true,
      "inputs": [],
      "name": "name",
      "outputs": [
        {
          "name": "",
          "type": "string"
        }
      ],
      "payable": false,
      "stateMutability": "view",
      "type": "function"
    },
    {
      "constant": false,
      "inputs": [
        {
          "name": "_to",
          "type": "address"
        },
        {
          "name": "_tokenId",
          "type": "uint256"
        }
      ],
      "name": "approve",
      "outputs": [],
      "payable": false,
      "stateMutability": "nonpayable",
      "type": "function"
    },
    {
      "constant": true,
      "inputs": [],
      "name": "totalSupply",
      "outputs": [
        {
          "name": "",
          "type": "uint256"
        }
      ],
      "payable": false,
      "stateMutability": "view",
      "type": "function"
    },
    {
      "constant": false,
      "inputs": [
        {
          "name": "_cred",
          "type": "address"
        }
      ],
      "name": "setCredentialManager",
      "outputs": [],
      "payable": false,
      "stateMutability": "nonpayable",
      "type": "function"
    },
    {
      "constant": true,
      "inputs": [
        {
          "name": "_tokenId",
          "type": "uint256"
        }
      ],
      "name": "approvedFor",
      "outputs": [
        {
          "name": "",
          "type": "address"
        }
      ],
      "payable": false,
      "stateMutability": "view",
      "type": "function"
    },
    {
      "constant": false,
      "inputs": [
        {
          "name": "_tokenId",
          "type": "uint256"
        }
      ],
      "name": "burn",
      "outputs": [],
      "payable": false,
      "stateMutability": "nonpayable",
      "type": "function"
    },
    {
      "constant": true,
      "inputs": [
        {
          "name": "_owner",
          "type": "address"
        }
      ],
      "name": "tokensOf",
      "outputs": [
        {
          "name": "",
          "type": "uint256[]"
        }
      ],
      "payable": false,
      "stateMutability": "view",
      "type": "function"
    },
    {
      "constant": true,
      "inputs": [
        {
          "name": "_tokenId",
          "type": "uint256"
        }
      ],
      "name": "ownerOf",
      "outputs": [
        {
          "name": "",
          "type": "address"
        }
      ],
      "payable": false,
      "stateMutability": "view",
      "type": "function"
    },
    {
      "constant": false,
      "inputs": [
        {
          "name": "_to",
          "type": "address"
        },
        {
          "name": "_chainyCode",
          "type": "string"
        },
        {
          "name": "_supplier",
          "type": "address"
        },
        {
          "name": "_investor",
          "type": "address"
        },
        {
          "name": "_buyer",
          "type": "address"
        },
        {
          "name": "_percentageFunding",
          "type": "uint256"
        },
        {
          "name": "_percentageInterest",
          "type": "uint256"
        }
      ],
      "name": "mint",
      "outputs": [],
      "payable": false,
      "stateMutability": "nonpayable",
      "type": "function"
    },
    {
      "constant": true,
      "inputs": [
        {
          "name": "_tokenId",
          "type": "uint256"
        }
      ],
      "name": "tokenMetadata",
      "outputs": [
        {
          "name": "chainyUrl",
          "type": "string"
        },
        {
          "name": "supplier",
          "type": "address"
        },
        {
          "name": "investor",
          "type": "address"
        },
        {
          "name": "buyer",
          "type": "address"
        },
        {
          "name": "percentageFunding",
          "type": "uint256"
        },
        {
          "name": "percentageInterest",
          "type": "uint256"
        }
      ],
      "payable": false,
      "stateMutability": "view",
      "type": "function"
    },
    {
      "constant": true,
      "inputs": [
        {
          "name": "_owner",
          "type": "address"
        }
      ],
      "name": "balanceOf",
      "outputs": [
        {
          "name": "",
          "type": "uint256"
        }
      ],
      "payable": false,
      "stateMutability": "view",
      "type": "function"
    },
    {
      "constant": true,
      "inputs": [],
      "name": "symbol",
      "outputs": [
        {
          "name": "",
          "type": "string"
        }
      ],
      "payable": false,
      "stateMutability": "view",
      "type": "function"
    },
    {
      "constant": false,
      "inputs": [
        {
          "name": "_to",
          "type": "address"
        },
        {
          "name": "_tokenId",
          "type": "uint256"
        }
      ],
      "name": "transfer",
      "outputs": [],
      "payable": false,
      "stateMutability": "nonpayable",
      "type": "function"
    },
    {
      "constant": false,
      "inputs": [
        {
          "name": "_tokenId",
          "type": "uint256"
        }
      ],
      "name": "takeOwnership",
      "outputs": [],
      "payable": false,
      "stateMutability": "nonpayable",
      "type": "function"
    },
    {
      "inputs": [],
      "payable": false,
      "stateMutability": "nonpayable",
      "type": "constructor"
    },
    {
      "anonymous": false,
      "inputs": [
        {
          "indexed": true,
          "name": "_from",
          "type": "address"
        },
        {
          "indexed": true,
          "name": "_to",
          "type": "address"
        },
        {
          "indexed": false,
          "name": "_tokenId",
          "type": "uint256"
        }
      ],
      "name": "Transfer",
      "type": "event"
    },
    {
      "anonymous": false,
      "inputs": [
        {
          "indexed": true,
          "name": "_owner",
          "type": "address"
        },
        {
          "indexed": true,
          "name": "_approved",
          "type": "address"
        },
        {
          "indexed": false,
          "name": "_tokenId",
          "type": "uint256"
        }
      ],
      "name": "Approval",
      "type": "event"
    }
  ],
  "bytecode": "0x6060604052341561000f57600080fd5b6000600660146101000a81548160ff021916908315150217905550611c6d806100396000396000f3006060604052600436106100d0576000357c0100000000000000000000000000000000000000000000000000000000900463ffffffff16806306fdde03146100d5578063095ea7b31461016357806318160ddd146101a557806321e6652c146101ce5780632a6dd48f1461020757806342966c681461026a5780635a3f26721461028d5780636352211e1461031b5780636870ac1f1461037e5780636914db601461046957806370a08231146105ac57806395d89b41146105f9578063a9059cbb14610687578063b2e6ceeb146106c9575b600080fd5b34156100e057600080fd5b6100e86106ec565b6040518080602001828103825283818151815260200191508051906020019080838360005b8381101561012857808201518184015260208101905061010d565b50505050905090810190601f1680156101555780820380516001836020036101000a031916815260200191505b509250505060405180910390f35b341561016e57600080fd5b6101a3600480803573ffffffffffffffffffffffffffffffffffffffff1690602001909190803590602001909190505061072f565b005b34156101b057600080fd5b6101b86108c2565b6040518082815260200191505060405180910390f35b34156101d957600080fd5b610205600480803573ffffffffffffffffffffffffffffffffffffffff169060200190919050506108cb565b005b341561021257600080fd5b6102286004808035906020019091905050610946565b604051808273ffffffffffffffffffffffffffffffffffffffff1673ffffffffffffffffffffffffffffffffffffffff16815260200191505060405180910390f35b341561027557600080fd5b61028b6004808035906020019091905050610983565b005b341561029857600080fd5b6102c4600480803573ffffffffffffffffffffffffffffffffffffffff1690602001909190505061098f565b6040518080602001828103825283818151815260200191508051906020019060200280838360005b838110156103075780820151818401526020810190506102ec565b505050509050019250505060405180910390f35b341561032657600080fd5b61033c6004808035906020019091905050610a2c565b604051808273ffffffffffffffffffffffffffffffffffffffff1673ffffffffffffffffffffffffffffffffffffffff16815260200191505060405180910390f35b341561038957600080fd5b610467600480803573ffffffffffffffffffffffffffffffffffffffff1690602001909190803590602001908201803590602001908080601f0160208091040260200160405190810160405280939291908181526020018383808284378201915050505050509190803573ffffffffffffffffffffffffffffffffffffffff1690602001909190803573ffffffffffffffffffffffffffffffffffffffff1690602001909190803573ffffffffffffffffffffffffffffffffffffffff16906020019091908035906020019091908035906020019091905050610aaa565b005b341561047457600080fd5b61048a6004808035906020019091905050610d65565b60405180806020018773ffffffffffffffffffffffffffffffffffffffff1673ffffffffffffffffffffffffffffffffffffffff1681526020018673ffffffffffffffffffffffffffffffffffffffff1673ffffffffffffffffffffffffffffffffffffffff1681526020018573ffffffffffffffffffffffffffffffffffffffff1673ffffffffffffffffffffffffffffffffffffffff168152602001848152602001838152602001828103825288818151815260200191508051906020019080838360005b8381101561056c578082015181840152602081019050610551565b50505050905090810190601f1680156105995780820380516001836020036101000a031916815260200191505b5097505050505050505060405180910390f35b34156105b757600080fd5b6105e3600480803573ffffffffffffffffffffffffffffffffffffffff16906020019091905050611204565b6040518082815260200191505060405180910390f35b341561060457600080fd5b61060c611250565b6040518080602001828103825283818151815260200191508051906020019080838360005b8381101561064c578082015181840152602081019050610631565b50505050905090810190601f1680156106795780820380516001836020036101000a031916815260200191505b509250505060405180910390f35b341561069257600080fd5b6106c7600480803573ffffffffffffffffffffffffffffffffffffffff16906020019091908035906020019091905050611293565b005b34156106d457600080fd5b6106ea60048080359060200190919050506112e6565b005b6106f4611b1c565b6040805190810160405280600d81526020017f496e766f69636520546f6b656e00000000000000000000000000000000000000815250905090565b6000813373ffffffffffffffffffffffffffffffffffffffff1661075282610a2c565b73ffffffffffffffffffffffffffffffffffffffff1614151561077457600080fd5b61077d83610a2c565b91508173ffffffffffffffffffffffffffffffffffffffff168473ffffffffffffffffffffffffffffffffffffffff16141515156107ba57600080fd5b60006107c584610946565b73ffffffffffffffffffffffffffffffffffffffff161415806107ff575060008473ffffffffffffffffffffffffffffffffffffffff1614155b156108bc57836002600085815260200190815260200160002060006101000a81548173ffffffffffffffffffffffffffffffffffffffff021916908373ffffffffffffffffffffffffffffffffffffffff1602179055508373ffffffffffffffffffffffffffffffffffffffff168273ffffffffffffffffffffffffffffffffffffffff167f8c5be1e5ebec7d5bd14f71427d1e84f3dd0314c0f7b2291e5b200ac8c7c3b925856040518082815260200191505060405180910390a35b50505050565b60008054905090565b600660149054906101000a900460ff161515156108e757600080fd5b80600660006101000a81548173ffffffffffffffffffffffffffffffffffffffff021916908373ffffffffffffffffffffffffffffffffffffffff1602179055506001600660146101000a81548160ff02191690831515021790555050565b60006002600083815260200190815260200160002060009054906101000a900473ffffffffffffffffffffffffffffffffffffffff169050919050565b61098c81611311565b50565b610997611b30565b600360008373ffffffffffffffffffffffffffffffffffffffff1673ffffffffffffffffffffffffffffffffffffffff168152602001908152602001600020805480602002602001604051908101604052809291908181526020018280548015610a2057602002820191906000526020600020905b815481526020019060010190808311610a0c575b50505050509050919050565b6000806001600084815260200190815260200160002060009054906101000a900473ffffffffffffffffffffffffffffffffffffffff169050600073ffffffffffffffffffffffffffffffffffffffff168173ffffffffffffffffffffffffffffffffffffffff1614151515610aa157600080fd5b80915050919050565b6000610ab46108c2565b9050610ac088826113e5565b86600560008381526020019081526020016000206000019080519060200190610aea929190611b44565b50856005600083815260200190815260200160002060010160006101000a81548173ffffffffffffffffffffffffffffffffffffffff021916908373ffffffffffffffffffffffffffffffffffffffff160217905550836005600083815260200190815260200160002060020160006101000a81548173ffffffffffffffffffffffffffffffffffffffff021916908373ffffffffffffffffffffffffffffffffffffffff160217905550846005600083815260200190815260200160002060030160006101000a81548173ffffffffffffffffffffffffffffffffffffffff021916908373ffffffffffffffffffffffffffffffffffffffff16021790555082600560008381526020019081526020016000206004018190555081600560008381526020019081526020016000206005018190555060016007600083815260200190815260200160002060008873ffffffffffffffffffffffffffffffffffffffff1673ffffffffffffffffffffffffffffffffffffffff16815260200190815260200160002060006101000a81548160ff02191690831515021790555060016007600083815260200190815260200160002060008773ffffffffffffffffffffffffffffffffffffffff1673ffffffffffffffffffffffffffffffffffffffff16815260200190815260200160002060006101000a81548160ff02191690831515021790555060016007600083815260200190815260200160002060008673ffffffffffffffffffffffffffffffffffffffff1673ffffffffffffffffffffffffffffffffffffffff16815260200190815260200160002060006101000a81548160ff0219169083151502179055505050505050505050565b610d6d611b1c565b6000806000806000600115156007600089815260200190815260200160002060003373ffffffffffffffffffffffffffffffffffffffff1673ffffffffffffffffffffffffffffffffffffffff16815260200190815260200160002060009054906101000a900460ff1615151415610f7557600560008881526020019081526020016000206000016005600089815260200190815260200160002060010160009054906101000a900473ffffffffffffffffffffffffffffffffffffffff16600560008a815260200190815260200160002060030160009054906101000a900473ffffffffffffffffffffffffffffffffffffffff16600560008b815260200190815260200160002060020160009054906101000a900473ffffffffffffffffffffffffffffffffffffffff16600560008c815260200190815260200160002060040154600560008d815260200190815260200160002060050154858054600181600116156101000203166002900480601f016020809104026020016040519081016040528092919081815260200182805460018160011615610100020316600290048015610f5d5780601f10610f3257610100808354040283529160200191610f5d565b820191906000526020600020905b815481529060010190602001808311610f4057829003601f168201915b505050505095509550955095509550955095506111fb565b600660009054906101000a900473ffffffffffffffffffffffffffffffffffffffff1673ffffffffffffffffffffffffffffffffffffffff1663559b7bdc6000336000604051602001526040518363ffffffff167c0100000000000000000000000000000000000000000000000000000000028152600401808381526020018273ffffffffffffffffffffffffffffffffffffffff1673ffffffffffffffffffffffffffffffffffffffff16815260200192505050602060405180830381600087803b151561104357600080fd5b6102c65a03f1151561105457600080fd5b50505060405180519050151561106957600080fd5b600560008881526020019081526020016000206000016005600089815260200190815260200160002060010160009054906101000a900473ffffffffffffffffffffffffffffffffffffffff16600560008a815260200190815260200160002060030160009054906101000a900473ffffffffffffffffffffffffffffffffffffffff16600560008b815260200190815260200160002060020160009054906101000a900473ffffffffffffffffffffffffffffffffffffffff16600560008c815260200190815260200160002060040154600560008d815260200190815260200160002060050154858054600181600116156101000203166002900480601f0160208091040260200160405190810160405280929190818152602001828054600181600116156101000203166002900480156111e75780601f106111bc576101008083540402835291602001916111e7565b820191906000526020600020905b8154815290600101906020018083116111ca57829003601f168201915b505050505095509550955095509550955095505b91939550919395565b6000600360008373ffffffffffffffffffffffffffffffffffffffff1673ffffffffffffffffffffffffffffffffffffffff168152602001908152602001600020805490509050919050565b611258611b1c565b6040805190810160405280600381526020017f494e560000000000000000000000000000000000000000000000000000000000815250905090565b803373ffffffffffffffffffffffffffffffffffffffff166112b482610a2c565b73ffffffffffffffffffffffffffffffffffffffff161415156112d657600080fd5b6112e133848461147f565b505050565b6112f033826115c8565b15156112fb57600080fd5b61130e61130782610a2c565b338361147f565b50565b803373ffffffffffffffffffffffffffffffffffffffff1661133282610a2c565b73ffffffffffffffffffffffffffffffffffffffff1614151561135457600080fd5b600061135f83610946565b73ffffffffffffffffffffffffffffffffffffffff16141515611387576113863383611609565b5b61139133836116f2565b60003373ffffffffffffffffffffffffffffffffffffffff167fddf252ad1be2c89b69c2b068fc378daa952ba7f163c4a11628f55a4df523b3ef846040518082815260200191505060405180910390a35050565b600073ffffffffffffffffffffffffffffffffffffffff168273ffffffffffffffffffffffffffffffffffffffff161415151561142157600080fd5b61142b828261197a565b8173ffffffffffffffffffffffffffffffffffffffff1660007fddf252ad1be2c89b69c2b068fc378daa952ba7f163c4a11628f55a4df523b3ef836040518082815260200191505060405180910390a35050565b600073ffffffffffffffffffffffffffffffffffffffff168273ffffffffffffffffffffffffffffffffffffffff16141515156114bb57600080fd5b6114c481610a2c565b73ffffffffffffffffffffffffffffffffffffffff168273ffffffffffffffffffffffffffffffffffffffff16141515156114fe57600080fd5b8273ffffffffffffffffffffffffffffffffffffffff1661151e82610a2c565b73ffffffffffffffffffffffffffffffffffffffff1614151561154057600080fd5b61154a8382611609565b61155483826116f2565b61155e828261197a565b8173ffffffffffffffffffffffffffffffffffffffff168373ffffffffffffffffffffffffffffffffffffffff167fddf252ad1be2c89b69c2b068fc378daa952ba7f163c4a11628f55a4df523b3ef836040518082815260200191505060405180910390a3505050565b60008273ffffffffffffffffffffffffffffffffffffffff166115ea83610946565b73ffffffffffffffffffffffffffffffffffffffff1614905092915050565b8173ffffffffffffffffffffffffffffffffffffffff1661162982610a2c565b73ffffffffffffffffffffffffffffffffffffffff1614151561164b57600080fd5b60006002600083815260200190815260200160002060006101000a81548173ffffffffffffffffffffffffffffffffffffffff021916908373ffffffffffffffffffffffffffffffffffffffff16021790555060008273ffffffffffffffffffffffffffffffffffffffff167f8c5be1e5ebec7d5bd14f71427d1e84f3dd0314c0f7b2291e5b200ac8c7c3b925836040518082815260200191505060405180910390a35050565b60008060008473ffffffffffffffffffffffffffffffffffffffff1661171785610a2c565b73ffffffffffffffffffffffffffffffffffffffff1614151561173957600080fd5b6004600085815260200190815260200160002054925061176b600161175d87611204565b611ae590919063ffffffff16565b9150600360008673ffffffffffffffffffffffffffffffffffffffff1673ffffffffffffffffffffffffffffffffffffffff168152602001908152602001600020828154811015156117b957fe5b906000526020600020900154905060006001600086815260200190815260200160002060006101000a81548173ffffffffffffffffffffffffffffffffffffffff021916908373ffffffffffffffffffffffffffffffffffffffff16021790555080600360008773ffffffffffffffffffffffffffffffffffffffff1673ffffffffffffffffffffffffffffffffffffffff1681526020019081526020016000208481548110151561186757fe5b9060005260206000209001819055506000600360008773ffffffffffffffffffffffffffffffffffffffff1673ffffffffffffffffffffffffffffffffffffffff168152602001908152602001600020838154811015156118c457fe5b906000526020600020900181905550600360008673ffffffffffffffffffffffffffffffffffffffff1673ffffffffffffffffffffffffffffffffffffffff1681526020019081526020016000208054809190600190036119259190611bc4565b506000600460008681526020019081526020016000208190555082600460008381526020019081526020016000208190555061196d6001600054611ae590919063ffffffff16565b6000819055505050505050565b60008073ffffffffffffffffffffffffffffffffffffffff166001600084815260200190815260200160002060009054906101000a900473ffffffffffffffffffffffffffffffffffffffff1673ffffffffffffffffffffffffffffffffffffffff161415156119e957600080fd5b826001600084815260200190815260200160002060006101000a81548173ffffffffffffffffffffffffffffffffffffffff021916908373ffffffffffffffffffffffffffffffffffffffff160217905550611a4483611204565b9050600360008473ffffffffffffffffffffffffffffffffffffffff1673ffffffffffffffffffffffffffffffffffffffff1681526020019081526020016000208054806001018281611a979190611bf0565b916000526020600020900160008490919091505550806004600084815260200190815260200160002081905550611ada6001600054611afe90919063ffffffff16565b600081905550505050565b6000828211151515611af357fe5b818303905092915050565b6000808284019050838110151515611b1257fe5b8091505092915050565b602060405190810160405280600081525090565b602060405190810160405280600081525090565b828054600181600116156101000203166002900490600052602060002090601f016020900481019282601f10611b8557805160ff1916838001178555611bb3565b82800160010185558215611bb3579182015b82811115611bb2578251825591602001919060010190611b97565b5b509050611bc09190611c1c565b5090565b815481835581811511611beb57818360005260206000209182019101611bea9190611c1c565b5b505050565b815481835581811511611c1757818360005260206000209182019101611c169190611c1c565b5b505050565b611c3e91905b80821115611c3a576000816000905550600101611c22565b5090565b905600a165627a7a7230582082c3b43a0c46988a7c1422c3456850f003324b94ce321ea08fe729ef5b6dd8580029",
  "source": "pragma solidity ^0.4.18;\r\n\r\nimport \"./ERC721Token.sol\";\r\nimport \"./CredentialManager.sol\";\r\n\r\ncontract InvoiceToken is ERC721Token {\r\n\r\n    struct Invoice {\r\n        string chainy;\r\n        address supplier;\r\n        address buyer;\r\n        address investor;\r\n        uint percentageFunding;\r\n        uint percentageInterest;\r\n    }\r\n    \r\n    string constant private TOKENNAME = \"Invoice Token\";\r\n    string constant private TOKENSYMBOL = \"INV\";\r\n    mapping (uint256 => Invoice) private invoiceMetadata;\r\n    \r\n    CredentialManager private credentialManager;\r\n    bool private isCredentialManagerSet;\r\n    mapping (uint256 => mapping(address => bool)) private invoiceAccess;\r\n\r\n    function InvoiceToken () {\r\n        isCredentialManagerSet = false;\r\n    }\r\n\r\n    function setCredentialManager(address _cred) public {\r\n        require(!isCredentialManagerSet);\r\n        credentialManager = CredentialManager(_cred);\r\n        isCredentialManagerSet = true;\r\n    }\r\n\r\n    function mint(address _to, string _chainyCode, address _supplier, address _investor, address _buyer, uint _percentageFunding, uint _percentageInterest) public {\r\n        uint last = totalSupply();\r\n        super._mint(_to, last);\r\n        invoiceMetadata[last].chainy = _chainyCode;\r\n        invoiceMetadata[last].supplier = _supplier;\r\n        invoiceMetadata[last].buyer = _buyer;\r\n        invoiceMetadata[last].investor = _investor;\r\n        invoiceMetadata[last].percentageFunding = _percentageFunding;\r\n        invoiceMetadata[last].percentageInterest = _percentageInterest;\r\n\r\n        invoiceAccess[last][_supplier] = true;\r\n        invoiceAccess[last][_investor] = true;\r\n        invoiceAccess[last][_buyer] = true;\r\n    }\r\n\r\n    function burn(uint256 _tokenId) public {\r\n        super._burn(_tokenId);\r\n    }\r\n\r\n    function name() public constant returns (string) {\r\n        return TOKENNAME;\r\n    }\r\n\r\n    function symbol() public constant returns (string) {\r\n        return TOKENSYMBOL;\r\n    }\r\n    \r\n    function tokenMetadata(uint256 _tokenId) public constant returns (string chainyUrl, address supplier, address investor, address buyer, uint percentageFunding, uint percentageInterest) {\r\n        if (invoiceAccess[_tokenId][msg.sender] == true) {\r\n            return \r\n            (\r\n                invoiceMetadata[_tokenId].chainy,\r\n                invoiceMetadata[_tokenId].supplier,\r\n                invoiceMetadata[_tokenId].investor,\r\n                invoiceMetadata[_tokenId].buyer,\r\n                invoiceMetadata[_tokenId].percentageFunding,\r\n                invoiceMetadata[_tokenId].percentageInterest\r\n            );\r\n        } else {\r\n            require(credentialManager.isInRole(0,msg.sender));\r\n            return \r\n            (\r\n                invoiceMetadata[_tokenId].chainy,\r\n                invoiceMetadata[_tokenId].supplier,\r\n                invoiceMetadata[_tokenId].investor,\r\n                invoiceMetadata[_tokenId].buyer,\r\n                invoiceMetadata[_tokenId].percentageFunding,\r\n                invoiceMetadata[_tokenId].percentageInterest\r\n            );\r\n        }\r\n    }\r\n}",
  "sourcePath": "C:\\Side\\dnb\\smartinvoice\\contracts\\InvoiceToken.sol",
  "compiler": {
    "name": "solc",
    "version": "0.4.18+commit.9cf6e910.Emscripten.clang"
  },
  "schemaVersion": "1.0.1",
  "updatedAt": "2018-03-24T14:41:29.531Z"
}