{
  "contractName": "owned",
  "abi": [
    {
      "constant": true,
      "inputs": [],
      "name": "owner",
      "outputs": [
        {
          "name": "",
          "type": "address"
        }
      ],
      "payable": false,
      "type": "function",
      "stateMutability": "view"
    },
    {
      "constant": false,
      "inputs": [
        {
          "name": "newOwner",
          "type": "address"
        }
      ],
      "name": "transferOwnership",
      "outputs": [],
      "payable": false,
      "type": "function",
      "stateMutability": "nonpayable"
    },
    {
      "inputs": [],
      "payable": false,
      "type": "constructor",
      "stateMutability": "nonpayable"
    }
  ],
  "bytecode": "0x6060604052341561000f57600080fd5b336000806101000a81548173ffffffffffffffffffffffffffffffffffffffff021916908373ffffffffffffffffffffffffffffffffffffffff1602179055506101ce8061005e6000396000f30060606040526004361061004c576000357c0100000000000000000000000000000000000000000000000000000000900463ffffffff1680638da5cb5b14610051578063f2fde38b146100a6575b600080fd5b341561005c57600080fd5b6100646100df565b604051808273ffffffffffffffffffffffffffffffffffffffff1673ffffffffffffffffffffffffffffffffffffffff16815260200191505060405180910390f35b34156100b157600080fd5b6100dd600480803573ffffffffffffffffffffffffffffffffffffffff16906020019091905050610104565b005b6000809054906101000a900473ffffffffffffffffffffffffffffffffffffffff1681565b6000809054906101000a900473ffffffffffffffffffffffffffffffffffffffff1673ffffffffffffffffffffffffffffffffffffffff163373ffffffffffffffffffffffffffffffffffffffff1614151561015f57600080fd5b806000806101000a81548173ffffffffffffffffffffffffffffffffffffffff021916908373ffffffffffffffffffffffffffffffffffffffff160217905550505600a165627a7a723058206371d340ce36fef675a34e0726b0e71633300e5d3411a2ff4e0c92b7a7f0968b0029",
  "source": "pragma solidity ^0.4.15;\r\n\r\nimport \"./CredentialManager.sol\";\r\n\r\n/**\r\n * Copyright 2016 Everex https://everex.io\r\n *\r\n * Licensed under the Apache License, Version 2.0 (the \"License\");\r\n * you may not use this file except in compliance with the License.\r\n * You may obtain a copy of the License at\r\n *\r\n *     http://www.apache.org/licenses/LICENSE-2.0\r\n *\r\n * Unless required by applicable law or agreed to in writing, software\r\n * distributed under the License is distributed on an \"AS IS\" BASIS,\r\n * WITHOUT WARRANTIES OR CONDITIONS OF ANY KIND, either express or implied.\r\n * See the License for the specific language governing permissions and\r\n * limitations under the License.\r\n */\r\n\r\n/* String utility library */\r\nlibrary strUtils {\r\n    string constant CHAINY_JSON_ID = '\"id\":\"smartinvoice\"';\r\n    uint8 constant CHAINY_JSON_MIN_LEN = 32;\r\n\r\n    /* Converts given number to base58, limited by _maxLength symbols */\r\n    function toBase58(uint256 _value, uint8 _maxLength) internal returns (string) {\r\n        string memory letters = \"123456789abcdefghijkmnopqrstuvwxyzABCDEFGHJKLMNPQRSTUVWXYZ\";\r\n        bytes memory alphabet = bytes(letters);\r\n        uint8 base = 58;\r\n        uint8 len = 0;\r\n        uint256 remainder = 0;\r\n        bool needBreak = false;\r\n        bytes memory bytesReversed = bytes(new string(_maxLength));\r\n\r\n        for (uint8 i = 0; i < _maxLength; i++) {\r\n            if(_value < base){\r\n                needBreak = true;\r\n            }\r\n            remainder = _value % base;\r\n            _value = uint256(_value / base);\r\n            bytesReversed[i] = alphabet[remainder];\r\n            len++;\r\n            if(needBreak){\r\n                break;\r\n            }\r\n        }\r\n\r\n        // Reverse\r\n        bytes memory result = bytes(new string(len));\r\n        for (i = 0; i < len; i++) {\r\n            result[i] = bytesReversed[len - i - 1];\r\n        }\r\n        return string(result);\r\n    }\r\n\r\n    /* Concatenates two strings */\r\n    function concat(string _s1, string _s2) internal returns (string) {\r\n        bytes memory bs1 = bytes(_s1);\r\n        bytes memory bs2 = bytes(_s2);\r\n        string memory s3 = new string(bs1.length + bs2.length);\r\n        bytes memory bs3 = bytes(s3);\r\n\r\n        uint256 j = 0;\r\n        for (uint256 i = 0; i < bs1.length; i++) {\r\n            bs3[j++] = bs1[i];\r\n        }\r\n        for (i = 0; i < bs2.length; i++) {\r\n            bs3[j++] = bs2[i];\r\n        }\r\n\r\n        return string(bs3);\r\n    }\r\n\r\n    /* Checks if provided JSON string has valid Chainy format */\r\n    function isValidChainyJson(string _json) internal returns (bool) {\r\n        bytes memory json = bytes(_json);\r\n        bytes memory id = bytes(CHAINY_JSON_ID);\r\n\r\n        if (json.length < CHAINY_JSON_MIN_LEN) {\r\n            return false;\r\n        } else {\r\n            uint len = 0;\r\n            if (json[1] == id[0]) {\r\n                len = 1;\r\n                while (len < id.length && (1 + len) < json.length && json[1 + len] == id[len]) {\r\n                    len++;\r\n                }\r\n                if (len == id.length) {\r\n                    return true;\r\n                }\r\n            }\r\n        }\r\n\r\n        return false;\r\n    }\r\n}\r\n\r\n\r\n// Ownership\r\ncontract owned {\r\n    address public owner;\r\n\r\n    function owned() {\r\n        owner = msg.sender;\r\n    }\r\n\r\n    modifier onlyOwner {\r\n        if (msg.sender != owner) throw;\r\n        _;\r\n    }\r\n\r\n    function transferOwnership(address newOwner) onlyOwner {\r\n        owner = newOwner;\r\n    }\r\n}\r\n\r\ncontract Chainy is owned {\r\n    // Chainy viewer url\r\n    string CHAINY_URL;\r\n\r\n    CredentialManager private credentialManager;\r\n    bool private isCredentialManagerSet;\r\n\r\n    // Configuration\r\n    mapping(string => uint256) private chainyConfig;\r\n\r\n    // Service accounts\r\n    mapping (address => bool) private srvAccount;\r\n\r\n    mapping (address => string) private lastChainy;\r\n\r\n    // Fee receiver\r\n    address private receiverAddress;\r\n\r\n    struct data {uint256 timestamp; string json; address sender;}\r\n\r\n    mapping (string => data) private chainy;\r\n    mapping (string => mapping(address => bool)) private chainyAccess;\r\n\r\n    event chainyShortLink(uint256 timestamp, string code);\r\n\r\n    // Constructor\r\n    function Chainy() {\r\n        setConfig(\"fee\", 0);\r\n        // change the block offset to 1000000 to use contract in testnet\r\n        setConfig(\"blockoffset\", 100000);\r\n        setChainyURL(\"\");\r\n        isCredentialManagerSet = false;\r\n    }\r\n\r\n    function setCredentialManager(address _cred) {\r\n        require(!isCredentialManagerSet);\r\n        credentialManager = CredentialManager(_cred);\r\n        isCredentialManagerSet = true;\r\n    }\r\n\r\n    // Sets new Chainy viewer URL\r\n    function setChainyURL(string _url) onlyOwner {\r\n        CHAINY_URL = _url;\r\n    }\r\n\r\n    // Returns current Chainy viewer URL\r\n    function getChainyURL() constant returns(string){\r\n        return CHAINY_URL;\r\n    }\r\n\r\n    // Sets configuration option\r\n    function setConfig(string _key, uint256 _value) onlyOwner {\r\n        chainyConfig[_key] = _value;\r\n    }\r\n\r\n    // Returns configuration option\r\n    function getConfig(string _key) constant returns (uint256 _value) {\r\n        return chainyConfig[_key];\r\n    }\r\n\r\n    // Add/Remove service account\r\n    function setServiceAccount(address _address, bool _value) onlyOwner {\r\n        srvAccount[_address] = _value;\r\n    }\r\n\r\n    // Set receiver address\r\n    function setReceiverAddress(address _address) onlyOwner {\r\n        receiverAddress = _address;\r\n    }\r\n\r\n    // Send all ether back to owner\r\n    function releaseFunds() onlyOwner {\r\n        if(!owner.send(this.balance)) throw;\r\n    }\r\n\r\n    // Add record\r\n    function addChainyData(string json) {\r\n        checkFormat(json);\r\n\r\n        var code = generateShortLink();\r\n        // Checks if the record exist\r\n        if (getChainyTimestamp(code) > 0) throw;\r\n\r\n        processFee();\r\n        chainy[code] = data({\r\n            timestamp: block.timestamp,\r\n            json: json,\r\n            sender: tx.origin\r\n        });\r\n\r\n        lastChainy[msg.sender] = code;\r\n        chainyAccess[code][msg.sender] = true;\r\n\r\n        // Fire event\r\n        var link = strUtils.concat(CHAINY_URL, code);\r\n        chainyShortLink(block.timestamp, link);\r\n    }\r\n\r\n    function getLastChainy(address sender) constant returns (string) {\r\n        return lastChainy[sender];\r\n    }\r\n\r\n    // Get record timestamp\r\n    function getChainyTimestamp(string code) constant returns (uint256) {\r\n        return chainy[code].timestamp;\r\n    }\r\n\r\n    // Get record JSON\r\n    function getChainyData(string code) constant returns (string) {\r\n        if (chainyAccess[code][msg.sender] == true) {\r\n            return chainy[code].json;\r\n        } else {\r\n            require(credentialManager.isInRole(0,msg.sender));\r\n            return chainy[code].json;\r\n        }\r\n    }\r\n\r\n    function setChainyAccess (string code, address _target) {\r\n        require(credentialManager.isInRole(0,msg.sender));\r\n        chainyAccess[code][_target] = true;\r\n    }\r\n\r\n    // Get record sender\r\n    function getChainySender(string code) constant returns (address) {\r\n        return chainy[code].sender;\r\n    }\r\n\r\n    // Checks if enough fee provided\r\n    function processFee() internal {\r\n        var fee = getConfig(\"fee\");\r\n        if (srvAccount[msg.sender] || (fee == 0)) return;\r\n\r\n        if (msg.value < fee)\r\n            throw;\r\n        else\r\n            if (!receiverAddress.send(fee)) throw;\r\n    }\r\n\r\n    // Checks if provided string has valid format\r\n    function checkFormat(string json) internal {\r\n        if (!strUtils.isValidChainyJson(json)) throw;\r\n    }\r\n\r\n    // Generates a shortlink code for this transaction\r\n    function generateShortLink() internal returns (string) {\r\n        var s1 = strUtils.toBase58(block.number - getConfig(\"blockoffset\"), 11);\r\n        var s2 = strUtils.toBase58(uint256(tx.origin), 2);\r\n\r\n        var s = strUtils.concat(s1, s2);\r\n        return s;\r\n    }\r\n}",
  "sourcePath": "C:\\Side\\dnb\\smartinvoice\\contracts\\Chainy.sol",
  "compiler": {
    "name": "solc",
    "version": "0.4.18+commit.9cf6e910.Emscripten.clang"
  },
  "schemaVersion": "1.0.1",
  "updatedAt": "2018-03-13T09:24:43.905Z"
}