{
  "contractName": "SimpleStorage",
  "abi": [
    {
      "constant": true,
      "inputs": [],
      "name": "getStorageInteger",
      "outputs": [
        {
          "name": "",
          "type": "uint256"
        }
      ],
      "payable": false,
      "stateMutability": "view",
      "type": "function"
    },
    {
      "constant": true,
      "inputs": [],
      "name": "getStorageArray",
      "outputs": [
        {
          "name": "",
          "type": "bytes32[4]"
        }
      ],
      "payable": false,
      "stateMutability": "view",
      "type": "function"
    },
    {
      "constant": true,
      "inputs": [],
      "name": "storageInteger",
      "outputs": [
        {
          "name": "",
          "type": "uint256"
        }
      ],
      "payable": false,
      "stateMutability": "view",
      "type": "function"
    },
    {
      "constant": true,
      "inputs": [],
      "name": "storageString",
      "outputs": [
        {
          "name": "",
          "type": "bytes32"
        }
      ],
      "payable": false,
      "stateMutability": "view",
      "type": "function"
    },
    {
      "constant": true,
      "inputs": [],
      "name": "getStorageString",
      "outputs": [
        {
          "name": "",
          "type": "bytes32"
        }
      ],
      "payable": false,
      "stateMutability": "view",
      "type": "function"
    },
    {
      "inputs": [],
      "payable": false,
      "stateMutability": "nonpayable",
      "type": "constructor"
    }
  ],
  "bytecode": "0x6060604052341561000f57600080fd5b7f48656c6c6f20776f726c6421000000000000000000000000000000000000000060008160001916905550613039600181905550600280548060010182816100579190610184565b916000526020600020900160007f48656c6c6f00000000000000000000000000000000000000000000000000000090919091509060001916905550600280548060010182816100a69190610184565b916000526020600020900160007f576f726c6400000000000000000000000000000000000000000000000000000090919091509060001916905550600280548060010182816100f59190610184565b916000526020600020900160007f486f772061726520796f7500000000000000000000000000000000000000000090919091509060001916905550600280548060010182816101449190610184565b916000526020600020900160007f546f646179000000000000000000000000000000000000000000000000000000909190915090600019169055506101d5565b8154818355818115116101ab578183600052602060002091820191016101aa91906101b0565b5b505050565b6101d291905b808211156101ce5760008160009055506001016101b6565b5090565b90565b610266806101e46000396000f30060606040526004361061006d576000357c0100000000000000000000000000000000000000000000000000000000900463ffffffff1680630f0756bc1461007257806325cc66f51461009b5780637cf74c28146100ec578063adcfe68414610115578063fe6d7bf714610146575b600080fd5b341561007d57600080fd5b610085610177565b6040518082815260200191505060405180910390f35b34156100a657600080fd5b6100ae610181565b6040518082600460200280838360005b838110156100d95780820151818401526020810190506100be565b5050505090500191505060405180910390f35b34156100f757600080fd5b6100ff6101fa565b6040518082815260200191505060405180910390f35b341561012057600080fd5b610128610200565b60405180826000191660001916815260200191505060405180910390f35b341561015157600080fd5b610159610206565b60405180826000191660001916815260200191505060405180910390f35b6000600154905090565b61018961020f565b61019161020f565b60008090505b60048160ff1610156101f25760028160ff168154811015156101b557fe5b906000526020600020900154828260ff166004811015156101d257fe5b602002019060001916908160001916815250508080600101915050610197565b819250505090565b60015481565b60005481565b60008054905090565b6080604051908101604052806004905b600080191681526020019060019003908161021f57905050905600a165627a7a72305820e2736daf7ec244114185559171dc977a08a8be0f9e948938de8dbddbe757d1680029",
  "source": "pragma solidity ^0.4.15;\r\n\r\ncontract SimpleStorage {\r\n    bytes32 public storageString;\r\n    uint public storageInteger;\r\n    bytes32[] storageArray;\r\n\r\n    function SimpleStorage() {\r\n        storageString = \"Hello world!\";\r\n        storageInteger = 12345;\r\n        storageArray.push(\"Hello\");\r\n        storageArray.push(\"World\");\r\n        storageArray.push(\"How are you\");\r\n        storageArray.push(\"Today\");\r\n    }\r\n\r\n    function getStorageString() constant returns (bytes32) {\r\n        return storageString;\r\n    }\r\n    \r\n    function getStorageInteger() constant returns (uint) {\r\n        return storageInteger;\r\n    }\r\n\r\n    function getStorageArray() constant returns (bytes32[4]) {\r\n        bytes32[4] memory result;\r\n        \r\n        for (var index = 0; index < 4; index++) {\r\n            result[index] = storageArray[index];\r\n        }\r\n        return result;\r\n    }\r\n}",
  "sourcePath": "C:\\Side\\dnb\\smartinvoice\\contracts\\SimpleStorage.sol",
  "compiler": {
    "name": "solc",
    "version": "0.4.18+commit.9cf6e910.Emscripten.clang"
  },
  "schemaVersion": "1.0.1",
  "updatedAt": "2018-03-24T14:27:56.283Z"
}