{
  "contractName": "SupplierCommisionContract",
  "abi": [
    {
      "constant": true,
      "inputs": [],
      "name": "decimals",
      "outputs": [
        {
          "name": "",
          "type": "uint256"
        }
      ],
      "payable": false,
      "stateMutability": "view",
      "type": "function"
    },
    {
      "anonymous": false,
      "inputs": [
        {
          "indexed": false,
          "name": "proposalStatus",
          "type": "string"
        },
        {
          "indexed": false,
          "name": "supplier",
          "type": "address"
        }
      ],
      "name": "SupplierCommisionStatus",
      "type": "event"
    },
    {
      "constant": false,
      "inputs": [
        {
          "name": "credmgr",
          "type": "address"
        }
      ],
      "name": "SupplierAdminContract",
      "outputs": [],
      "payable": false,
      "stateMutability": "nonpayable",
      "type": "function"
    },
    {
      "constant": true,
      "inputs": [
        {
          "name": "supplier",
          "type": "address"
        }
      ],
      "name": "getRate",
      "outputs": [
        {
          "name": "",
          "type": "uint256"
        },
        {
          "name": "",
          "type": "uint8"
        }
      ],
      "payable": false,
      "stateMutability": "view",
      "type": "function"
    },
    {
      "constant": false,
      "inputs": [
        {
          "name": "supplier",
          "type": "address"
        },
        {
          "name": "newRate",
          "type": "uint256"
        },
        {
          "name": "newRateType",
          "type": "uint8"
        }
      ],
      "name": "setRate",
      "outputs": [],
      "payable": false,
      "stateMutability": "nonpayable",
      "type": "function"
    },
    {
      "constant": false,
      "inputs": [
        {
          "name": "supplier",
          "type": "address"
        },
        {
          "name": "newRate",
          "type": "uint256"
        },
        {
          "name": "newRateType",
          "type": "uint8"
        }
      ],
      "name": "proposeRate",
      "outputs": [],
      "payable": false,
      "stateMutability": "nonpayable",
      "type": "function"
    },
    {
      "constant": true,
      "inputs": [
        {
          "name": "supplier",
          "type": "address"
        }
      ],
      "name": "getRateProposal",
      "outputs": [
        {
          "name": "",
          "type": "uint256"
        },
        {
          "name": "",
          "type": "uint8"
        }
      ],
      "payable": false,
      "stateMutability": "view",
      "type": "function"
    },
    {
      "constant": false,
      "inputs": [],
      "name": "acceptRateProposal",
      "outputs": [],
      "payable": false,
      "stateMutability": "nonpayable",
      "type": "function"
    },
    {
      "constant": false,
      "inputs": [],
      "name": "rejectRateProposal",
      "outputs": [],
      "payable": false,
      "stateMutability": "nonpayable",
      "type": "function"
    }
  ],
  "bytecode": "0x606060405260008060146101000a81548160ff021916908315150217905550341561002957600080fd5b611671806100386000396000f30060606040526004361061008e576000357c0100000000000000000000000000000000000000000000000000000000900463ffffffff168063313ce5671461009357806337cef791146100bc57806338e1c0581461011e5780634c41bf681461016c5780638c30524c146101a557806390dfda1514610207578063aa15b8621461021c578063d23df45c1461026a575b600080fd5b341561009e57600080fd5b6100a661027f565b6040518082815260200191505060405180910390f35b34156100c757600080fd5b6100f3600480803573ffffffffffffffffffffffffffffffffffffffff16906020019091905050610284565b6040518083815260200182600281111561010957fe5b60ff1681526020019250505060405180910390f35b341561012957600080fd5b61016a600480803573ffffffffffffffffffffffffffffffffffffffff1690602001909190803590602001909190803560ff1690602001909190505061051c565b005b341561017757600080fd5b6101a3600480803573ffffffffffffffffffffffffffffffffffffffff1690602001909190505061085f565b005b34156101b057600080fd5b6101dc600480803573ffffffffffffffffffffffffffffffffffffffff169060200190919050506108df565b604051808381526020018260028111156101f257fe5b60ff1681526020019250505060405180910390f35b341561021257600080fd5b61021a610b77565b005b341561022757600080fd5b610268600480803573ffffffffffffffffffffffffffffffffffffffff1690602001909190803590602001909190803560ff169060200190919050506110d2565b005b341561027557600080fd5b61027d611415565b005b600381565b6000806000809054906101000a900473ffffffffffffffffffffffffffffffffffffffff1673ffffffffffffffffffffffffffffffffffffffff1663559b7bdc6000336040518363ffffffff167c0100000000000000000000000000000000000000000000000000000000028152600401808381526020018273ffffffffffffffffffffffffffffffffffffffff1673ffffffffffffffffffffffffffffffffffffffff16815260200192505050602060405180830381600087803b151561034b57600080fd5b5af1151561035857600080fd5b505050604051805190508061047b57508273ffffffffffffffffffffffffffffffffffffffff163373ffffffffffffffffffffffffffffffffffffffff1614801561047a57506000809054906101000a900473ffffffffffffffffffffffffffffffffffffffff1673ffffffffffffffffffffffffffffffffffffffff1663559b7bdc6001336040518363ffffffff167c0100000000000000000000000000000000000000000000000000000000028152600401808381526020018273ffffffffffffffffffffffffffffffffffffffff1673ffffffffffffffffffffffffffffffffffffffff16815260200192505050602060405180830381600087803b151561046257600080fd5b5af1151561046f57600080fd5b505050604051805190505b5b151561048657600080fd5b600160008473ffffffffffffffffffffffffffffffffffffffff1673ffffffffffffffffffffffffffffffffffffffff16815260200190815260200160002054600260008573ffffffffffffffffffffffffffffffffffffffff1673ffffffffffffffffffffffffffffffffffffffff16815260200190815260200160002060009054906101000a900460ff1691509150915091565b6000809054906101000a900473ffffffffffffffffffffffffffffffffffffffff1673ffffffffffffffffffffffffffffffffffffffff1663559b7bdc6000336040518363ffffffff167c0100000000000000000000000000000000000000000000000000000000028152600401808381526020018273ffffffffffffffffffffffffffffffffffffffff1673ffffffffffffffffffffffffffffffffffffffff16815260200192505050602060405180830381600087803b15156105e057600080fd5b5af115156105ed57600080fd5b50505060405180519050151561060257600080fd5b6000809054906101000a900473ffffffffffffffffffffffffffffffffffffffff1673ffffffffffffffffffffffffffffffffffffffff1663559b7bdc6001856040518363ffffffff167c0100000000000000000000000000000000000000000000000000000000028152600401808381526020018273ffffffffffffffffffffffffffffffffffffffff1673ffffffffffffffffffffffffffffffffffffffff16815260200192505050602060405180830381600087803b15156106c657600080fd5b5af115156106d357600080fd5b5050506040518051905015156106e857600080fd5b60008211801561070f57506000600281111561070057fe5b81600281111561070c57fe5b14155b151561071a57600080fd5b81600160008573ffffffffffffffffffffffffffffffffffffffff1673ffffffffffffffffffffffffffffffffffffffff1681526020019081526020016000208190555080600260008573ffffffffffffffffffffffffffffffffffffffff1673ffffffffffffffffffffffffffffffffffffffff16815260200190815260200160002060006101000a81548160ff021916908360028111156107b957fe5b02179055507f4a51379d748065d9bbc74c3bc4bd9a8f59cf592fe507e63aaeb3b25f88a579a98360405180806020018373ffffffffffffffffffffffffffffffffffffffff1673ffffffffffffffffffffffffffffffffffffffff1681526020018281038252600b8152602001807f726174654368616e6765640000000000000000000000000000000000000000008152506020019250505060405180910390a1505050565b60001515600060149054906101000a900460ff16151514151561088157600080fd5b806000806101000a81548173ffffffffffffffffffffffffffffffffffffffff021916908373ffffffffffffffffffffffffffffffffffffffff1602179055506001600060146101000a81548160ff02191690831515021790555050565b6000806000809054906101000a900473ffffffffffffffffffffffffffffffffffffffff1673ffffffffffffffffffffffffffffffffffffffff1663559b7bdc6000336040518363ffffffff167c0100000000000000000000000000000000000000000000000000000000028152600401808381526020018273ffffffffffffffffffffffffffffffffffffffff1673ffffffffffffffffffffffffffffffffffffffff16815260200192505050602060405180830381600087803b15156109a657600080fd5b5af115156109b357600080fd5b5050506040518051905080610ad657508273ffffffffffffffffffffffffffffffffffffffff163373ffffffffffffffffffffffffffffffffffffffff16148015610ad557506000809054906101000a900473ffffffffffffffffffffffffffffffffffffffff1673ffffffffffffffffffffffffffffffffffffffff1663559b7bdc6001336040518363ffffffff167c0100000000000000000000000000000000000000000000000000000000028152600401808381526020018273ffffffffffffffffffffffffffffffffffffffff1673ffffffffffffffffffffffffffffffffffffffff16815260200192505050602060405180830381600087803b1515610abd57600080fd5b5af11515610aca57600080fd5b505050604051805190505b5b1515610ae157600080fd5b600360008473ffffffffffffffffffffffffffffffffffffffff1673ffffffffffffffffffffffffffffffffffffffff16815260200190815260200160002054600460008573ffffffffffffffffffffffffffffffffffffffff1673ffffffffffffffffffffffffffffffffffffffff16815260200190815260200160002060009054906101000a900460ff1691509150915091565b60008060009054906101000a900473ffffffffffffffffffffffffffffffffffffffff1673ffffffffffffffffffffffffffffffffffffffff1663559b7bdc6001336040518363ffffffff167c0100000000000000000000000000000000000000000000000000000000028152600401808381526020018273ffffffffffffffffffffffffffffffffffffffff1673ffffffffffffffffffffffffffffffffffffffff16815260200192505050602060405180830381600087803b1515610c3d57600080fd5b5af11515610c4a57600080fd5b505050604051805190501515610c5f57600080fd5b339050600360008273ffffffffffffffffffffffffffffffffffffffff1673ffffffffffffffffffffffffffffffffffffffff16815260200190815260200160002054600160008373ffffffffffffffffffffffffffffffffffffffff1673ffffffffffffffffffffffffffffffffffffffff16815260200190815260200160002081905550600460008273ffffffffffffffffffffffffffffffffffffffff1673ffffffffffffffffffffffffffffffffffffffff16815260200190815260200160002060009054906101000a900460ff16600260008373ffffffffffffffffffffffffffffffffffffffff1673ffffffffffffffffffffffffffffffffffffffff16815260200190815260200160002060006101000a81548160ff02191690836002811115610d8c57fe5b0217905550600360008273ffffffffffffffffffffffffffffffffffffffff1673ffffffffffffffffffffffffffffffffffffffff16815260200190815260200160002054600160008373ffffffffffffffffffffffffffffffffffffffff1673ffffffffffffffffffffffffffffffffffffffff16815260200190815260200160002054148015610ecb5750600460008273ffffffffffffffffffffffffffffffffffffffff1673ffffffffffffffffffffffffffffffffffffffff16815260200190815260200160002060009054906101000a900460ff166002811115610e7157fe5b600260008373ffffffffffffffffffffffffffffffffffffffff1673ffffffffffffffffffffffffffffffffffffffff16815260200190815260200160002060009054906101000a900460ff166002811115610ec957fe5b145b1515610ed357fe5b6000600160008373ffffffffffffffffffffffffffffffffffffffff1673ffffffffffffffffffffffffffffffffffffffff16815260200190815260200160002054118015610f85575060006002811115610f2a57fe5b600460008373ffffffffffffffffffffffffffffffffffffffff1673ffffffffffffffffffffffffffffffffffffffff16815260200190815260200160002060009054906101000a900460ff166002811115610f8257fe5b14155b1515610f8d57fe5b6000600460008373ffffffffffffffffffffffffffffffffffffffff1673ffffffffffffffffffffffffffffffffffffffff16815260200190815260200160002060006101000a81548160ff02191690836002811115610fe957fe5b02179055506000600360008373ffffffffffffffffffffffffffffffffffffffff1673ffffffffffffffffffffffffffffffffffffffff168152602001908152602001600020819055507f4a51379d748065d9bbc74c3bc4bd9a8f59cf592fe507e63aaeb3b25f88a579a98160405180806020018373ffffffffffffffffffffffffffffffffffffffff1673ffffffffffffffffffffffffffffffffffffffff168152602001828103825260108152602001807f70726f706f73616c4163636570746564000000000000000000000000000000008152506020019250505060405180910390a150565b6000809054906101000a900473ffffffffffffffffffffffffffffffffffffffff1673ffffffffffffffffffffffffffffffffffffffff1663559b7bdc6000336040518363ffffffff167c0100000000000000000000000000000000000000000000000000000000028152600401808381526020018273ffffffffffffffffffffffffffffffffffffffff1673ffffffffffffffffffffffffffffffffffffffff16815260200192505050602060405180830381600087803b151561119657600080fd5b5af115156111a357600080fd5b5050506040518051905015156111b857600080fd5b6000809054906101000a900473ffffffffffffffffffffffffffffffffffffffff1673ffffffffffffffffffffffffffffffffffffffff1663559b7bdc6001856040518363ffffffff167c0100000000000000000000000000000000000000000000000000000000028152600401808381526020018273ffffffffffffffffffffffffffffffffffffffff1673ffffffffffffffffffffffffffffffffffffffff16815260200192505050602060405180830381600087803b151561127c57600080fd5b5af1151561128957600080fd5b50505060405180519050151561129e57600080fd5b6000821180156112c55750600060028111156112b657fe5b8160028111156112c257fe5b14155b15156112d057600080fd5b81600360008573ffffffffffffffffffffffffffffffffffffffff1673ffffffffffffffffffffffffffffffffffffffff1681526020019081526020016000208190555080600460008573ffffffffffffffffffffffffffffffffffffffff1673ffffffffffffffffffffffffffffffffffffffff16815260200190815260200160002060006101000a81548160ff0219169083600281111561136f57fe5b02179055507f4a51379d748065d9bbc74c3bc4bd9a8f59cf592fe507e63aaeb3b25f88a579a98360405180806020018373ffffffffffffffffffffffffffffffffffffffff1673ffffffffffffffffffffffffffffffffffffffff1681526020018281038252600d8152602001807f70726f706f73616c4164646564000000000000000000000000000000000000008152506020019250505060405180910390a1505050565b60008060009054906101000a900473ffffffffffffffffffffffffffffffffffffffff1673ffffffffffffffffffffffffffffffffffffffff1663559b7bdc6001336040518363ffffffff167c0100000000000000000000000000000000000000000000000000000000028152600401808381526020018273ffffffffffffffffffffffffffffffffffffffff1673ffffffffffffffffffffffffffffffffffffffff16815260200192505050602060405180830381600087803b15156114db57600080fd5b5af115156114e857600080fd5b5050506040518051905015156114fd57600080fd5b3390506000600460008373ffffffffffffffffffffffffffffffffffffffff1673ffffffffffffffffffffffffffffffffffffffff16815260200190815260200160002060006101000a81548160ff0219169083600281111561155c57fe5b02179055506000600360008373ffffffffffffffffffffffffffffffffffffffff1673ffffffffffffffffffffffffffffffffffffffff168152602001908152602001600020819055507f4a51379d748065d9bbc74c3bc4bd9a8f59cf592fe507e63aaeb3b25f88a579a98160405180806020018373ffffffffffffffffffffffffffffffffffffffff1673ffffffffffffffffffffffffffffffffffffffff168152602001828103825260108152602001807f70726f706f73616c52656a6563746564000000000000000000000000000000008152506020019250505060405180910390a1505600a165627a7a72305820af08ec50f1cbff54da2d12473b50f92cf731caab579f2ef810924110fa76ff020029",
  "source": "pragma solidity ^0.4.0;\nimport \"./CredentialManager.sol\";\n\ncontract SupplierCommisionContract {\n    enum RateType {NONE, FLAT_RATE, DYNAMIC_RATE}\n    \n    uint256 constant public decimals = 3;\n    CredentialManager private credentialManager;\n    bool private isCredentialManagerSet = false;\n\n    mapping(address => uint256) private rate;\n    mapping(address => RateType) private rateType;\n    \n    mapping(address => uint256) private rateProposal;\n    mapping(address => RateType) private rateTypeProposal;\n\n    event SupplierCommisionStatus(string proposalStatus, address supplier);\n\n    function SupplierAdminContract(CredentialManager credmgr) {\n    \trequire(isCredentialManagerSet == false);\n\t    credentialManager = credmgr;\n\t    isCredentialManagerSet = true;\n    }\n    \n    //be careful when reading rate in regard to contract's decimals value\n    function getRate(address supplier) public constant returns (uint256, RateType) {\n        require(credentialManager.isInRole(0,msg.sender) || \n            (msg.sender == supplier && credentialManager.isInRole(1,msg.sender)));\n            \n        return (rate[supplier], rateType[supplier]);\n    }\n\n    //be carefule when setting rate in regard to contract's decimals value\n    function setRate(address supplier, uint256 newRate, RateType newRateType) public {\n        require(credentialManager.isInRole(0,msg.sender));\n        require(credentialManager.isInRole(1,supplier));\n        require(newRate > 0 && newRateType != RateType.NONE);\n        rate[supplier] = newRate;\n        rateType[supplier] = newRateType;\n        SupplierCommisionStatus(\"rateChanged\", supplier);\n    }\n    \n    //be carefule when setting rate in regard to contract's decimals value\n    function proposeRate(address supplier, uint256 newRate, RateType newRateType) public {\n        require(credentialManager.isInRole(0,msg.sender));\n        require(credentialManager.isInRole(1,supplier));\n        require(newRate > 0 && newRateType != RateType.NONE);\n        rateProposal[supplier] = newRate;\n        rateTypeProposal[supplier] = newRateType;\n        SupplierCommisionStatus(\"proposalAdded\", supplier);\n    }\n    \n    //be careful when reading rate in regard to contract's decimals value\n    function getRateProposal(address supplier) public constant returns (uint256, RateType) {\n        require(credentialManager.isInRole(0,msg.sender) || \n            (msg.sender == supplier && credentialManager.isInRole(1,msg.sender)));\n            \n        return (rateProposal[supplier], rateTypeProposal[supplier]);\n    }\n    \n    function acceptRateProposal() public {\n        require(credentialManager.isInRole(1,msg.sender));\n        \n        address supplier = msg.sender;\n        rate[supplier] = rateProposal[supplier];\n        rateType[supplier] = rateTypeProposal[supplier];\n        \n        assert(rate[supplier] == rateProposal[supplier] && rateType[supplier] == rateTypeProposal[supplier]);\n\t    assert(rate[supplier] > 0 && rateTypeProposal[supplier] != RateType.NONE);\n        rateTypeProposal[supplier] = RateType.NONE;\n        rateProposal[supplier] = 0; \n\n        SupplierCommisionStatus(\"proposalAccepted\", supplier);\n    }\n\n    function rejectRateProposal() public {\n        require(credentialManager.isInRole(1,msg.sender));\n        \n        address supplier = msg.sender;\n        rateTypeProposal[supplier] = RateType.NONE;\n        rateProposal[supplier] = 0; \n\n        SupplierCommisionStatus(\"proposalRejected\", supplier);\n    }\n}\n",
  "sourcePath": "/home/fengkiej/Documents/Semester 6/project/smartinvoicetest-master/contracts/SupplierCommisionContract.sol",
  "compiler": {
    "name": "solc",
    "version": "0.4.21+commit.dfe3193c.Emscripten.clang"
  },
  "schemaVersion": "2.0.0",
  "updatedAt": "2018-05-15T17:29:15.524Z"
}