{
  "contractName": "Verification",
  "abi": [
    {
      "inputs": [],
      "payable": false,
      "stateMutability": "nonpayable",
      "type": "constructor"
    },
    {
      "anonymous": false,
      "inputs": [
        {
          "indexed": false,
          "name": "chainy",
          "type": "string"
        },
        {
          "indexed": false,
          "name": "verified",
          "type": "bool"
        },
        {
          "indexed": false,
          "name": "verifier",
          "type": "address"
        }
      ],
      "name": "VerifyEvent",
      "type": "event"
    },
    {
      "constant": false,
      "inputs": [
        {
          "name": "_chainyAddress",
          "type": "address"
        }
      ],
      "name": "setChainy",
      "outputs": [],
      "payable": false,
      "stateMutability": "nonpayable",
      "type": "function"
    },
    {
      "constant": false,
      "inputs": [
        {
          "name": "_chainy",
          "type": "string"
        },
        {
          "name": "_buyer",
          "type": "address"
        }
      ],
      "name": "verifyFromBuyer",
      "outputs": [],
      "payable": false,
      "stateMutability": "nonpayable",
      "type": "function"
    },
    {
      "constant": false,
      "inputs": [
        {
          "name": "_chainy",
          "type": "string"
        },
        {
          "name": "_admin",
          "type": "address"
        }
      ],
      "name": "verifyFromAdmin",
      "outputs": [],
      "payable": false,
      "stateMutability": "nonpayable",
      "type": "function"
    },
    {
      "constant": false,
      "inputs": [
        {
          "name": "_chainy",
          "type": "string"
        },
        {
          "name": "_buyer",
          "type": "address"
        }
      ],
      "name": "rejectFromBuyer",
      "outputs": [],
      "payable": false,
      "stateMutability": "nonpayable",
      "type": "function"
    },
    {
      "constant": false,
      "inputs": [
        {
          "name": "_chainy",
          "type": "string"
        },
        {
          "name": "_admin",
          "type": "address"
        }
      ],
      "name": "rejectFromAdmin",
      "outputs": [],
      "payable": false,
      "stateMutability": "nonpayable",
      "type": "function"
    },
    {
      "constant": true,
      "inputs": [
        {
          "name": "_chainy",
          "type": "string"
        }
      ],
      "name": "getVerificationStatus",
      "outputs": [
        {
          "name": "",
          "type": "bool"
        }
      ],
      "payable": false,
      "stateMutability": "view",
      "type": "function"
    }
  ],
  "bytecode": "0x6060604052341561000f57600080fd5b610cb08061001e6000396000f300606060405260043610610078576000357c0100000000000000000000000000000000000000000000000000000000900463ffffffff168063042b21671461007d5780631e6d5b60146100f25780634a625e991461016e578063a291f310146101a7578063b6249f6c14610223578063f6cfbbb51461029f575b600080fd5b341561008857600080fd5b6100d8600480803590602001908201803590602001908080601f0160208091040260200160405190810160405280939291908181526020018383808284378201915050505050509190505061031b565b604051808215151515815260200191505060405180910390f35b34156100fd57600080fd5b61016c600480803590602001908201803590602001908080601f0160208091040260200160405190810160405280939291908181526020018383808284378201915050505050509190803573ffffffffffffffffffffffffffffffffffffffff16906020019091905050610488565b005b341561017957600080fd5b6101a5600480803573ffffffffffffffffffffffffffffffffffffffff16906020019091905050610613565b005b34156101b257600080fd5b610221600480803590602001908201803590602001908080601f0160208091040260200160405190810160405280939291908181526020018383808284378201915050505050509190803573ffffffffffffffffffffffffffffffffffffffff1690602001909190505061068e565b005b341561022e57600080fd5b61029d600480803590602001908201803590602001908080601f0160208091040260200160405190810160405280939291908181526020018383808284378201915050505050509190803573ffffffffffffffffffffffffffffffffffffffff169060200190919050506108c4565b005b34156102aa57600080fd5b610319600480803590602001908201803590602001908080601f0160208091040260200160405190810160405280939291908181526020018383808284378201915050505050509190803573ffffffffffffffffffffffffffffffffffffffff16906020019091905050610a4f565b005b6000806000836040518082805190602001908083835b6020831015156103565780518252602082019150602081019050602083039250610331565b6001836020036101000a038019825116818451168082178552505050505050905001915050908152602001604051809103902060009054906101000a900473ffffffffffffffffffffffffffffffffffffffff1673ffffffffffffffffffffffffffffffffffffffff1614158015610470575060006001836040518082805190602001908083835b60208310151561040357805182526020820191506020810190506020830392506103de565b6001836020036101000a038019825116818451168082178552505050505050905001915050908152602001604051809103902060009054906101000a900473ffffffffffffffffffffffffffffffffffffffff1673ffffffffffffffffffffffffffffffffffffffff1614155b1561047e5760019050610483565b600090505b919050565b806000836040518082805190602001908083835b6020831015156104c1578051825260208201915060208101905060208303925061049c565b6001836020036101000a038019825116818451168082178552505050505050905001915050908152602001604051809103902060006101000a81548173ffffffffffffffffffffffffffffffffffffffff021916908373ffffffffffffffffffffffffffffffffffffffff1602179055507f1a3c269b8d79e1283edaeae9cd6fb7f52969ed0cb092a76e8dca686cc3b7a0a9826001836040518080602001841515151581526020018373ffffffffffffffffffffffffffffffffffffffff1673ffffffffffffffffffffffffffffffffffffffff168152602001828103825285818151815260200191508051906020019080838360005b838110156105d35780820151818401526020810190506105b8565b50505050905090810190601f1680156106005780820380516001836020036101000a031916815260200191505b5094505050505060405180910390a15050565b600460149054906101000a900460ff1615151561062f57600080fd5b80600460006101000a81548173ffffffffffffffffffffffffffffffffffffffff021916908373ffffffffffffffffffffffffffffffffffffffff1602179055506001600460146101000a81548160ff02191690831515021790555050565b60006001836040518082805190602001908083835b6020831015156106c857805182526020820191506020810190506020830392506106a3565b6001836020036101000a038019825116818451168082178552505050505050905001915050908152602001604051809103902060006101000a81548173ffffffffffffffffffffffffffffffffffffffff021916908373ffffffffffffffffffffffffffffffffffffffff160217905550806003836040518082805190602001908083835b602083101515610772578051825260208201915060208101905060208303925061074d565b6001836020036101000a038019825116818451168082178552505050505050905001915050908152602001604051809103902060006101000a81548173ffffffffffffffffffffffffffffffffffffffff021916908373ffffffffffffffffffffffffffffffffffffffff1602179055507f1a3c269b8d79e1283edaeae9cd6fb7f52969ed0cb092a76e8dca686cc3b7a0a9826000836040518080602001841515151581526020018373ffffffffffffffffffffffffffffffffffffffff1673ffffffffffffffffffffffffffffffffffffffff168152602001828103825285818151815260200191508051906020019080838360005b83811015610884578082015181840152602081019050610869565b50505050905090810190601f1680156108b15780820380516001836020036101000a031916815260200191505b5094505050505060405180910390a15050565b806001836040518082805190602001908083835b6020831015156108fd57805182526020820191506020810190506020830392506108d8565b6001836020036101000a038019825116818451168082178552505050505050905001915050908152602001604051809103902060006101000a81548173ffffffffffffffffffffffffffffffffffffffff021916908373ffffffffffffffffffffffffffffffffffffffff1602179055507f1a3c269b8d79e1283edaeae9cd6fb7f52969ed0cb092a76e8dca686cc3b7a0a9826001836040518080602001841515151581526020018373ffffffffffffffffffffffffffffffffffffffff1673ffffffffffffffffffffffffffffffffffffffff168152602001828103825285818151815260200191508051906020019080838360005b83811015610a0f5780820151818401526020810190506109f4565b50505050905090810190601f168015610a3c5780820380516001836020036101000a031916815260200191505b5094505050505060405180910390a15050565b600080836040518082805190602001908083835b602083101515610a885780518252602082019150602081019050602083039250610a63565b6001836020036101000a038019825116818451168082178552505050505050905001915050908152602001604051809103902060006101000a81548173ffffffffffffffffffffffffffffffffffffffff021916908373ffffffffffffffffffffffffffffffffffffffff160217905550806002836040518082805190602001908083835b602083101515610b325780518252602082019150602081019050602083039250610b0d565b6001836020036101000a038019825116818451168082178552505050505050905001915050908152602001604051809103902060006101000a81548173ffffffffffffffffffffffffffffffffffffffff021916908373ffffffffffffffffffffffffffffffffffffffff1602179055507f1a3c269b8d79e1283edaeae9cd6fb7f52969ed0cb092a76e8dca686cc3b7a0a9826000836040518080602001841515151581526020018373ffffffffffffffffffffffffffffffffffffffff1673ffffffffffffffffffffffffffffffffffffffff168152602001828103825285818151815260200191508051906020019080838360005b83811015610c44578082015181840152602081019050610c29565b50505050905090810190601f168015610c715780820380516001836020036101000a031916815260200191505b5094505050505060405180910390a150505600a165627a7a72305820ed868f7fb72e7644d57ab26a4cda811a5e526a24dde59efb55407a18e162230d0029",
  "source": "pragma solidity ^0.4.16;\r\n\r\nimport \"./Chainy.sol\";\r\n\r\ncontract Verification {\r\n    mapping (string => address) invoiceBuyer;\r\n    mapping (string => address) invoiceAdminVerifier;\r\n\r\n    mapping (string => address) rejectedByBuyer;\r\n    mapping (string => address) rejectedByAdmin;\r\n\r\n    Chainy private chainy;\r\n    bool private isChainySet;\r\n    \r\n    event VerifyEvent(string chainy, bool verified, address verifier);\r\n\r\n    function Verification() public {\r\n        \r\n    }\r\n\r\n    function setChainy(address _chainyAddress) {\r\n        require(!isChainySet);\r\n        chainy = Chainy(_chainyAddress);\r\n        isChainySet = true;\r\n    }\r\n\r\n    function verifyFromBuyer(string _chainy, address _buyer) public {\r\n        invoiceBuyer[_chainy] = _buyer;\r\n        \r\n        VerifyEvent(_chainy,true,_buyer); \r\n    }\r\n\r\n    function verifyFromAdmin(string _chainy, address _admin) public {\r\n        invoiceAdminVerifier[_chainy] = _admin;\r\n        \r\n        VerifyEvent(_chainy, true, _admin);\r\n    }\r\n\r\n    \r\n    function rejectFromBuyer(string _chainy, address _buyer) public {\r\n        invoiceBuyer[_chainy] = 0x0;\r\n        rejectedByBuyer[_chainy] = _buyer;\r\n        \r\n        VerifyEvent(_chainy, false, _buyer); \r\n    }\r\n\r\n    function rejectFromAdmin(string _chainy, address _admin) public {\r\n        invoiceAdminVerifier[_chainy] = 0x0;\r\n        rejectedByAdmin[_chainy] = _admin;\r\n        \r\n        VerifyEvent(_chainy, false, _admin);\r\n    }\r\n\r\n    function getVerificationStatus(string _chainy) public constant returns(bool) {\r\n        if (invoiceBuyer[_chainy] != 0x0 && invoiceAdminVerifier[_chainy] != 0x0){\r\n            return true;\r\n        }\r\n        return false;\r\n    }\r\n}\r\n",
  "sourcePath": "C:\\Side\\dnb\\smartinvoice\\contracts\\Verification.sol",
  "compiler": {
    "name": "solc",
    "version": "0.4.21+commit.dfe3193c.Emscripten.clang"
  },
  "schemaVersion": "2.0.0",
  "updatedAt": "2018-05-29T15:09:06.690Z"
}