{
  "contractName": "Verification",
  "abi": [
    {
      "inputs": [],
      "payable": false,
      "stateMutability": "nonpayable",
      "type": "constructor"
    },
    {
      "anonymous": false,
      "inputs": [
        {
          "indexed": false,
          "name": "chainy",
          "type": "string"
        },
        {
          "indexed": false,
          "name": "verified",
          "type": "bool"
        },
        {
          "indexed": false,
          "name": "verifier",
          "type": "address"
        }
      ],
      "name": "VerifyEvent",
      "type": "event"
    },
    {
      "constant": false,
      "inputs": [
        {
          "name": "_chainy",
          "type": "string"
        },
        {
          "name": "_buyer",
          "type": "address"
        }
      ],
      "name": "verifyFromBuyer",
      "outputs": [],
      "payable": false,
      "stateMutability": "nonpayable",
      "type": "function"
    },
    {
      "constant": false,
      "inputs": [
        {
          "name": "_chainy",
          "type": "string"
        },
        {
          "name": "_admin",
          "type": "address"
        }
      ],
      "name": "verifyFromAdmin",
      "outputs": [],
      "payable": false,
      "stateMutability": "nonpayable",
      "type": "function"
    },
    {
      "constant": false,
      "inputs": [
        {
          "name": "_chainy",
          "type": "string"
        },
        {
          "name": "_buyer",
          "type": "address"
        }
      ],
      "name": "rejectFromBuyer",
      "outputs": [],
      "payable": false,
      "stateMutability": "nonpayable",
      "type": "function"
    },
    {
      "constant": false,
      "inputs": [
        {
          "name": "_chainy",
          "type": "string"
        },
        {
          "name": "_admin",
          "type": "address"
        }
      ],
      "name": "rejectFromAdmin",
      "outputs": [],
      "payable": false,
      "stateMutability": "nonpayable",
      "type": "function"
    },
    {
      "constant": true,
      "inputs": [
        {
          "name": "_chainy",
          "type": "string"
        }
      ],
      "name": "getVerificationStatus",
      "outputs": [
        {
          "name": "",
          "type": "bool"
        }
      ],
      "payable": false,
      "stateMutability": "view",
      "type": "function"
    }
  ],
  "bytecode": "0x6060604052341561000f57600080fd5b610bf18061001e6000396000f30060606040526004361061006d576000357c0100000000000000000000000000000000000000000000000000000000900463ffffffff168063042b2167146100725780631e6d5b60146100e7578063a291f31014610163578063b6249f6c146101df578063f6cfbbb51461025b575b600080fd5b341561007d57600080fd5b6100cd600480803590602001908201803590602001908080601f016020809104026020016040519081016040528093929190818152602001838380828437820191505050505050919050506102d7565b604051808215151515815260200191505060405180910390f35b34156100f257600080fd5b610161600480803590602001908201803590602001908080601f0160208091040260200160405190810160405280939291908181526020018383808284378201915050505050509190803573ffffffffffffffffffffffffffffffffffffffff16906020019091905050610444565b005b341561016e57600080fd5b6101dd600480803590602001908201803590602001908080601f0160208091040260200160405190810160405280939291908181526020018383808284378201915050505050509190803573ffffffffffffffffffffffffffffffffffffffff169060200190919050506105cf565b005b34156101ea57600080fd5b610259600480803590602001908201803590602001908080601f0160208091040260200160405190810160405280939291908181526020018383808284378201915050505050509190803573ffffffffffffffffffffffffffffffffffffffff16906020019091905050610805565b005b341561026657600080fd5b6102d5600480803590602001908201803590602001908080601f0160208091040260200160405190810160405280939291908181526020018383808284378201915050505050509190803573ffffffffffffffffffffffffffffffffffffffff16906020019091905050610990565b005b6000806000836040518082805190602001908083835b60208310151561031257805182526020820191506020810190506020830392506102ed565b6001836020036101000a038019825116818451168082178552505050505050905001915050908152602001604051809103902060009054906101000a900473ffffffffffffffffffffffffffffffffffffffff1673ffffffffffffffffffffffffffffffffffffffff161415801561042c575060006001836040518082805190602001908083835b6020831015156103bf578051825260208201915060208101905060208303925061039a565b6001836020036101000a038019825116818451168082178552505050505050905001915050908152602001604051809103902060009054906101000a900473ffffffffffffffffffffffffffffffffffffffff1673ffffffffffffffffffffffffffffffffffffffff1614155b1561043a576001905061043f565b600090505b919050565b806000836040518082805190602001908083835b60208310151561047d5780518252602082019150602081019050602083039250610458565b6001836020036101000a038019825116818451168082178552505050505050905001915050908152602001604051809103902060006101000a81548173ffffffffffffffffffffffffffffffffffffffff021916908373ffffffffffffffffffffffffffffffffffffffff1602179055507f1a3c269b8d79e1283edaeae9cd6fb7f52969ed0cb092a76e8dca686cc3b7a0a9826001836040518080602001841515151581526020018373ffffffffffffffffffffffffffffffffffffffff1673ffffffffffffffffffffffffffffffffffffffff168152602001828103825285818151815260200191508051906020019080838360005b8381101561058f578082015181840152602081019050610574565b50505050905090810190601f1680156105bc5780820380516001836020036101000a031916815260200191505b5094505050505060405180910390a15050565b60006001836040518082805190602001908083835b60208310151561060957805182526020820191506020810190506020830392506105e4565b6001836020036101000a038019825116818451168082178552505050505050905001915050908152602001604051809103902060006101000a81548173ffffffffffffffffffffffffffffffffffffffff021916908373ffffffffffffffffffffffffffffffffffffffff160217905550806003836040518082805190602001908083835b6020831015156106b3578051825260208201915060208101905060208303925061068e565b6001836020036101000a038019825116818451168082178552505050505050905001915050908152602001604051809103902060006101000a81548173ffffffffffffffffffffffffffffffffffffffff021916908373ffffffffffffffffffffffffffffffffffffffff1602179055507f1a3c269b8d79e1283edaeae9cd6fb7f52969ed0cb092a76e8dca686cc3b7a0a9826000836040518080602001841515151581526020018373ffffffffffffffffffffffffffffffffffffffff1673ffffffffffffffffffffffffffffffffffffffff168152602001828103825285818151815260200191508051906020019080838360005b838110156107c55780820151818401526020810190506107aa565b50505050905090810190601f1680156107f25780820380516001836020036101000a031916815260200191505b5094505050505060405180910390a15050565b806001836040518082805190602001908083835b60208310151561083e5780518252602082019150602081019050602083039250610819565b6001836020036101000a038019825116818451168082178552505050505050905001915050908152602001604051809103902060006101000a81548173ffffffffffffffffffffffffffffffffffffffff021916908373ffffffffffffffffffffffffffffffffffffffff1602179055507f1a3c269b8d79e1283edaeae9cd6fb7f52969ed0cb092a76e8dca686cc3b7a0a9826001836040518080602001841515151581526020018373ffffffffffffffffffffffffffffffffffffffff1673ffffffffffffffffffffffffffffffffffffffff168152602001828103825285818151815260200191508051906020019080838360005b83811015610950578082015181840152602081019050610935565b50505050905090810190601f16801561097d5780820380516001836020036101000a031916815260200191505b5094505050505060405180910390a15050565b600080836040518082805190602001908083835b6020831015156109c957805182526020820191506020810190506020830392506109a4565b6001836020036101000a038019825116818451168082178552505050505050905001915050908152602001604051809103902060006101000a81548173ffffffffffffffffffffffffffffffffffffffff021916908373ffffffffffffffffffffffffffffffffffffffff160217905550806002836040518082805190602001908083835b602083101515610a735780518252602082019150602081019050602083039250610a4e565b6001836020036101000a038019825116818451168082178552505050505050905001915050908152602001604051809103902060006101000a81548173ffffffffffffffffffffffffffffffffffffffff021916908373ffffffffffffffffffffffffffffffffffffffff1602179055507f1a3c269b8d79e1283edaeae9cd6fb7f52969ed0cb092a76e8dca686cc3b7a0a9826000836040518080602001841515151581526020018373ffffffffffffffffffffffffffffffffffffffff1673ffffffffffffffffffffffffffffffffffffffff168152602001828103825285818151815260200191508051906020019080838360005b83811015610b85578082015181840152602081019050610b6a565b50505050905090810190601f168015610bb25780820380516001836020036101000a031916815260200191505b5094505050505060405180910390a150505600a165627a7a723058200235187b0b1cd491cdf28c49809b389d4612ad6efde760b7ffded2e33dfa51490029",
  "source": "pragma solidity ^0.4.16;\r\n\r\nimport \"./Chainy.sol\";\r\n\r\ncontract Verification {\r\n    mapping (string => address) invoiceBuyer;\r\n    mapping (string => address) invoiceAdminVerifier;\r\n\r\n    mapping (string => address) rejectedByBuyer;\r\n    mapping (string => address) rejectedByAdmin;\r\n\r\n    event VerifyEvent(string chainy, bool verified, address verifier);\r\n\r\n    function Verification() public {\r\n        \r\n    }\r\n\r\n    function verifyFromBuyer(string _chainy, address _buyer) public {\r\n        invoiceBuyer[_chainy] = _buyer;\r\n        \r\n        VerifyEvent(_chainy,true,_buyer); \r\n    }\r\n\r\n    function verifyFromAdmin(string _chainy, address _admin) public {\r\n        invoiceAdminVerifier[_chainy] = _admin;\r\n        \r\n        VerifyEvent(_chainy, true, _admin);\r\n    }\r\n\r\n    \r\n    function rejectFromBuyer(string _chainy, address _buyer) public {\r\n        invoiceBuyer[_chainy] = 0x0;\r\n        rejectedByBuyer[_chainy] = _buyer;\r\n        \r\n        VerifyEvent(_chainy, false, _buyer); \r\n    }\r\n\r\n    function rejectFromAdmin(string _chainy, address _admin) public {\r\n        invoiceAdminVerifier[_chainy] = 0x0;\r\n        rejectedByAdmin[_chainy] = _admin;\r\n        \r\n        VerifyEvent(_chainy, false, _admin);\r\n    }\r\n\r\n    function getVerificationStatus(string _chainy) public constant returns(bool) {\r\n        if (invoiceBuyer[_chainy] != 0x0 && invoiceAdminVerifier[_chainy] != 0x0){\r\n            return true;\r\n        }\r\n        return false;\r\n    }\r\n}\r\n",
  "sourcePath": "C:\\Side\\dnb\\smartinvoice\\contracts\\Verification.sol",
  "compiler": {
    "name": "solc",
    "version": "0.4.21+commit.dfe3193c.Emscripten.clang"
  },
  "schemaVersion": "2.0.0",
  "updatedAt": "2018-05-31T15:06:28.264Z"
}