{
  "contractName": "Verification",
  "abi": [
    {
      "inputs": [],
      "payable": false,
      "stateMutability": "nonpayable",
      "type": "constructor"
    },
    {
      "anonymous": false,
      "inputs": [
        {
          "indexed": false,
          "name": "chainy",
          "type": "string"
        },
        {
          "indexed": false,
          "name": "verificationStatus",
          "type": "bool"
        }
      ],
      "name": "VerificationStatusEvent",
      "type": "event"
    },
    {
      "constant": false,
      "inputs": [
        {
          "name": "_chainy",
          "type": "string"
        },
        {
          "name": "_buyer",
          "type": "address"
        }
      ],
      "name": "verifyFromBuyer",
      "outputs": [],
      "payable": false,
      "stateMutability": "nonpayable",
      "type": "function"
    },
    {
      "constant": false,
      "inputs": [
        {
          "name": "_chainy",
          "type": "string"
        },
        {
          "name": "_admin",
          "type": "address"
        }
      ],
      "name": "verifyFromAdmin",
      "outputs": [],
      "payable": false,
      "stateMutability": "nonpayable",
      "type": "function"
    },
    {
      "constant": true,
      "inputs": [
        {
          "name": "_chainy",
          "type": "string"
        }
      ],
      "name": "getVerificationStatus",
      "outputs": [
        {
          "name": "",
          "type": "bool"
        }
      ],
      "payable": false,
      "stateMutability": "view",
      "type": "function"
    }
  ],
  "bytecode": "0x6060604052341561000f57600080fd5b61061e8061001e6000396000f300606060405260043610610057576000357c0100000000000000000000000000000000000000000000000000000000900463ffffffff168063042b21671461005c5780631e6d5b60146100d1578063b6249f6c1461014d575b600080fd5b341561006757600080fd5b6100b7600480803590602001908201803590602001908080601f016020809104026020016040519081016040528093929190818152602001838380828437820191505050505050919050506101c9565b604051808215151515815260200191505060405180910390f35b34156100dc57600080fd5b61014b600480803590602001908201803590602001908080601f0160208091040260200160405190810160405280939291908181526020018383808284378201915050505050509190803573ffffffffffffffffffffffffffffffffffffffff16906020019091905050610336565b005b341561015857600080fd5b6101c7600480803590602001908201803590602001908080601f0160208091040260200160405190810160405280939291908181526020018383808284378201915050505050509190803573ffffffffffffffffffffffffffffffffffffffff16906020019091905050610494565b005b6000806000836040518082805190602001908083835b60208310151561020457805182526020820191506020810190506020830392506101df565b6001836020036101000a038019825116818451168082178552505050505050905001915050908152602001604051809103902060009054906101000a900473ffffffffffffffffffffffffffffffffffffffff1673ffffffffffffffffffffffffffffffffffffffff161415801561031e575060006001836040518082805190602001908083835b6020831015156102b1578051825260208201915060208101905060208303925061028c565b6001836020036101000a038019825116818451168082178552505050505050905001915050908152602001604051809103902060009054906101000a900473ffffffffffffffffffffffffffffffffffffffff1673ffffffffffffffffffffffffffffffffffffffff1614155b1561032c5760019050610331565b600090505b919050565b806000836040518082805190602001908083835b60208310151561036f578051825260208201915060208101905060208303925061034a565b6001836020036101000a038019825116818451168082178552505050505050905001915050908152602001604051809103902060006101000a81548173ffffffffffffffffffffffffffffffffffffffff021916908373ffffffffffffffffffffffffffffffffffffffff1602179055507f97097f8c4a11af6297fa559115304bd0c8d05992dc7b5ca21cc8c47165280a368261040b846101c9565b604051808060200183151515158152602001828103825284818151815260200191508051906020019080838360005b8381101561045557808201518184015260208101905061043a565b50505050905090810190601f1680156104825780820380516001836020036101000a031916815260200191505b50935050505060405180910390a15050565b806001836040518082805190602001908083835b6020831015156104cd57805182526020820191506020810190506020830392506104a8565b6001836020036101000a038019825116818451168082178552505050505050905001915050908152602001604051809103902060006101000a81548173ffffffffffffffffffffffffffffffffffffffff021916908373ffffffffffffffffffffffffffffffffffffffff1602179055507f97097f8c4a11af6297fa559115304bd0c8d05992dc7b5ca21cc8c47165280a3682610569846101c9565b604051808060200183151515158152602001828103825284818151815260200191508051906020019080838360005b838110156105b3578082015181840152602081019050610598565b50505050905090810190601f1680156105e05780820380516001836020036101000a031916815260200191505b50935050505060405180910390a150505600a165627a7a723058205effe7165d26dc7964334ae33997919ea2faef4cac8c6336267c77ccc42f7b240029",
  "source": "pragma solidity ^0.4.16;\n\ncontract Verification {\n    mapping (string => address) invoiceBuyer;\n    mapping (string => address) invoiceAdminVerifier;\n    \n    event VerificationStatusEvent(string chainy, bool verificationStatus);\n\n    function Verification() public {\n\n    }\n\n    function verifyFromBuyer(string _chainy, address _buyer) public {\n        invoiceBuyer[_chainy] = _buyer;\n        \n        VerificationStatusEvent(_chainy, getVerificationStatus(_chainy)); \n    }\n\n    function verifyFromAdmin(string _chainy, address _admin) public {\n        invoiceAdminVerifier[_chainy] = _admin;\n        \n        VerificationStatusEvent(_chainy, getVerificationStatus(_chainy));\n    }\n\n    function getVerificationStatus(string _chainy) public constant returns(bool) {\n        if(invoiceBuyer[_chainy] != 0x0 && invoiceAdminVerifier[_chainy] != 0x0) {\n            return true;\n        }\n        return false;\n    }\n}\n",
  "sourcePath": "/home/fengkiej/Documents/Semester 6/project/smartinvoicetest-master/contracts/Verification.sol",
  "compiler": {
    "name": "solc",
    "version": "0.4.21+commit.dfe3193c.Emscripten.clang"
  },
  "schemaVersion": "2.0.0",
  "updatedAt": "2018-05-15T17:29:15.611Z"
}