{
  "contractName": "Verification",
  "abi": [
    {
      "inputs": [],
      "payable": false,
      "stateMutability": "nonpayable",
      "type": "constructor"
    },
    {
      "constant": false,
      "inputs": [
        {
          "name": "_chainy",
          "type": "string"
        },
        {
          "name": "_buyer",
          "type": "address"
        }
      ],
      "name": "verifyFromBuyer",
      "outputs": [],
      "payable": false,
      "stateMutability": "nonpayable",
      "type": "function"
    },
    {
      "constant": false,
      "inputs": [
        {
          "name": "_chainy",
          "type": "string"
        },
        {
          "name": "_admin",
          "type": "address"
        }
      ],
      "name": "verifyFromAdmin",
      "outputs": [],
      "payable": false,
      "stateMutability": "nonpayable",
      "type": "function"
    },
    {
      "constant": true,
      "inputs": [
        {
          "name": "_chainy",
          "type": "string"
        }
      ],
      "name": "getVerificationStatus",
      "outputs": [
        {
          "name": "",
          "type": "bool"
        }
      ],
      "payable": false,
      "stateMutability": "view",
      "type": "function"
    }
  ],
  "bytecode": "0x6060604052341561000f57600080fd5b6104be8061001e6000396000f300606060405260043610610057576000357c0100000000000000000000000000000000000000000000000000000000900463ffffffff168063042b21671461005c5780631e6d5b60146100d1578063b6249f6c1461014d575b600080fd5b341561006757600080fd5b6100b7600480803590602001908201803590602001908080601f016020809104026020016040519081016040528093929190818152602001838380828437820191505050505050919050506101c9565b604051808215151515815260200191505060405180910390f35b34156100dc57600080fd5b61014b600480803590602001908201803590602001908080601f0160208091040260200160405190810160405280939291908181526020018383808284378201915050505050509190803573ffffffffffffffffffffffffffffffffffffffff16906020019091905050610336565b005b341561015857600080fd5b6101c7600480803590602001908201803590602001908080601f0160208091040260200160405190810160405280939291908181526020018383808284378201915050505050509190803573ffffffffffffffffffffffffffffffffffffffff169060200190919050506103e4565b005b6000806000836040518082805190602001908083835b60208310151561020457805182526020820191506020810190506020830392506101df565b6001836020036101000a038019825116818451168082178552505050505050905001915050908152602001604051809103902060009054906101000a900473ffffffffffffffffffffffffffffffffffffffff1673ffffffffffffffffffffffffffffffffffffffff161415801561031e575060006001836040518082805190602001908083835b6020831015156102b1578051825260208201915060208101905060208303925061028c565b6001836020036101000a038019825116818451168082178552505050505050905001915050908152602001604051809103902060009054906101000a900473ffffffffffffffffffffffffffffffffffffffff1673ffffffffffffffffffffffffffffffffffffffff1614155b1561032c5760019050610331565b600090505b919050565b806000836040518082805190602001908083835b60208310151561036f578051825260208201915060208101905060208303925061034a565b6001836020036101000a038019825116818451168082178552505050505050905001915050908152602001604051809103902060006101000a81548173ffffffffffffffffffffffffffffffffffffffff021916908373ffffffffffffffffffffffffffffffffffffffff1602179055505050565b806001836040518082805190602001908083835b60208310151561041d57805182526020820191506020810190506020830392506103f8565b6001836020036101000a038019825116818451168082178552505050505050905001915050908152602001604051809103902060006101000a81548173ffffffffffffffffffffffffffffffffffffffff021916908373ffffffffffffffffffffffffffffffffffffffff16021790555050505600a165627a7a723058200b687ecfce73c48cfe1209d3283ebee6c6770df39762bbee7341332731e7e09c0029",
  "source": "pragma solidity ^0.4.16;\r\n\r\ncontract Verification {\r\n    mapping (string => address) invoiceBuyer;\r\n    mapping (string => address) invoiceAdminVerifier;\r\n\r\n    function Verification() public {\r\n\r\n    }\r\n\r\n    function verifyFromBuyer(string _chainy, address _buyer) public {\r\n        invoiceBuyer[_chainy] = _buyer;\r\n    }\r\n\r\n    function verifyFromAdmin(string _chainy, address _admin) public {\r\n        invoiceAdminVerifier[_chainy] = _admin;\r\n    }\r\n\r\n    function getVerificationStatus(string _chainy) public constant returns(bool) {\r\n        if(invoiceBuyer[_chainy] != 0x0 && invoiceAdminVerifier[_chainy] != 0x0) {\r\n            return true;\r\n        }\r\n        return false;\r\n    }\r\n}",
  "sourcePath": "C:\\Side\\dnb\\smartinvoice\\contracts\\Verification.sol",
  "compiler": {
    "name": "solc",
    "version": "0.4.21+commit.dfe3193c.Emscripten.clang"
  },
  "schemaVersion": "2.0.0",
  "updatedAt": "2018-04-04T14:15:48.837Z"
}